{"tests/output/contracts/pizza/PIZZA_ProcessExecution.sol":{"PIZZA_ProcessExecution":{"abi":[{"inputs":[{"internalType":"address[3]","name":"_participants","type":"address[3]"}],"stateMutability":"nonpayable","type":"constructor"},{"inputs":[{"internalType":"uint256","name":"id","type":"uint256"}],"name":"enact","outputs":[],"stateMutability":"nonpayable","type":"function"},{"inputs":[],"name":"items","outputs":[{"internalType":"bool","name":"","type":"bool"}],"stateMutability":"view","type":"function"},{"inputs":[{"internalType":"uint256","name":"","type":"uint256"}],"name":"participants","outputs":[{"internalType":"address","name":"","type":"address"}],"stateMutability":"view","type":"function"},{"inputs":[{"internalType":"bool","name":"_items","type":"bool"}],"name":"setitems","outputs":[],"stateMutability":"nonpayable","type":"function"},{"inputs":[],"name":"tokenState","outputs":[{"internalType":"uint256","name":"","type":"uint256"}],"stateMutability":"view","type":"function"}],"evm":{"bytecode":{"linkReferences":{},"object":"608060405260016000556004805460ff1916905534801561001f57600080fd5b5060405161042138038061042183398101604081905261003e916100db565b61004b6001826003610052565b505061016d565b826003810192821561009a579160200282015b8281111561009a57825182546001600160a01b0319166001600160a01b03909116178255602090920191600190910190610065565b506100a69291506100aa565b5090565b5b808211156100a657600081556001016100ab565b80516001600160a01b03811681146100d657600080fd5b919050565b6000606082840312156100ed57600080fd5b82601f8301126100fc57600080fd5b604051606081016001600160401b038111828210171561012c57634e487b7160e01b600052604160045260246000fd5b60405280606084018581111561014157600080fd5b845b8181101561016257610154816100bf565b835260209283019201610143565b509195945050505050565b6102a58061017c6000396000f3fe608060405234801561001057600080fd5b50600436106100575760003560e01c806335c1d3491461005c5780635e9cc2a91461008c578063ab60a9a9146100a1578063c06fad06146100c2578063e90dd9e2146100df575b600080fd5b61006f61006a36600461022d565b6100f6565b6040516001600160a01b0390911681526020015b60405180910390f35b61009f61009a36600461022d565b610116565b005b61009f6100af366004610246565b6004805460ff1916911515919091179055565b6004546100cf9060ff1681565b6040519015158152602001610083565b6100e860005481565b604051908152602001610083565b6001816003811061010657600080fd5b01546001600160a01b0316905081565b6000545b801561022757806001166001141561015e5781600114801561014957506001600001546001600160a01b031633145b1561015e57600091506001191660021761011a565b80600216600214156101b757816002148015610186575060018001546001600160a01b031633145b1561019b57600091506002191660041761011a565b60045460ff161515600114156101b7576002191660081761011a565b80600416600414156101f4578160031480156101df575060018001546001600160a01b031633145b156101f457600091506004191660081761011a565b80600816600814156102275781600414801561021d57506001600201546001600160a01b031633145b1561022757600819165b60005550565b60006020828403121561023f57600080fd5b5035919050565b60006020828403121561025857600080fd5b8135801515811461026857600080fd5b939250505056fea26469706673582212202f1a50008d659bc65257e08f2908a4be921b637fa3163e2b673b0f2c668087a664736f6c63430008090033","opcodes":"PUSH1 0x80 PUSH1 0x40 MSTORE PUSH1 0x1 PUSH1 0x0 SSTORE PUSH1 0x4 DUP1 SLOAD PUSH1 0xFF NOT AND SWAP1 SSTORE CALLVALUE DUP1 ISZERO PUSH2 0x1F JUMPI PUSH1 0x0 DUP1 REVERT JUMPDEST POP PUSH1 0x40 MLOAD PUSH2 0x421 CODESIZE SUB DUP1 PUSH2 0x421 DUP4 CODECOPY DUP2 ADD PUSH1 0x40 DUP2 SWAP1 MSTORE PUSH2 0x3E SWAP2 PUSH2 0xDB JUMP JUMPDEST PUSH2 0x4B PUSH1 0x1 DUP3 PUSH1 0x3 PUSH2 0x52 JUMP JUMPDEST POP POP PUSH2 0x16D JUMP JUMPDEST DUP3 PUSH1 0x3 DUP2 ADD SWAP3 DUP3 ISZERO PUSH2 0x9A JUMPI SWAP2 PUSH1 0x20 MUL DUP3 ADD JUMPDEST DUP3 DUP2 GT ISZERO PUSH2 0x9A JUMPI DUP3 MLOAD DUP3 SLOAD PUSH1 0x1 PUSH1 0x1 PUSH1 0xA0 SHL SUB NOT AND PUSH1 0x1 PUSH1 0x1 PUSH1 0xA0 SHL SUB SWAP1 SWAP2 AND OR DUP3 SSTORE PUSH1 0x20 SWAP1 SWAP3 ADD SWAP2 PUSH1 0x1 SWAP1 SWAP2 ADD SWAP1 PUSH2 0x65 JUMP JUMPDEST POP PUSH2 0xA6 SWAP3 SWAP2 POP PUSH2 0xAA JUMP JUMPDEST POP SWAP1 JUMP JUMPDEST JUMPDEST DUP1 DUP3 GT ISZERO PUSH2 0xA6 JUMPI PUSH1 0x0 DUP2 SSTORE PUSH1 0x1 ADD PUSH2 0xAB JUMP JUMPDEST DUP1 MLOAD PUSH1 0x1 PUSH1 0x1 PUSH1 0xA0 SHL SUB DUP2 AND DUP2 EQ PUSH2 0xD6 JUMPI PUSH1 0x0 DUP1 REVERT JUMPDEST SWAP2 SWAP1 POP JUMP JUMPDEST PUSH1 0x0 PUSH1 0x60 DUP3 DUP5 SUB SLT ISZERO PUSH2 0xED JUMPI PUSH1 0x0 DUP1 REVERT JUMPDEST DUP3 PUSH1 0x1F DUP4 ADD SLT PUSH2 0xFC JUMPI PUSH1 0x0 DUP1 REVERT JUMPDEST PUSH1 0x40 MLOAD PUSH1 0x60 DUP2 ADD PUSH1 0x1 PUSH1 0x1 PUSH1 0x40 SHL SUB DUP2 GT DUP3 DUP3 LT OR ISZERO PUSH2 0x12C JUMPI PUSH4 0x4E487B71 PUSH1 0xE0 SHL PUSH1 0x0 MSTORE PUSH1 0x41 PUSH1 0x4 MSTORE PUSH1 0x24 PUSH1 0x0 REVERT JUMPDEST PUSH1 0x40 MSTORE DUP1 PUSH1 0x60 DUP5 ADD DUP6 DUP2 GT ISZERO PUSH2 0x141 JUMPI PUSH1 0x0 DUP1 REVERT JUMPDEST DUP5 JUMPDEST DUP2 DUP2 LT ISZERO PUSH2 0x162 JUMPI PUSH2 0x154 DUP2 PUSH2 0xBF JUMP JUMPDEST DUP4 MSTORE PUSH1 0x20 SWAP3 DUP4 ADD SWAP3 ADD PUSH2 0x143 JUMP JUMPDEST POP SWAP2 SWAP6 SWAP5 POP POP POP POP POP JUMP JUMPDEST PUSH2 0x2A5 DUP1 PUSH2 0x17C PUSH1 0x0 CODECOPY PUSH1 0x0 RETURN INVALID PUSH1 0x80 PUSH1 0x40 MSTORE CALLVALUE DUP1 ISZERO PUSH2 0x10 JUMPI PUSH1 0x0 DUP1 REVERT JUMPDEST POP PUSH1 0x4 CALLDATASIZE LT PUSH2 0x57 JUMPI PUSH1 0x0 CALLDATALOAD PUSH1 0xE0 SHR DUP1 PUSH4 0x35C1D349 EQ PUSH2 0x5C JUMPI DUP1 PUSH4 0x5E9CC2A9 EQ PUSH2 0x8C JUMPI DUP1 PUSH4 0xAB60A9A9 EQ PUSH2 0xA1 JUMPI DUP1 PUSH4 0xC06FAD06 EQ PUSH2 0xC2 JUMPI DUP1 PUSH4 0xE90DD9E2 EQ PUSH2 0xDF JUMPI JUMPDEST PUSH1 0x0 DUP1 REVERT JUMPDEST PUSH2 0x6F PUSH2 0x6A CALLDATASIZE PUSH1 0x4 PUSH2 0x22D JUMP JUMPDEST PUSH2 0xF6 JUMP JUMPDEST PUSH1 0x40 MLOAD PUSH1 0x1 PUSH1 0x1 PUSH1 0xA0 SHL SUB SWAP1 SWAP2 AND DUP2 MSTORE PUSH1 0x20 ADD JUMPDEST PUSH1 0x40 MLOAD DUP1 SWAP2 SUB SWAP1 RETURN JUMPDEST PUSH2 0x9F PUSH2 0x9A CALLDATASIZE PUSH1 0x4 PUSH2 0x22D JUMP JUMPDEST PUSH2 0x116 JUMP JUMPDEST STOP JUMPDEST PUSH2 0x9F PUSH2 0xAF CALLDATASIZE PUSH1 0x4 PUSH2 0x246 JUMP JUMPDEST PUSH1 0x4 DUP1 SLOAD PUSH1 0xFF NOT AND SWAP2 ISZERO ISZERO SWAP2 SWAP1 SWAP2 OR SWAP1 SSTORE JUMP JUMPDEST PUSH1 0x4 SLOAD PUSH2 0xCF SWAP1 PUSH1 0xFF AND DUP2 JUMP JUMPDEST PUSH1 0x40 MLOAD SWAP1 ISZERO ISZERO DUP2 MSTORE PUSH1 0x20 ADD PUSH2 0x83 JUMP JUMPDEST PUSH2 0xE8 PUSH1 0x0 SLOAD DUP2 JUMP JUMPDEST PUSH1 0x40 MLOAD SWAP1 DUP2 MSTORE PUSH1 0x20 ADD PUSH2 0x83 JUMP JUMPDEST PUSH1 0x1 DUP2 PUSH1 0x3 DUP2 LT PUSH2 0x106 JUMPI PUSH1 0x0 DUP1 REVERT JUMPDEST ADD SLOAD PUSH1 0x1 PUSH1 0x1 PUSH1 0xA0 SHL SUB AND SWAP1 POP DUP2 JUMP JUMPDEST PUSH1 0x0 SLOAD JUMPDEST DUP1 ISZERO PUSH2 0x227 JUMPI DUP1 PUSH1 0x1 AND PUSH1 0x1 EQ ISZERO PUSH2 0x15E JUMPI DUP2 PUSH1 0x1 EQ DUP1 ISZERO PUSH2 0x149 JUMPI POP PUSH1 0x1 PUSH1 0x0 ADD SLOAD PUSH1 0x1 PUSH1 0x1 PUSH1 0xA0 SHL SUB AND CALLER EQ JUMPDEST ISZERO PUSH2 0x15E JUMPI PUSH1 0x0 SWAP2 POP PUSH1 0x1 NOT AND PUSH1 0x2 OR PUSH2 0x11A JUMP JUMPDEST DUP1 PUSH1 0x2 AND PUSH1 0x2 EQ ISZERO PUSH2 0x1B7 JUMPI DUP2 PUSH1 0x2 EQ DUP1 ISZERO PUSH2 0x186 JUMPI POP PUSH1 0x1 DUP1 ADD SLOAD PUSH1 0x1 PUSH1 0x1 PUSH1 0xA0 SHL SUB AND CALLER EQ JUMPDEST ISZERO PUSH2 0x19B JUMPI PUSH1 0x0 SWAP2 POP PUSH1 0x2 NOT AND PUSH1 0x4 OR PUSH2 0x11A JUMP JUMPDEST PUSH1 0x4 SLOAD PUSH1 0xFF AND ISZERO ISZERO PUSH1 0x1 EQ ISZERO PUSH2 0x1B7 JUMPI PUSH1 0x2 NOT AND PUSH1 0x8 OR PUSH2 0x11A JUMP JUMPDEST DUP1 PUSH1 0x4 AND PUSH1 0x4 EQ ISZERO PUSH2 0x1F4 JUMPI DUP2 PUSH1 0x3 EQ DUP1 ISZERO PUSH2 0x1DF JUMPI POP PUSH1 0x1 DUP1 ADD SLOAD PUSH1 0x1 PUSH1 0x1 PUSH1 0xA0 SHL SUB AND CALLER EQ JUMPDEST ISZERO PUSH2 0x1F4 JUMPI PUSH1 0x0 SWAP2 POP PUSH1 0x4 NOT AND PUSH1 0x8 OR PUSH2 0x11A JUMP JUMPDEST DUP1 PUSH1 0x8 AND PUSH1 0x8 EQ ISZERO PUSH2 0x227 JUMPI DUP2 PUSH1 0x4 EQ DUP1 ISZERO PUSH2 0x21D JUMPI POP PUSH1 0x1 PUSH1 0x2 ADD SLOAD PUSH1 0x1 PUSH1 0x1 PUSH1 0xA0 SHL SUB AND CALLER EQ JUMPDEST ISZERO PUSH2 0x227 JUMPI PUSH1 0x8 NOT AND JUMPDEST PUSH1 0x0 SSTORE POP JUMP JUMPDEST PUSH1 0x0 PUSH1 0x20 DUP3 DUP5 SUB SLT ISZERO PUSH2 0x23F JUMPI PUSH1 0x0 DUP1 REVERT JUMPDEST POP CALLDATALOAD SWAP2 SWAP1 POP JUMP JUMPDEST PUSH1 0x0 PUSH1 0x20 DUP3 DUP5 SUB SLT ISZERO PUSH2 0x258 JUMPI PUSH1 0x0 DUP1 REVERT JUMPDEST DUP2 CALLDATALOAD DUP1 ISZERO ISZERO DUP2 EQ PUSH2 0x268 JUMPI PUSH1 0x0 DUP1 REVERT JUMPDEST SWAP4 SWAP3 POP POP POP JUMP INVALID LOG2 PUSH5 0x6970667358 0x22 SLT KECCAK256 0x2F BYTE POP STOP DUP14 PUSH6 0x9BC65257E08F 0x29 ADDMOD LOG4 0xBE SWAP3 SHL PUSH4 0x7FA3163E 0x2B PUSH8 0x3B0F2C668087A664 PUSH20 0x6F6C634300080900330000000000000000000000 "},"methodIdentifiers":{"enact(uint256)":"5e9cc2a9","items()":"c06fad06","participants(uint256)":"35c1d349","setitems(bool)":"ab60a9a9","tokenState()":"e90dd9e2"}}}}}