{"tests/output/contracts/out-of-order/PH_ProcessExecution.sol":{"PH_ProcessExecution":{"abi":[{"inputs":[{"internalType":"address[5]","name":"_participants","type":"address[5]"}],"stateMutability":"nonpayable","type":"constructor"},{"inputs":[{"internalType":"uint256","name":"id","type":"uint256"}],"name":"enact","outputs":[],"stateMutability":"nonpayable","type":"function"},{"inputs":[{"internalType":"uint256","name":"","type":"uint256"}],"name":"participants","outputs":[{"internalType":"address","name":"","type":"address"}],"stateMutability":"view","type":"function"},{"inputs":[],"name":"tokenState","outputs":[{"internalType":"uint256","name":"","type":"uint256"}],"stateMutability":"view","type":"function"}],"evm":{"bytecode":{"linkReferences":{},"object":"6080604052600160005534801561001557600080fd5b5060405161043d38038061043d833981016040819052610034916100d1565b6100416001826005610048565b5050610163565b8260058101928215610090579160200282015b8281111561009057825182546001600160a01b0319166001600160a01b0390911617825560209092019160019091019061005b565b5061009c9291506100a0565b5090565b5b8082111561009c57600081556001016100a1565b80516001600160a01b03811681146100cc57600080fd5b919050565b600060a082840312156100e357600080fd5b82601f8301126100f257600080fd5b60405160a081016001600160401b038111828210171561012257634e487b7160e01b600052604160045260246000fd5b6040528060a084018581111561013757600080fd5b845b818110156101585761014a816100b5565b835260209283019201610139565b509195945050505050565b6102cb806101726000396000f3fe608060405234801561001057600080fd5b50600436106100415760003560e01c806335c1d349146100465780635e9cc2a914610076578063e90dd9e21461008b575b600080fd5b61005961005436600461027c565b6100a2565b6040516001600160a01b0390911681526020015b60405180910390f35b61008961008436600461027c565b6100c2565b005b61009460005481565b60405190815260200161006d565b600181600581106100b257600080fd5b01546001600160a01b0316905081565b6000545b801561027657806002166002141561010a578160011480156100f557506001600301546001600160a01b031633145b1561010a5760009150600219166004176100c6565b80600816600814156101415781600214801561013357506001600401546001600160a01b031633145b156101415760081916610276565b806004166004141561017f5781600314801561016a57506001600401546001600160a01b031633145b1561017f5760009150600419166010176100c6565b80600116600114156101bd578160041480156101a857506001600001546001600160a01b031633145b156101bd5760009150600119166002176100c6565b80602016602014156101fa578160051480156101e5575060018001546001600160a01b031633145b156101fa5760009150602019166040176100c6565b80604016604014156102385781600614801561022357506001600401546001600160a01b031633145b156102385760009150604019166008176100c6565b80601016601014156102765781600714801561026157506001600201546001600160a01b031633145b156102765760009150601019166020176100c6565b60005550565b60006020828403121561028e57600080fd5b503591905056fea264697066735822122067185dfde90aabc74b0e09b0457d06783e3bc76c21f39d046154ed8a0c06af4d64736f6c63430008090033","opcodes":"PUSH1 0x80 PUSH1 0x40 MSTORE PUSH1 0x1 PUSH1 0x0 SSTORE CALLVALUE DUP1 ISZERO PUSH2 0x15 JUMPI PUSH1 0x0 DUP1 REVERT JUMPDEST POP PUSH1 0x40 MLOAD PUSH2 0x43D CODESIZE SUB DUP1 PUSH2 0x43D DUP4 CODECOPY DUP2 ADD PUSH1 0x40 DUP2 SWAP1 MSTORE PUSH2 0x34 SWAP2 PUSH2 0xD1 JUMP JUMPDEST PUSH2 0x41 PUSH1 0x1 DUP3 PUSH1 0x5 PUSH2 0x48 JUMP JUMPDEST POP POP PUSH2 0x163 JUMP JUMPDEST DUP3 PUSH1 0x5 DUP2 ADD SWAP3 DUP3 ISZERO PUSH2 0x90 JUMPI SWAP2 PUSH1 0x20 MUL DUP3 ADD JUMPDEST DUP3 DUP2 GT ISZERO PUSH2 0x90 JUMPI DUP3 MLOAD DUP3 SLOAD PUSH1 0x1 PUSH1 0x1 PUSH1 0xA0 SHL SUB NOT AND PUSH1 0x1 PUSH1 0x1 PUSH1 0xA0 SHL SUB SWAP1 SWAP2 AND OR DUP3 SSTORE PUSH1 0x20 SWAP1 SWAP3 ADD SWAP2 PUSH1 0x1 SWAP1 SWAP2 ADD SWAP1 PUSH2 0x5B JUMP JUMPDEST POP PUSH2 0x9C SWAP3 SWAP2 POP PUSH2 0xA0 JUMP JUMPDEST POP SWAP1 JUMP JUMPDEST JUMPDEST DUP1 DUP3 GT ISZERO PUSH2 0x9C JUMPI PUSH1 0x0 DUP2 SSTORE PUSH1 0x1 ADD PUSH2 0xA1 JUMP JUMPDEST DUP1 MLOAD PUSH1 0x1 PUSH1 0x1 PUSH1 0xA0 SHL SUB DUP2 AND DUP2 EQ PUSH2 0xCC JUMPI PUSH1 0x0 DUP1 REVERT JUMPDEST SWAP2 SWAP1 POP JUMP JUMPDEST PUSH1 0x0 PUSH1 0xA0 DUP3 DUP5 SUB SLT ISZERO PUSH2 0xE3 JUMPI PUSH1 0x0 DUP1 REVERT JUMPDEST DUP3 PUSH1 0x1F DUP4 ADD SLT PUSH2 0xF2 JUMPI PUSH1 0x0 DUP1 REVERT JUMPDEST PUSH1 0x40 MLOAD PUSH1 0xA0 DUP2 ADD PUSH1 0x1 PUSH1 0x1 PUSH1 0x40 SHL SUB DUP2 GT DUP3 DUP3 LT OR ISZERO PUSH2 0x122 JUMPI PUSH4 0x4E487B71 PUSH1 0xE0 SHL PUSH1 0x0 MSTORE PUSH1 0x41 PUSH1 0x4 MSTORE PUSH1 0x24 PUSH1 0x0 REVERT JUMPDEST PUSH1 0x40 MSTORE DUP1 PUSH1 0xA0 DUP5 ADD DUP6 DUP2 GT ISZERO PUSH2 0x137 JUMPI PUSH1 0x0 DUP1 REVERT JUMPDEST DUP5 JUMPDEST DUP2 DUP2 LT ISZERO PUSH2 0x158 JUMPI PUSH2 0x14A DUP2 PUSH2 0xB5 JUMP JUMPDEST DUP4 MSTORE PUSH1 0x20 SWAP3 DUP4 ADD SWAP3 ADD PUSH2 0x139 JUMP JUMPDEST POP SWAP2 SWAP6 SWAP5 POP POP POP POP POP JUMP JUMPDEST PUSH2 0x2CB DUP1 PUSH2 0x172 PUSH1 0x0 CODECOPY PUSH1 0x0 RETURN INVALID PUSH1 0x80 PUSH1 0x40 MSTORE CALLVALUE DUP1 ISZERO PUSH2 0x10 JUMPI PUSH1 0x0 DUP1 REVERT JUMPDEST POP PUSH1 0x4 CALLDATASIZE LT PUSH2 0x41 JUMPI PUSH1 0x0 CALLDATALOAD PUSH1 0xE0 SHR DUP1 PUSH4 0x35C1D349 EQ PUSH2 0x46 JUMPI DUP1 PUSH4 0x5E9CC2A9 EQ PUSH2 0x76 JUMPI DUP1 PUSH4 0xE90DD9E2 EQ PUSH2 0x8B JUMPI JUMPDEST PUSH1 0x0 DUP1 REVERT JUMPDEST PUSH2 0x59 PUSH2 0x54 CALLDATASIZE PUSH1 0x4 PUSH2 0x27C JUMP JUMPDEST PUSH2 0xA2 JUMP JUMPDEST PUSH1 0x40 MLOAD PUSH1 0x1 PUSH1 0x1 PUSH1 0xA0 SHL SUB SWAP1 SWAP2 AND DUP2 MSTORE PUSH1 0x20 ADD JUMPDEST PUSH1 0x40 MLOAD DUP1 SWAP2 SUB SWAP1 RETURN JUMPDEST PUSH2 0x89 PUSH2 0x84 CALLDATASIZE PUSH1 0x4 PUSH2 0x27C JUMP JUMPDEST PUSH2 0xC2 JUMP JUMPDEST STOP JUMPDEST PUSH2 0x94 PUSH1 0x0 SLOAD DUP2 JUMP JUMPDEST PUSH1 0x40 MLOAD SWAP1 DUP2 MSTORE PUSH1 0x20 ADD PUSH2 0x6D JUMP JUMPDEST PUSH1 0x1 DUP2 PUSH1 0x5 DUP2 LT PUSH2 0xB2 JUMPI PUSH1 0x0 DUP1 REVERT JUMPDEST ADD SLOAD PUSH1 0x1 PUSH1 0x1 PUSH1 0xA0 SHL SUB AND SWAP1 POP DUP2 JUMP JUMPDEST PUSH1 0x0 SLOAD JUMPDEST DUP1 ISZERO PUSH2 0x276 JUMPI DUP1 PUSH1 0x2 AND PUSH1 0x2 EQ ISZERO PUSH2 0x10A JUMPI DUP2 PUSH1 0x1 EQ DUP1 ISZERO PUSH2 0xF5 JUMPI POP PUSH1 0x1 PUSH1 0x3 ADD SLOAD PUSH1 0x1 PUSH1 0x1 PUSH1 0xA0 SHL SUB AND CALLER EQ JUMPDEST ISZERO PUSH2 0x10A JUMPI PUSH1 0x0 SWAP2 POP PUSH1 0x2 NOT AND PUSH1 0x4 OR PUSH2 0xC6 JUMP JUMPDEST DUP1 PUSH1 0x8 AND PUSH1 0x8 EQ ISZERO PUSH2 0x141 JUMPI DUP2 PUSH1 0x2 EQ DUP1 ISZERO PUSH2 0x133 JUMPI POP PUSH1 0x1 PUSH1 0x4 ADD SLOAD PUSH1 0x1 PUSH1 0x1 PUSH1 0xA0 SHL SUB AND CALLER EQ JUMPDEST ISZERO PUSH2 0x141 JUMPI PUSH1 0x8 NOT AND PUSH2 0x276 JUMP JUMPDEST DUP1 PUSH1 0x4 AND PUSH1 0x4 EQ ISZERO PUSH2 0x17F JUMPI DUP2 PUSH1 0x3 EQ DUP1 ISZERO PUSH2 0x16A JUMPI POP PUSH1 0x1 PUSH1 0x4 ADD SLOAD PUSH1 0x1 PUSH1 0x1 PUSH1 0xA0 SHL SUB AND CALLER EQ JUMPDEST ISZERO PUSH2 0x17F JUMPI PUSH1 0x0 SWAP2 POP PUSH1 0x4 NOT AND PUSH1 0x10 OR PUSH2 0xC6 JUMP JUMPDEST DUP1 PUSH1 0x1 AND PUSH1 0x1 EQ ISZERO PUSH2 0x1BD JUMPI DUP2 PUSH1 0x4 EQ DUP1 ISZERO PUSH2 0x1A8 JUMPI POP PUSH1 0x1 PUSH1 0x0 ADD SLOAD PUSH1 0x1 PUSH1 0x1 PUSH1 0xA0 SHL SUB AND CALLER EQ JUMPDEST ISZERO PUSH2 0x1BD JUMPI PUSH1 0x0 SWAP2 POP PUSH1 0x1 NOT AND PUSH1 0x2 OR PUSH2 0xC6 JUMP JUMPDEST DUP1 PUSH1 0x20 AND PUSH1 0x20 EQ ISZERO PUSH2 0x1FA JUMPI DUP2 PUSH1 0x5 EQ DUP1 ISZERO PUSH2 0x1E5 JUMPI POP PUSH1 0x1 DUP1 ADD SLOAD PUSH1 0x1 PUSH1 0x1 PUSH1 0xA0 SHL SUB AND CALLER EQ JUMPDEST ISZERO PUSH2 0x1FA JUMPI PUSH1 0x0 SWAP2 POP PUSH1 0x20 NOT AND PUSH1 0x40 OR PUSH2 0xC6 JUMP JUMPDEST DUP1 PUSH1 0x40 AND PUSH1 0x40 EQ ISZERO PUSH2 0x238 JUMPI DUP2 PUSH1 0x6 EQ DUP1 ISZERO PUSH2 0x223 JUMPI POP PUSH1 0x1 PUSH1 0x4 ADD SLOAD PUSH1 0x1 PUSH1 0x1 PUSH1 0xA0 SHL SUB AND CALLER EQ JUMPDEST ISZERO PUSH2 0x238 JUMPI PUSH1 0x0 SWAP2 POP PUSH1 0x40 NOT AND PUSH1 0x8 OR PUSH2 0xC6 JUMP JUMPDEST DUP1 PUSH1 0x10 AND PUSH1 0x10 EQ ISZERO PUSH2 0x276 JUMPI DUP2 PUSH1 0x7 EQ DUP1 ISZERO PUSH2 0x261 JUMPI POP PUSH1 0x1 PUSH1 0x2 ADD SLOAD PUSH1 0x1 PUSH1 0x1 PUSH1 0xA0 SHL SUB AND CALLER EQ JUMPDEST ISZERO PUSH2 0x276 JUMPI PUSH1 0x0 SWAP2 POP PUSH1 0x10 NOT AND PUSH1 0x20 OR PUSH2 0xC6 JUMP JUMPDEST PUSH1 0x0 SSTORE POP JUMP JUMPDEST PUSH1 0x0 PUSH1 0x20 DUP3 DUP5 SUB SLT ISZERO PUSH2 0x28E JUMPI PUSH1 0x0 DUP1 REVERT JUMPDEST POP CALLDATALOAD SWAP2 SWAP1 POP JUMP INVALID LOG2 PUSH5 0x6970667358 0x22 SLT KECCAK256 PUSH8 0x185DFDE90AABC74B 0xE MULMOD 0xB0 GASLIMIT PUSH30 0x6783E3BC76C21F39D046154ED8A0C06AF4D64736F6C6343000809003300 "},"methodIdentifiers":{"enact(uint256)":"5e9cc2a9","participants(uint256)":"35c1d349","tokenState()":"e90dd9e2"}}}}}