{"tests/output/contracts/rental-agreement/RA_ProcessExecution.sol":{"RA_ProcessExecution":{"abi":[{"inputs":[{"internalType":"address[3]","name":"_participants","type":"address[3]"}],"stateMutability":"nonpayable","type":"constructor"},{"inputs":[{"internalType":"uint256","name":"id","type":"uint256"}],"name":"SubChoreography_1sp0n7o","outputs":[],"stateMutability":"nonpayable","type":"function"},{"inputs":[],"name":"bond","outputs":[{"internalType":"int256","name":"","type":"int256"}],"stateMutability":"view","type":"function"},{"inputs":[{"internalType":"uint256","name":"id","type":"uint256"}],"name":"enact","outputs":[],"stateMutability":"nonpayable","type":"function"},{"inputs":[{"internalType":"uint256","name":"","type":"uint256"}],"name":"participants","outputs":[{"internalType":"address","name":"","type":"address"}],"stateMutability":"view","type":"function"},{"inputs":[{"internalType":"int256","name":"_bond","type":"int256"}],"name":"setbond","outputs":[],"stateMutability":"nonpayable","type":"function"},{"inputs":[{"internalType":"int256","name":"_weeklyRent","type":"int256"}],"name":"setweeklyRent","outputs":[],"stateMutability":"nonpayable","type":"function"},{"inputs":[{"internalType":"uint256","name":"","type":"uint256"}],"name":"tokenState","outputs":[{"internalType":"uint256","name":"","type":"uint256"}],"stateMutability":"view","type":"function"},{"inputs":[],"name":"weeklyRent","outputs":[{"internalType":"int256","name":"","type":"int256"}],"stateMutability":"view","type":"function"}],"evm":{"bytecode":{"linkReferences":{},"object":"6080604052610fa06005556103e860065534801561001c57600080fd5b506040516105bd3803806105bd83398101604081905261003b916100d8565b610048600282600361004f565b505061016a565b8260038101928215610097579160200282015b8281111561009757825182546001600160a01b0319166001600160a01b03909116178255602090920191600190910190610062565b506100a39291506100a7565b5090565b5b808211156100a357600081556001016100a8565b80516001600160a01b03811681146100d357600080fd5b919050565b6000606082840312156100ea57600080fd5b82601f8301126100f957600080fd5b604051606081016001600160401b038111828210171561012957634e487b7160e01b600052604160045260246000fd5b60405280606084018581111561013e57600080fd5b845b8181101561015f57610151816100bc565b835260209283019201610140565b509195945050505050565b610444806101796000396000f3fe608060405234801561001057600080fd5b50600436106100785760003560e01c8063028c24a61461007d57806335c1d349146100925780635e9cc2a9146100c257806364c9ec6f146100d55780639745cc3d146100ec578063ae82ae4b146100ff578063b575695914610112578063f2adb39b14610125575b600080fd5b61009061008b3660046103f5565b600555565b005b6100a56100a03660046103f5565b61012e565b6040516001600160a01b0390911681526020015b60405180910390f35b6100906100d03660046103f5565b61014e565b6100de60055481565b6040519081526020016100b9565b6100de6100fa3660046103f5565b61035f565b61009061010d3660046103f5565b610376565b6100906101203660046103f5565b600655565b6100de60065481565b6002816003811061013e57600080fd5b01546001600160a01b0316905081565b6000545b80156103545780600116600114156101705760011916600217610152565b80600416600414156101855760041916610354565b80600816600814156101c3578160011480156101ae57506002600001546001600160a01b031633145b156101c3576000915060081916601017610152565b8060201660201415610232578160021480156101eb575060028001546001600160a01b031633145b15610200576000915060201916604017610152565b81600614801561021c575060028001546001600160a01b031633145b1561023257600091506020191661010017610152565b80604016604014156102a25781600314801561025b57506002600001546001600160a01b031633145b15610270576000915060401916600417610152565b81600414801561028d57506002600001546001600160a01b031633145b156102a2576000915060401916608017610152565b80608016608014156102e0578160051480156102cb57506002600101546001600160a01b031633145b156102e0576000915060801916600417610152565b806101001661010014156103215781600714801561030b57506002600101546001600160a01b031633145b1561032157600091506101001916600417610152565b80600216600214156103395760021916600417610152565b80610410166104101415610354576104101916602017610152565b806000805b01555050565b6000816002811061036f57600080fd5b0154905081565b6001545b80156103eb5780600216600214156103eb578160011480156103a957506002600001546001600160a01b031633145b156103be57600091506002191660021761037a565b8160021480156103db57506002600001546001600160a01b031633145b156103eb57610208600055600219165b8060006001610359565b60006020828403121561040757600080fd5b503591905056fea26469706673582212201caa66670acd3dfd7a26b99182dc0a9dcf3863b008327d6d840bb3ded970ddac64736f6c63430008090033","opcodes":"PUSH1 0x80 PUSH1 0x40 MSTORE PUSH2 0xFA0 PUSH1 0x5 SSTORE PUSH2 0x3E8 PUSH1 0x6 SSTORE CALLVALUE DUP1 ISZERO PUSH2 0x1C JUMPI PUSH1 0x0 DUP1 REVERT JUMPDEST POP PUSH1 0x40 MLOAD PUSH2 0x5BD CODESIZE SUB DUP1 PUSH2 0x5BD DUP4 CODECOPY DUP2 ADD PUSH1 0x40 DUP2 SWAP1 MSTORE PUSH2 0x3B SWAP2 PUSH2 0xD8 JUMP JUMPDEST PUSH2 0x48 PUSH1 0x2 DUP3 PUSH1 0x3 PUSH2 0x4F JUMP JUMPDEST POP POP PUSH2 0x16A JUMP JUMPDEST DUP3 PUSH1 0x3 DUP2 ADD SWAP3 DUP3 ISZERO PUSH2 0x97 JUMPI SWAP2 PUSH1 0x20 MUL DUP3 ADD JUMPDEST DUP3 DUP2 GT ISZERO PUSH2 0x97 JUMPI DUP3 MLOAD DUP3 SLOAD PUSH1 0x1 PUSH1 0x1 PUSH1 0xA0 SHL SUB NOT AND PUSH1 0x1 PUSH1 0x1 PUSH1 0xA0 SHL SUB SWAP1 SWAP2 AND OR DUP3 SSTORE PUSH1 0x20 SWAP1 SWAP3 ADD SWAP2 PUSH1 0x1 SWAP1 SWAP2 ADD SWAP1 PUSH2 0x62 JUMP JUMPDEST POP PUSH2 0xA3 SWAP3 SWAP2 POP PUSH2 0xA7 JUMP JUMPDEST POP SWAP1 JUMP JUMPDEST JUMPDEST DUP1 DUP3 GT ISZERO PUSH2 0xA3 JUMPI PUSH1 0x0 DUP2 SSTORE PUSH1 0x1 ADD PUSH2 0xA8 JUMP JUMPDEST DUP1 MLOAD PUSH1 0x1 PUSH1 0x1 PUSH1 0xA0 SHL SUB DUP2 AND DUP2 EQ PUSH2 0xD3 JUMPI PUSH1 0x0 DUP1 REVERT JUMPDEST SWAP2 SWAP1 POP JUMP JUMPDEST PUSH1 0x0 PUSH1 0x60 DUP3 DUP5 SUB SLT ISZERO PUSH2 0xEA JUMPI PUSH1 0x0 DUP1 REVERT JUMPDEST DUP3 PUSH1 0x1F DUP4 ADD SLT PUSH2 0xF9 JUMPI PUSH1 0x0 DUP1 REVERT JUMPDEST PUSH1 0x40 MLOAD PUSH1 0x60 DUP2 ADD PUSH1 0x1 PUSH1 0x1 PUSH1 0x40 SHL SUB DUP2 GT DUP3 DUP3 LT OR ISZERO PUSH2 0x129 JUMPI PUSH4 0x4E487B71 PUSH1 0xE0 SHL PUSH1 0x0 MSTORE PUSH1 0x41 PUSH1 0x4 MSTORE PUSH1 0x24 PUSH1 0x0 REVERT JUMPDEST PUSH1 0x40 MSTORE DUP1 PUSH1 0x60 DUP5 ADD DUP6 DUP2 GT ISZERO PUSH2 0x13E JUMPI PUSH1 0x0 DUP1 REVERT JUMPDEST DUP5 JUMPDEST DUP2 DUP2 LT ISZERO PUSH2 0x15F JUMPI PUSH2 0x151 DUP2 PUSH2 0xBC JUMP JUMPDEST DUP4 MSTORE PUSH1 0x20 SWAP3 DUP4 ADD SWAP3 ADD PUSH2 0x140 JUMP JUMPDEST POP SWAP2 SWAP6 SWAP5 POP POP POP POP POP JUMP JUMPDEST PUSH2 0x444 DUP1 PUSH2 0x179 PUSH1 0x0 CODECOPY PUSH1 0x0 RETURN INVALID PUSH1 0x80 PUSH1 0x40 MSTORE CALLVALUE DUP1 ISZERO PUSH2 0x10 JUMPI PUSH1 0x0 DUP1 REVERT JUMPDEST POP PUSH1 0x4 CALLDATASIZE LT PUSH2 0x78 JUMPI PUSH1 0x0 CALLDATALOAD PUSH1 0xE0 SHR DUP1 PUSH4 0x28C24A6 EQ PUSH2 0x7D JUMPI DUP1 PUSH4 0x35C1D349 EQ PUSH2 0x92 JUMPI DUP1 PUSH4 0x5E9CC2A9 EQ PUSH2 0xC2 JUMPI DUP1 PUSH4 0x64C9EC6F EQ PUSH2 0xD5 JUMPI DUP1 PUSH4 0x9745CC3D EQ PUSH2 0xEC JUMPI DUP1 PUSH4 0xAE82AE4B EQ PUSH2 0xFF JUMPI DUP1 PUSH4 0xB5756959 EQ PUSH2 0x112 JUMPI DUP1 PUSH4 0xF2ADB39B EQ PUSH2 0x125 JUMPI JUMPDEST PUSH1 0x0 DUP1 REVERT JUMPDEST PUSH2 0x90 PUSH2 0x8B CALLDATASIZE PUSH1 0x4 PUSH2 0x3F5 JUMP JUMPDEST PUSH1 0x5 SSTORE JUMP JUMPDEST STOP JUMPDEST PUSH2 0xA5 PUSH2 0xA0 CALLDATASIZE PUSH1 0x4 PUSH2 0x3F5 JUMP JUMPDEST PUSH2 0x12E JUMP JUMPDEST PUSH1 0x40 MLOAD PUSH1 0x1 PUSH1 0x1 PUSH1 0xA0 SHL SUB SWAP1 SWAP2 AND DUP2 MSTORE PUSH1 0x20 ADD JUMPDEST PUSH1 0x40 MLOAD DUP1 SWAP2 SUB SWAP1 RETURN JUMPDEST PUSH2 0x90 PUSH2 0xD0 CALLDATASIZE PUSH1 0x4 PUSH2 0x3F5 JUMP JUMPDEST PUSH2 0x14E JUMP JUMPDEST PUSH2 0xDE PUSH1 0x5 SLOAD DUP2 JUMP JUMPDEST PUSH1 0x40 MLOAD SWAP1 DUP2 MSTORE PUSH1 0x20 ADD PUSH2 0xB9 JUMP JUMPDEST PUSH2 0xDE PUSH2 0xFA CALLDATASIZE PUSH1 0x4 PUSH2 0x3F5 JUMP JUMPDEST PUSH2 0x35F JUMP JUMPDEST PUSH2 0x90 PUSH2 0x10D CALLDATASIZE PUSH1 0x4 PUSH2 0x3F5 JUMP JUMPDEST PUSH2 0x376 JUMP JUMPDEST PUSH2 0x90 PUSH2 0x120 CALLDATASIZE PUSH1 0x4 PUSH2 0x3F5 JUMP JUMPDEST PUSH1 0x6 SSTORE JUMP JUMPDEST PUSH2 0xDE PUSH1 0x6 SLOAD DUP2 JUMP JUMPDEST PUSH1 0x2 DUP2 PUSH1 0x3 DUP2 LT PUSH2 0x13E JUMPI PUSH1 0x0 DUP1 REVERT JUMPDEST ADD SLOAD PUSH1 0x1 PUSH1 0x1 PUSH1 0xA0 SHL SUB AND SWAP1 POP DUP2 JUMP JUMPDEST PUSH1 0x0 SLOAD JUMPDEST DUP1 ISZERO PUSH2 0x354 JUMPI DUP1 PUSH1 0x1 AND PUSH1 0x1 EQ ISZERO PUSH2 0x170 JUMPI PUSH1 0x1 NOT AND PUSH1 0x2 OR PUSH2 0x152 JUMP JUMPDEST DUP1 PUSH1 0x4 AND PUSH1 0x4 EQ ISZERO PUSH2 0x185 JUMPI PUSH1 0x4 NOT AND PUSH2 0x354 JUMP JUMPDEST DUP1 PUSH1 0x8 AND PUSH1 0x8 EQ ISZERO PUSH2 0x1C3 JUMPI DUP2 PUSH1 0x1 EQ DUP1 ISZERO PUSH2 0x1AE JUMPI POP PUSH1 0x2 PUSH1 0x0 ADD SLOAD PUSH1 0x1 PUSH1 0x1 PUSH1 0xA0 SHL SUB AND CALLER EQ JUMPDEST ISZERO PUSH2 0x1C3 JUMPI PUSH1 0x0 SWAP2 POP PUSH1 0x8 NOT AND PUSH1 0x10 OR PUSH2 0x152 JUMP JUMPDEST DUP1 PUSH1 0x20 AND PUSH1 0x20 EQ ISZERO PUSH2 0x232 JUMPI DUP2 PUSH1 0x2 EQ DUP1 ISZERO PUSH2 0x1EB JUMPI POP PUSH1 0x2 DUP1 ADD SLOAD PUSH1 0x1 PUSH1 0x1 PUSH1 0xA0 SHL SUB AND CALLER EQ JUMPDEST ISZERO PUSH2 0x200 JUMPI PUSH1 0x0 SWAP2 POP PUSH1 0x20 NOT AND PUSH1 0x40 OR PUSH2 0x152 JUMP JUMPDEST DUP2 PUSH1 0x6 EQ DUP1 ISZERO PUSH2 0x21C JUMPI POP PUSH1 0x2 DUP1 ADD SLOAD PUSH1 0x1 PUSH1 0x1 PUSH1 0xA0 SHL SUB AND CALLER EQ JUMPDEST ISZERO PUSH2 0x232 JUMPI PUSH1 0x0 SWAP2 POP PUSH1 0x20 NOT AND PUSH2 0x100 OR PUSH2 0x152 JUMP JUMPDEST DUP1 PUSH1 0x40 AND PUSH1 0x40 EQ ISZERO PUSH2 0x2A2 JUMPI DUP2 PUSH1 0x3 EQ DUP1 ISZERO PUSH2 0x25B JUMPI POP PUSH1 0x2 PUSH1 0x0 ADD SLOAD PUSH1 0x1 PUSH1 0x1 PUSH1 0xA0 SHL SUB AND CALLER EQ JUMPDEST ISZERO PUSH2 0x270 JUMPI PUSH1 0x0 SWAP2 POP PUSH1 0x40 NOT AND PUSH1 0x4 OR PUSH2 0x152 JUMP JUMPDEST DUP2 PUSH1 0x4 EQ DUP1 ISZERO PUSH2 0x28D JUMPI POP PUSH1 0x2 PUSH1 0x0 ADD SLOAD PUSH1 0x1 PUSH1 0x1 PUSH1 0xA0 SHL SUB AND CALLER EQ JUMPDEST ISZERO PUSH2 0x2A2 JUMPI PUSH1 0x0 SWAP2 POP PUSH1 0x40 NOT AND PUSH1 0x80 OR PUSH2 0x152 JUMP JUMPDEST DUP1 PUSH1 0x80 AND PUSH1 0x80 EQ ISZERO PUSH2 0x2E0 JUMPI DUP2 PUSH1 0x5 EQ DUP1 ISZERO PUSH2 0x2CB JUMPI POP PUSH1 0x2 PUSH1 0x1 ADD SLOAD PUSH1 0x1 PUSH1 0x1 PUSH1 0xA0 SHL SUB AND CALLER EQ JUMPDEST ISZERO PUSH2 0x2E0 JUMPI PUSH1 0x0 SWAP2 POP PUSH1 0x80 NOT AND PUSH1 0x4 OR PUSH2 0x152 JUMP JUMPDEST DUP1 PUSH2 0x100 AND PUSH2 0x100 EQ ISZERO PUSH2 0x321 JUMPI DUP2 PUSH1 0x7 EQ DUP1 ISZERO PUSH2 0x30B JUMPI POP PUSH1 0x2 PUSH1 0x1 ADD SLOAD PUSH1 0x1 PUSH1 0x1 PUSH1 0xA0 SHL SUB AND CALLER EQ JUMPDEST ISZERO PUSH2 0x321 JUMPI PUSH1 0x0 SWAP2 POP PUSH2 0x100 NOT AND PUSH1 0x4 OR PUSH2 0x152 JUMP JUMPDEST DUP1 PUSH1 0x2 AND PUSH1 0x2 EQ ISZERO PUSH2 0x339 JUMPI PUSH1 0x2 NOT AND PUSH1 0x4 OR PUSH2 0x152 JUMP JUMPDEST DUP1 PUSH2 0x410 AND PUSH2 0x410 EQ ISZERO PUSH2 0x354 JUMPI PUSH2 0x410 NOT AND PUSH1 0x20 OR PUSH2 0x152 JUMP JUMPDEST DUP1 PUSH1 0x0 DUP1 JUMPDEST ADD SSTORE POP POP JUMP JUMPDEST PUSH1 0x0 DUP2 PUSH1 0x2 DUP2 LT PUSH2 0x36F JUMPI PUSH1 0x0 DUP1 REVERT JUMPDEST ADD SLOAD SWAP1 POP DUP2 JUMP JUMPDEST PUSH1 0x1 SLOAD JUMPDEST DUP1 ISZERO PUSH2 0x3EB JUMPI DUP1 PUSH1 0x2 AND PUSH1 0x2 EQ ISZERO PUSH2 0x3EB JUMPI DUP2 PUSH1 0x1 EQ DUP1 ISZERO PUSH2 0x3A9 JUMPI POP PUSH1 0x2 PUSH1 0x0 ADD SLOAD PUSH1 0x1 PUSH1 0x1 PUSH1 0xA0 SHL SUB AND CALLER EQ JUMPDEST ISZERO PUSH2 0x3BE JUMPI PUSH1 0x0 SWAP2 POP PUSH1 0x2 NOT AND PUSH1 0x2 OR PUSH2 0x37A JUMP JUMPDEST DUP2 PUSH1 0x2 EQ DUP1 ISZERO PUSH2 0x3DB JUMPI POP PUSH1 0x2 PUSH1 0x0 ADD SLOAD PUSH1 0x1 PUSH1 0x1 PUSH1 0xA0 SHL SUB AND CALLER EQ JUMPDEST ISZERO PUSH2 0x3EB JUMPI PUSH2 0x208 PUSH1 0x0 SSTORE PUSH1 0x2 NOT AND JUMPDEST DUP1 PUSH1 0x0 PUSH1 0x1 PUSH2 0x359 JUMP JUMPDEST PUSH1 0x0 PUSH1 0x20 DUP3 DUP5 SUB SLT ISZERO PUSH2 0x407 JUMPI PUSH1 0x0 DUP1 REVERT JUMPDEST POP CALLDATALOAD SWAP2 SWAP1 POP JUMP INVALID LOG2 PUSH5 0x6970667358 0x22 SLT KECCAK256 SHR 0xAA PUSH7 0x670ACD3DFD7A26 0xB9 SWAP2 DUP3 0xDC EXP SWAP14 0xCF CODESIZE PUSH4 0xB008327D PUSH14 0x840BB3DED970DDAC64736F6C6343 STOP ADDMOD MULMOD STOP CALLER "},"methodIdentifiers":{"SubChoreography_1sp0n7o(uint256)":"ae82ae4b","bond()":"64c9ec6f","enact(uint256)":"5e9cc2a9","participants(uint256)":"35c1d349","setbond(int256)":"028c24a6","setweeklyRent(int256)":"b5756959","tokenState(uint256)":"9745cc3d","weeklyRent()":"f2adb39b"}}}}}