{
  "_format": "hh-sol-artifact-1",
  "contractName": "RA_ProcessExecution",
  "sourceName": "tests/output/contracts/rental-agreement/RA_ProcessExecution.sol",
  "abi": [
    {
      "inputs": [
        {
          "internalType": "address[3]",
          "name": "_participants",
          "type": "address[3]"
        }
      ],
      "stateMutability": "nonpayable",
      "type": "constructor"
    },
    {
      "inputs": [
        {
          "internalType": "uint256",
          "name": "id",
          "type": "uint256"
        }
      ],
      "name": "SubChoreography_1sp0n7o",
      "outputs": [],
      "stateMutability": "nonpayable",
      "type": "function"
    },
    {
      "inputs": [],
      "name": "bond",
      "outputs": [
        {
          "internalType": "int256",
          "name": "",
          "type": "int256"
        }
      ],
      "stateMutability": "view",
      "type": "function"
    },
    {
      "inputs": [
        {
          "internalType": "uint256",
          "name": "id",
          "type": "uint256"
        }
      ],
      "name": "enact",
      "outputs": [],
      "stateMutability": "nonpayable",
      "type": "function"
    },
    {
      "inputs": [
        {
          "internalType": "uint256",
          "name": "",
          "type": "uint256"
        }
      ],
      "name": "participants",
      "outputs": [
        {
          "internalType": "address",
          "name": "",
          "type": "address"
        }
      ],
      "stateMutability": "view",
      "type": "function"
    },
    {
      "inputs": [
        {
          "internalType": "int256",
          "name": "_bond",
          "type": "int256"
        }
      ],
      "name": "setbond",
      "outputs": [],
      "stateMutability": "nonpayable",
      "type": "function"
    },
    {
      "inputs": [
        {
          "internalType": "int256",
          "name": "_weeklyRent",
          "type": "int256"
        }
      ],
      "name": "setweeklyRent",
      "outputs": [],
      "stateMutability": "nonpayable",
      "type": "function"
    },
    {
      "inputs": [
        {
          "internalType": "uint256",
          "name": "",
          "type": "uint256"
        }
      ],
      "name": "tokenState",
      "outputs": [
        {
          "internalType": "uint256",
          "name": "",
          "type": "uint256"
        }
      ],
      "stateMutability": "view",
      "type": "function"
    },
    {
      "inputs": [],
      "name": "weeklyRent",
      "outputs": [
        {
          "internalType": "int256",
          "name": "",
          "type": "int256"
        }
      ],
      "stateMutability": "view",
      "type": "function"
    }
  ],
  "bytecode": "0x6080604052610fa06005556103e860065534801561001c57600080fd5b5060405161068338038061068383398101604081905261003b916100d8565b610048600282600361004f565b505061016a565b8260038101928215610097579160200282015b8281111561009757825182546001600160a01b0319166001600160a01b03909116178255602090920191600190910190610062565b506100a39291506100a7565b5090565b5b808211156100a357600081556001016100a8565b80516001600160a01b03811681146100d357600080fd5b919050565b6000606082840312156100ea57600080fd5b82601f8301126100f957600080fd5b604051606081016001600160401b038111828210171561012957634e487b7160e01b600052604160045260246000fd5b60405280606084018581111561013e57600080fd5b845b8181101561015f57610151816100bc565b835260209283019201610140565b509195945050505050565b61050a806101796000396000f3fe608060405234801561001057600080fd5b50600436106100785760003560e01c8063028c24a61461007d57806335c1d349146100925780635e9cc2a9146100c257806364c9ec6f146100d55780639745cc3d146100ec578063ae82ae4b146100ff578063b575695914610112578063f2adb39b14610125575b600080fd5b61009061008b366004610420565b600555565b005b6100a56100a0366004610420565b61012e565b6040516001600160a01b0390911681526020015b60405180910390f35b6100906100d0366004610420565b61014e565b6100de60055481565b6040519081526020016100b9565b6100de6100fa366004610420565b61038a565b61009061010d366004610420565b6103a1565b610090610120366004610420565b600655565b6100de60065481565b6002816003811061013e57600080fd5b01546001600160a01b0316905081565b6000545b801561037f5780600116600114156101705760011916600217610152565b8060041660041415610185576004191661037f565b80600816600814156101c3578160011480156101ae57506002600001546001600160a01b031633145b156101c3576000915060081916601017610152565b8060201660201415610232578160021480156101eb575060028001546001600160a01b031633145b15610200576000915060201916604017610152565b81600614801561021c575060028001546001600160a01b031633145b1561023257600091506020191661010017610152565b80604016604014156102a25781600314801561025b57506002600001546001600160a01b031633145b15610270576000915060401916600417610152565b81600414801561028d57506002600001546001600160a01b031633145b156102a2576000915060401916608017610152565b80608016608014156102e0578160051480156102cb57506002600101546001600160a01b031633145b156102e0576000915060801916600417610152565b806101001661010014156103215781600714801561030b57506002600101546001600160a01b031633145b1561032157600091506101001916600417610152565b80600216600214156103645760065461033b90600461044f565b60055413156103505760021916600417610152565b600219166001600081015561020817610152565b8061041016610410141561037f576104101916602017610152565b806000805b01555050565b6000816002811061039a57600080fd5b0154905081565b6001545b8015610416578060021660021415610416578160011480156103d457506002600001546001600160a01b031633145b156103e95760009150600219166002176103a5565b81600214801561040657506002600001546001600160a01b031633145b1561041657610208600055600219165b8060006001610384565b60006020828403121561043257600080fd5b5035919050565b634e487b7160e01b600052601160045260246000fd5b60006001600160ff1b038184138284138082168684048611161561047557610475610439565b600160ff1b600087128281168783058912161561049457610494610439565b600087129250878205871284841616156104b0576104b0610439565b878505871281841616156104c6576104c6610439565b50505092909302939250505056fea2646970667358221220a1160761d3228ef8616d40a59025f15e8c3dc60001339397965678ae2f39d59d64736f6c63430008090033",
  "linkReferences": {},
  "deployedLinkReferences": {}
}