{
  "abi": [
    {
      "inputs": [
        {
          "internalType": "address[5]",
          "name": "_participants",
          "type": "address[5]"
        }
      ],
      "stateMutability": "nonpayable",
      "type": "constructor"
    },
    {
      "inputs": [
        {
          "internalType": "uint256",
          "name": "id",
          "type": "uint256"
        },
        {
          "internalType": "uint256",
          "name": "cond",
          "type": "uint256"
        }
      ],
      "name": "enact",
      "outputs": [],
      "stateMutability": "nonpayable",
      "type": "function"
    },
    {
      "inputs": [
        {
          "internalType": "uint256",
          "name": "",
          "type": "uint256"
        }
      ],
      "name": "participants",
      "outputs": [
        {
          "internalType": "address",
          "name": "",
          "type": "address"
        }
      ],
      "stateMutability": "view",
      "type": "function"
    },
    {
      "inputs": [],
      "name": "tokenState",
      "outputs": [
        {
          "internalType": "uint256",
          "name": "",
          "type": "uint256"
        }
      ],
      "stateMutability": "view",
      "type": "function"
    }
  ],
  "evm": {
    "bytecode": {
      "linkReferences": {},
      "object": "6080604052600160005534801561001557600080fd5b50604051610552380380610552833981016040819052610034916100d1565b6100416001826005610048565b5050610163565b8260058101928215610090579160200282015b8281111561009057825182546001600160a01b0319166001600160a01b0390911617825560209092019160019091019061005b565b5061009c9291506100a0565b5090565b5b8082111561009c57600081556001016100a1565b80516001600160a01b03811681146100cc57600080fd5b919050565b600060a082840312156100e357600080fd5b82601f8301126100f257600080fd5b60405160a081016001600160401b038111828210171561012257634e487b7160e01b600052604160045260246000fd5b6040528060a084018581111561013757600080fd5b845b818110156101585761014a816100b5565b835260209283019201610139565b509195945050505050565b6103e0806101726000396000f3fe608060405234801561001057600080fd5b50600436106100415760003560e01c806302563a901461004657806335c1d3491461005b578063e90dd9e21461008b575b600080fd5b61005961005436600461036f565b6100a2565b005b61006e610069366004610391565b61034f565b6040516001600160a01b0390911681526020015b60405180910390f35b61009460005481565b604051908152602001610082565b6000546001600001546001600160a01b0316331480156100c0575082155b80156100cf5750806001166001145b156100e057600119166002176102cb565b60018001546001600160a01b0316331480156100fc5750826001145b801561010b5750806002166002145b1561011c57600219166004176102cb565b60018001546001600160a01b0316331480156101385750826002145b80156101475750806008166008145b1561015557600819166102cb565b60018001546001600160a01b0316331480156101715750826003145b80156101805750806004166004145b1561019157600419166010176102cb565b6001600201546001600160a01b0316331480156101ae5750826004145b80156101bd5750806020166020145b156101ce57602019166008176102cb565b6001600201546001600160a01b0316331480156101eb5750826005145b80156101fa5750806010166010145b1561020b57601019166040176102cb565b6001600301546001600160a01b0316331480156102285750826006145b80156102375750806040166040145b1561024857604019166080176102cb565b6001600401546001600160a01b0316331480156102655750826007145b80156102745750806080166080145b156102865760801916610100176102cb565b6001600301546001600160a01b0316331480156102a35750826008145b80156102b457508061010016610100145b156102c65761010019166020176102cb565b505050565b5b8015610348578160011660011480156102e85750806010166010145b156102f957601019166020176102cc565b81600216600214801561030f5750806040166040145b156103215760401916610100176102cc565b8160041660041480156103375750806004166004145b1561034857600419166008176102cc565b6000555050565b6001816005811061035f57600080fd5b01546001600160a01b0316905081565b6000806040838503121561038257600080fd5b50508035926020909101359150565b6000602082840312156103a357600080fd5b503591905056fea26469706673582212204a0633576d82f4e3c2e5e3c9ad98c67e78019c4f540d9503fcae1a32b958af8464736f6c63430008090033",
      "opcodes": "PUSH1 0x80 PUSH1 0x40 MSTORE PUSH1 0x1 PUSH1 0x0 SSTORE CALLVALUE DUP1 ISZERO PUSH2 0x15 JUMPI PUSH1 0x0 DUP1 REVERT JUMPDEST POP PUSH1 0x40 MLOAD PUSH2 0x552 CODESIZE SUB DUP1 PUSH2 0x552 DUP4 CODECOPY DUP2 ADD PUSH1 0x40 DUP2 SWAP1 MSTORE PUSH2 0x34 SWAP2 PUSH2 0xD1 JUMP JUMPDEST PUSH2 0x41 PUSH1 0x1 DUP3 PUSH1 0x5 PUSH2 0x48 JUMP JUMPDEST POP POP PUSH2 0x163 JUMP JUMPDEST DUP3 PUSH1 0x5 DUP2 ADD SWAP3 DUP3 ISZERO PUSH2 0x90 JUMPI SWAP2 PUSH1 0x20 MUL DUP3 ADD JUMPDEST DUP3 DUP2 GT ISZERO PUSH2 0x90 JUMPI DUP3 MLOAD DUP3 SLOAD PUSH1 0x1 PUSH1 0x1 PUSH1 0xA0 SHL SUB NOT AND PUSH1 0x1 PUSH1 0x1 PUSH1 0xA0 SHL SUB SWAP1 SWAP2 AND OR DUP3 SSTORE PUSH1 0x20 SWAP1 SWAP3 ADD SWAP2 PUSH1 0x1 SWAP1 SWAP2 ADD SWAP1 PUSH2 0x5B JUMP JUMPDEST POP PUSH2 0x9C SWAP3 SWAP2 POP PUSH2 0xA0 JUMP JUMPDEST POP SWAP1 JUMP JUMPDEST JUMPDEST DUP1 DUP3 GT ISZERO PUSH2 0x9C JUMPI PUSH1 0x0 DUP2 SSTORE PUSH1 0x1 ADD PUSH2 0xA1 JUMP JUMPDEST DUP1 MLOAD PUSH1 0x1 PUSH1 0x1 PUSH1 0xA0 SHL SUB DUP2 AND DUP2 EQ PUSH2 0xCC JUMPI PUSH1 0x0 DUP1 REVERT JUMPDEST SWAP2 SWAP1 POP JUMP JUMPDEST PUSH1 0x0 PUSH1 0xA0 DUP3 DUP5 SUB SLT ISZERO PUSH2 0xE3 JUMPI PUSH1 0x0 DUP1 REVERT JUMPDEST DUP3 PUSH1 0x1F DUP4 ADD SLT PUSH2 0xF2 JUMPI PUSH1 0x0 DUP1 REVERT JUMPDEST PUSH1 0x40 MLOAD PUSH1 0xA0 DUP2 ADD PUSH1 0x1 PUSH1 0x1 PUSH1 0x40 SHL SUB DUP2 GT DUP3 DUP3 LT OR ISZERO PUSH2 0x122 JUMPI PUSH4 0x4E487B71 PUSH1 0xE0 SHL PUSH1 0x0 MSTORE PUSH1 0x41 PUSH1 0x4 MSTORE PUSH1 0x24 PUSH1 0x0 REVERT JUMPDEST PUSH1 0x40 MSTORE DUP1 PUSH1 0xA0 DUP5 ADD DUP6 DUP2 GT ISZERO PUSH2 0x137 JUMPI PUSH1 0x0 DUP1 REVERT JUMPDEST DUP5 JUMPDEST DUP2 DUP2 LT ISZERO PUSH2 0x158 JUMPI PUSH2 0x14A DUP2 PUSH2 0xB5 JUMP JUMPDEST DUP4 MSTORE PUSH1 0x20 SWAP3 DUP4 ADD SWAP3 ADD PUSH2 0x139 JUMP JUMPDEST POP SWAP2 SWAP6 SWAP5 POP POP POP POP POP JUMP JUMPDEST PUSH2 0x3E0 DUP1 PUSH2 0x172 PUSH1 0x0 CODECOPY PUSH1 0x0 RETURN INVALID PUSH1 0x80 PUSH1 0x40 MSTORE CALLVALUE DUP1 ISZERO PUSH2 0x10 JUMPI PUSH1 0x0 DUP1 REVERT JUMPDEST POP PUSH1 0x4 CALLDATASIZE LT PUSH2 0x41 JUMPI PUSH1 0x0 CALLDATALOAD PUSH1 0xE0 SHR DUP1 PUSH4 0x2563A90 EQ PUSH2 0x46 JUMPI DUP1 PUSH4 0x35C1D349 EQ PUSH2 0x5B JUMPI DUP1 PUSH4 0xE90DD9E2 EQ PUSH2 0x8B JUMPI JUMPDEST PUSH1 0x0 DUP1 REVERT JUMPDEST PUSH2 0x59 PUSH2 0x54 CALLDATASIZE PUSH1 0x4 PUSH2 0x36F JUMP JUMPDEST PUSH2 0xA2 JUMP JUMPDEST STOP JUMPDEST PUSH2 0x6E PUSH2 0x69 CALLDATASIZE PUSH1 0x4 PUSH2 0x391 JUMP JUMPDEST PUSH2 0x34F JUMP JUMPDEST PUSH1 0x40 MLOAD PUSH1 0x1 PUSH1 0x1 PUSH1 0xA0 SHL SUB SWAP1 SWAP2 AND DUP2 MSTORE PUSH1 0x20 ADD JUMPDEST PUSH1 0x40 MLOAD DUP1 SWAP2 SUB SWAP1 RETURN JUMPDEST PUSH2 0x94 PUSH1 0x0 SLOAD DUP2 JUMP JUMPDEST PUSH1 0x40 MLOAD SWAP1 DUP2 MSTORE PUSH1 0x20 ADD PUSH2 0x82 JUMP JUMPDEST PUSH1 0x0 SLOAD PUSH1 0x1 PUSH1 0x0 ADD SLOAD PUSH1 0x1 PUSH1 0x1 PUSH1 0xA0 SHL SUB AND CALLER EQ DUP1 ISZERO PUSH2 0xC0 JUMPI POP DUP3 ISZERO JUMPDEST DUP1 ISZERO PUSH2 0xCF JUMPI POP DUP1 PUSH1 0x1 AND PUSH1 0x1 EQ JUMPDEST ISZERO PUSH2 0xE0 JUMPI PUSH1 0x1 NOT AND PUSH1 0x2 OR PUSH2 0x2CB JUMP JUMPDEST PUSH1 0x1 DUP1 ADD SLOAD PUSH1 0x1 PUSH1 0x1 PUSH1 0xA0 SHL SUB AND CALLER EQ DUP1 ISZERO PUSH2 0xFC JUMPI POP DUP3 PUSH1 0x1 EQ JUMPDEST DUP1 ISZERO PUSH2 0x10B JUMPI POP DUP1 PUSH1 0x2 AND PUSH1 0x2 EQ JUMPDEST ISZERO PUSH2 0x11C JUMPI PUSH1 0x2 NOT AND PUSH1 0x4 OR PUSH2 0x2CB JUMP JUMPDEST PUSH1 0x1 DUP1 ADD SLOAD PUSH1 0x1 PUSH1 0x1 PUSH1 0xA0 SHL SUB AND CALLER EQ DUP1 ISZERO PUSH2 0x138 JUMPI POP DUP3 PUSH1 0x2 EQ JUMPDEST DUP1 ISZERO PUSH2 0x147 JUMPI POP DUP1 PUSH1 0x8 AND PUSH1 0x8 EQ JUMPDEST ISZERO PUSH2 0x155 JUMPI PUSH1 0x8 NOT AND PUSH2 0x2CB JUMP JUMPDEST PUSH1 0x1 DUP1 ADD SLOAD PUSH1 0x1 PUSH1 0x1 PUSH1 0xA0 SHL SUB AND CALLER EQ DUP1 ISZERO PUSH2 0x171 JUMPI POP DUP3 PUSH1 0x3 EQ JUMPDEST DUP1 ISZERO PUSH2 0x180 JUMPI POP DUP1 PUSH1 0x4 AND PUSH1 0x4 EQ JUMPDEST ISZERO PUSH2 0x191 JUMPI PUSH1 0x4 NOT AND PUSH1 0x10 OR PUSH2 0x2CB JUMP JUMPDEST PUSH1 0x1 PUSH1 0x2 ADD SLOAD PUSH1 0x1 PUSH1 0x1 PUSH1 0xA0 SHL SUB AND CALLER EQ DUP1 ISZERO PUSH2 0x1AE JUMPI POP DUP3 PUSH1 0x4 EQ JUMPDEST DUP1 ISZERO PUSH2 0x1BD JUMPI POP DUP1 PUSH1 0x20 AND PUSH1 0x20 EQ JUMPDEST ISZERO PUSH2 0x1CE JUMPI PUSH1 0x20 NOT AND PUSH1 0x8 OR PUSH2 0x2CB JUMP JUMPDEST PUSH1 0x1 PUSH1 0x2 ADD SLOAD PUSH1 0x1 PUSH1 0x1 PUSH1 0xA0 SHL SUB AND CALLER EQ DUP1 ISZERO PUSH2 0x1EB JUMPI POP DUP3 PUSH1 0x5 EQ JUMPDEST DUP1 ISZERO PUSH2 0x1FA JUMPI POP DUP1 PUSH1 0x10 AND PUSH1 0x10 EQ JUMPDEST ISZERO PUSH2 0x20B JUMPI PUSH1 0x10 NOT AND PUSH1 0x40 OR PUSH2 0x2CB JUMP JUMPDEST PUSH1 0x1 PUSH1 0x3 ADD SLOAD PUSH1 0x1 PUSH1 0x1 PUSH1 0xA0 SHL SUB AND CALLER EQ DUP1 ISZERO PUSH2 0x228 JUMPI POP DUP3 PUSH1 0x6 EQ JUMPDEST DUP1 ISZERO PUSH2 0x237 JUMPI POP DUP1 PUSH1 0x40 AND PUSH1 0x40 EQ JUMPDEST ISZERO PUSH2 0x248 JUMPI PUSH1 0x40 NOT AND PUSH1 0x80 OR PUSH2 0x2CB JUMP JUMPDEST PUSH1 0x1 PUSH1 0x4 ADD SLOAD PUSH1 0x1 PUSH1 0x1 PUSH1 0xA0 SHL SUB AND CALLER EQ DUP1 ISZERO PUSH2 0x265 JUMPI POP DUP3 PUSH1 0x7 EQ JUMPDEST DUP1 ISZERO PUSH2 0x274 JUMPI POP DUP1 PUSH1 0x80 AND PUSH1 0x80 EQ JUMPDEST ISZERO PUSH2 0x286 JUMPI PUSH1 0x80 NOT AND PUSH2 0x100 OR PUSH2 0x2CB JUMP JUMPDEST PUSH1 0x1 PUSH1 0x3 ADD SLOAD PUSH1 0x1 PUSH1 0x1 PUSH1 0xA0 SHL SUB AND CALLER EQ DUP1 ISZERO PUSH2 0x2A3 JUMPI POP DUP3 PUSH1 0x8 EQ JUMPDEST DUP1 ISZERO PUSH2 0x2B4 JUMPI POP DUP1 PUSH2 0x100 AND PUSH2 0x100 EQ JUMPDEST ISZERO PUSH2 0x2C6 JUMPI PUSH2 0x100 NOT AND PUSH1 0x20 OR PUSH2 0x2CB JUMP JUMPDEST POP POP POP JUMP JUMPDEST JUMPDEST DUP1 ISZERO PUSH2 0x348 JUMPI DUP2 PUSH1 0x1 AND PUSH1 0x1 EQ DUP1 ISZERO PUSH2 0x2E8 JUMPI POP DUP1 PUSH1 0x10 AND PUSH1 0x10 EQ JUMPDEST ISZERO PUSH2 0x2F9 JUMPI PUSH1 0x10 NOT AND PUSH1 0x20 OR PUSH2 0x2CC JUMP JUMPDEST DUP2 PUSH1 0x2 AND PUSH1 0x2 EQ DUP1 ISZERO PUSH2 0x30F JUMPI POP DUP1 PUSH1 0x40 AND PUSH1 0x40 EQ JUMPDEST ISZERO PUSH2 0x321 JUMPI PUSH1 0x40 NOT AND PUSH2 0x100 OR PUSH2 0x2CC JUMP JUMPDEST DUP2 PUSH1 0x4 AND PUSH1 0x4 EQ DUP1 ISZERO PUSH2 0x337 JUMPI POP DUP1 PUSH1 0x4 AND PUSH1 0x4 EQ JUMPDEST ISZERO PUSH2 0x348 JUMPI PUSH1 0x4 NOT AND PUSH1 0x8 OR PUSH2 0x2CC JUMP JUMPDEST PUSH1 0x0 SSTORE POP POP JUMP JUMPDEST PUSH1 0x1 DUP2 PUSH1 0x5 DUP2 LT PUSH2 0x35F JUMPI PUSH1 0x0 DUP1 REVERT JUMPDEST ADD SLOAD PUSH1 0x1 PUSH1 0x1 PUSH1 0xA0 SHL SUB AND SWAP1 POP DUP2 JUMP JUMPDEST PUSH1 0x0 DUP1 PUSH1 0x40 DUP4 DUP6 SUB SLT ISZERO PUSH2 0x382 JUMPI PUSH1 0x0 DUP1 REVERT JUMPDEST POP POP DUP1 CALLDATALOAD SWAP3 PUSH1 0x20 SWAP1 SWAP2 ADD CALLDATALOAD SWAP2 POP JUMP JUMPDEST PUSH1 0x0 PUSH1 0x20 DUP3 DUP5 SUB SLT ISZERO PUSH2 0x3A3 JUMPI PUSH1 0x0 DUP1 REVERT JUMPDEST POP CALLDATALOAD SWAP2 SWAP1 POP JUMP INVALID LOG2 PUSH5 0x6970667358 0x22 SLT KECCAK256 0x4A MOD CALLER JUMPI PUSH14 0x82F4E3C2E5E3C9AD98C67E78019C 0x4F SLOAD 0xD SWAP6 SUB 0xFC 0xAE BYTE ORIGIN 0xB9 PC 0xAF DUP5 PUSH5 0x736F6C6343 STOP ADDMOD MULMOD STOP CALLER "
    }
  }
}