{
  "abi": [
    {
      "inputs": [
        {
          "internalType": "address[5]",
          "name": "_participants",
          "type": "address[5]"
        }
      ],
      "stateMutability": "nonpayable",
      "type": "constructor"
    },
    {
      "inputs": [
        {
          "internalType": "uint256",
          "name": "id",
          "type": "uint256"
        }
      ],
      "name": "enact",
      "outputs": [],
      "stateMutability": "nonpayable",
      "type": "function"
    },
    {
      "inputs": [
        {
          "internalType": "uint256",
          "name": "",
          "type": "uint256"
        }
      ],
      "name": "participants",
      "outputs": [
        {
          "internalType": "address",
          "name": "",
          "type": "address"
        }
      ],
      "stateMutability": "view",
      "type": "function"
    },
    {
      "inputs": [],
      "name": "resolved",
      "outputs": [
        {
          "internalType": "bool",
          "name": "",
          "type": "bool"
        }
      ],
      "stateMutability": "view",
      "type": "function"
    },
    {
      "inputs": [
        {
          "internalType": "bool",
          "name": "_resolved",
          "type": "bool"
        }
      ],
      "name": "setresolved",
      "outputs": [],
      "stateMutability": "nonpayable",
      "type": "function"
    },
    {
      "inputs": [],
      "name": "tokenState",
      "outputs": [
        {
          "internalType": "uint256",
          "name": "",
          "type": "uint256"
        }
      ],
      "stateMutability": "view",
      "type": "function"
    }
  ],
  "evm": {
    "bytecode": {
      "linkReferences": {},
      "object": "608060405260016000556006805460ff1916905534801561001f57600080fd5b5060405161059b38038061059b83398101604081905261003e916100db565b61004b6001826005610052565b505061016d565b826005810192821561009a579160200282015b8281111561009a57825182546001600160a01b0319166001600160a01b03909116178255602090920191600190910190610065565b506100a69291506100aa565b5090565b5b808211156100a657600081556001016100ab565b80516001600160a01b03811681146100d657600080fd5b919050565b600060a082840312156100ed57600080fd5b82601f8301126100fc57600080fd5b60405160a081016001600160401b038111828210171561012c57634e487b7160e01b600052604160045260246000fd5b6040528060a084018581111561014157600080fd5b845b8181101561016257610154816100bf565b835260209283019201610143565b509195945050505050565b61041f8061017c6000396000f3fe608060405234801561001057600080fd5b50600436106100575760003560e01c806335c1d3491461005c5780633f6fa6551461008c5780635e9cc2a9146100a9578063b482e4f5146100be578063e90dd9e2146100df575b600080fd5b61006f61006a3660046103a7565b6100f6565b6040516001600160a01b0390911681526020015b60405180910390f35b6006546100999060ff1681565b6040519015158152602001610083565b6100bc6100b73660046103a7565b610116565b005b6100bc6100cc3660046103c0565b6006805460ff1916911515919091179055565b6100e860005481565b604051908152602001610083565b6001816005811061010657600080fd5b01546001600160a01b0316905081565b6000545b80156103a157806001166001141561015e5781600114801561014957506001600001546001600160a01b031633145b1561015e57600091506001191660021761011a565b806002166002141561019b57816002148015610186575060018001546001600160a01b031633145b1561019b57600091506002191660041761011a565b80600816600814156101d5578160031480156101c3575060018001546001600160a01b031633145b156101d55760009150600819166103a1565b806004166004141561022e578160041480156101fd575060018001546001600160a01b031633145b1561021257600091506004191660101761011a565b60065460ff1615156001141561022e576004191660081761011a565b806020166020141561026c5781600514801561025757506001600201546001600160a01b031633145b1561026c57600091506020191660081761011a565b80601016601014156102c65781600614801561029557506001600201546001600160a01b031633145b156102aa57600091506010191660401761011a565b60065460ff161515600114156102c6576010191660201761011a565b8060401660401415610321578160071480156102ef57506001600301546001600160a01b031633145b1561030457600091506040191660801761011a565b60065460ff1615156001141561032157604019166101001761011a565b80608016608014156103605781600814801561034a57506001600401546001600160a01b031633145b156103605760009150608019166101001761011a565b806101001661010014156103a15781600914801561038b57506001600301546001600160a01b031633145b156103a15760009150610100191660201761011a565b60005550565b6000602082840312156103b957600080fd5b5035919050565b6000602082840312156103d257600080fd5b813580151581146103e257600080fd5b939250505056fea26469706673582212202d3862b1eba3b6de72ae29ba1ff76fd2a542b2804971c2e58dd94c9e9048a45564736f6c63430008090033",
      "opcodes": "PUSH1 0x80 PUSH1 0x40 MSTORE PUSH1 0x1 PUSH1 0x0 SSTORE PUSH1 0x6 DUP1 SLOAD PUSH1 0xFF NOT AND SWAP1 SSTORE CALLVALUE DUP1 ISZERO PUSH2 0x1F JUMPI PUSH1 0x0 DUP1 REVERT JUMPDEST POP PUSH1 0x40 MLOAD PUSH2 0x59B CODESIZE SUB DUP1 PUSH2 0x59B DUP4 CODECOPY DUP2 ADD PUSH1 0x40 DUP2 SWAP1 MSTORE PUSH2 0x3E SWAP2 PUSH2 0xDB JUMP JUMPDEST PUSH2 0x4B PUSH1 0x1 DUP3 PUSH1 0x5 PUSH2 0x52 JUMP JUMPDEST POP POP PUSH2 0x16D JUMP JUMPDEST DUP3 PUSH1 0x5 DUP2 ADD SWAP3 DUP3 ISZERO PUSH2 0x9A JUMPI SWAP2 PUSH1 0x20 MUL DUP3 ADD JUMPDEST DUP3 DUP2 GT ISZERO PUSH2 0x9A JUMPI DUP3 MLOAD DUP3 SLOAD PUSH1 0x1 PUSH1 0x1 PUSH1 0xA0 SHL SUB NOT AND PUSH1 0x1 PUSH1 0x1 PUSH1 0xA0 SHL SUB SWAP1 SWAP2 AND OR DUP3 SSTORE PUSH1 0x20 SWAP1 SWAP3 ADD SWAP2 PUSH1 0x1 SWAP1 SWAP2 ADD SWAP1 PUSH2 0x65 JUMP JUMPDEST POP PUSH2 0xA6 SWAP3 SWAP2 POP PUSH2 0xAA JUMP JUMPDEST POP SWAP1 JUMP JUMPDEST JUMPDEST DUP1 DUP3 GT ISZERO PUSH2 0xA6 JUMPI PUSH1 0x0 DUP2 SSTORE PUSH1 0x1 ADD PUSH2 0xAB JUMP JUMPDEST DUP1 MLOAD PUSH1 0x1 PUSH1 0x1 PUSH1 0xA0 SHL SUB DUP2 AND DUP2 EQ PUSH2 0xD6 JUMPI PUSH1 0x0 DUP1 REVERT JUMPDEST SWAP2 SWAP1 POP JUMP JUMPDEST PUSH1 0x0 PUSH1 0xA0 DUP3 DUP5 SUB SLT ISZERO PUSH2 0xED JUMPI PUSH1 0x0 DUP1 REVERT JUMPDEST DUP3 PUSH1 0x1F DUP4 ADD SLT PUSH2 0xFC JUMPI PUSH1 0x0 DUP1 REVERT JUMPDEST PUSH1 0x40 MLOAD PUSH1 0xA0 DUP2 ADD PUSH1 0x1 PUSH1 0x1 PUSH1 0x40 SHL SUB DUP2 GT DUP3 DUP3 LT OR ISZERO PUSH2 0x12C JUMPI PUSH4 0x4E487B71 PUSH1 0xE0 SHL PUSH1 0x0 MSTORE PUSH1 0x41 PUSH1 0x4 MSTORE PUSH1 0x24 PUSH1 0x0 REVERT JUMPDEST PUSH1 0x40 MSTORE DUP1 PUSH1 0xA0 DUP5 ADD DUP6 DUP2 GT ISZERO PUSH2 0x141 JUMPI PUSH1 0x0 DUP1 REVERT JUMPDEST DUP5 JUMPDEST DUP2 DUP2 LT ISZERO PUSH2 0x162 JUMPI PUSH2 0x154 DUP2 PUSH2 0xBF JUMP JUMPDEST DUP4 MSTORE PUSH1 0x20 SWAP3 DUP4 ADD SWAP3 ADD PUSH2 0x143 JUMP JUMPDEST POP SWAP2 SWAP6 SWAP5 POP POP POP POP POP JUMP JUMPDEST PUSH2 0x41F DUP1 PUSH2 0x17C PUSH1 0x0 CODECOPY PUSH1 0x0 RETURN INVALID PUSH1 0x80 PUSH1 0x40 MSTORE CALLVALUE DUP1 ISZERO PUSH2 0x10 JUMPI PUSH1 0x0 DUP1 REVERT JUMPDEST POP PUSH1 0x4 CALLDATASIZE LT PUSH2 0x57 JUMPI PUSH1 0x0 CALLDATALOAD PUSH1 0xE0 SHR DUP1 PUSH4 0x35C1D349 EQ PUSH2 0x5C JUMPI DUP1 PUSH4 0x3F6FA655 EQ PUSH2 0x8C JUMPI DUP1 PUSH4 0x5E9CC2A9 EQ PUSH2 0xA9 JUMPI DUP1 PUSH4 0xB482E4F5 EQ PUSH2 0xBE JUMPI DUP1 PUSH4 0xE90DD9E2 EQ PUSH2 0xDF JUMPI JUMPDEST PUSH1 0x0 DUP1 REVERT JUMPDEST PUSH2 0x6F PUSH2 0x6A CALLDATASIZE PUSH1 0x4 PUSH2 0x3A7 JUMP JUMPDEST PUSH2 0xF6 JUMP JUMPDEST PUSH1 0x40 MLOAD PUSH1 0x1 PUSH1 0x1 PUSH1 0xA0 SHL SUB SWAP1 SWAP2 AND DUP2 MSTORE PUSH1 0x20 ADD JUMPDEST PUSH1 0x40 MLOAD DUP1 SWAP2 SUB SWAP1 RETURN JUMPDEST PUSH1 0x6 SLOAD PUSH2 0x99 SWAP1 PUSH1 0xFF AND DUP2 JUMP JUMPDEST PUSH1 0x40 MLOAD SWAP1 ISZERO ISZERO DUP2 MSTORE PUSH1 0x20 ADD PUSH2 0x83 JUMP JUMPDEST PUSH2 0xBC PUSH2 0xB7 CALLDATASIZE PUSH1 0x4 PUSH2 0x3A7 JUMP JUMPDEST PUSH2 0x116 JUMP JUMPDEST STOP JUMPDEST PUSH2 0xBC PUSH2 0xCC CALLDATASIZE PUSH1 0x4 PUSH2 0x3C0 JUMP JUMPDEST PUSH1 0x6 DUP1 SLOAD PUSH1 0xFF NOT AND SWAP2 ISZERO ISZERO SWAP2 SWAP1 SWAP2 OR SWAP1 SSTORE JUMP JUMPDEST PUSH2 0xE8 PUSH1 0x0 SLOAD DUP2 JUMP JUMPDEST PUSH1 0x40 MLOAD SWAP1 DUP2 MSTORE PUSH1 0x20 ADD PUSH2 0x83 JUMP JUMPDEST PUSH1 0x1 DUP2 PUSH1 0x5 DUP2 LT PUSH2 0x106 JUMPI PUSH1 0x0 DUP1 REVERT JUMPDEST ADD SLOAD PUSH1 0x1 PUSH1 0x1 PUSH1 0xA0 SHL SUB AND SWAP1 POP DUP2 JUMP JUMPDEST PUSH1 0x0 SLOAD JUMPDEST DUP1 ISZERO PUSH2 0x3A1 JUMPI DUP1 PUSH1 0x1 AND PUSH1 0x1 EQ ISZERO PUSH2 0x15E JUMPI DUP2 PUSH1 0x1 EQ DUP1 ISZERO PUSH2 0x149 JUMPI POP PUSH1 0x1 PUSH1 0x0 ADD SLOAD PUSH1 0x1 PUSH1 0x1 PUSH1 0xA0 SHL SUB AND CALLER EQ JUMPDEST ISZERO PUSH2 0x15E JUMPI PUSH1 0x0 SWAP2 POP PUSH1 0x1 NOT AND PUSH1 0x2 OR PUSH2 0x11A JUMP JUMPDEST DUP1 PUSH1 0x2 AND PUSH1 0x2 EQ ISZERO PUSH2 0x19B JUMPI DUP2 PUSH1 0x2 EQ DUP1 ISZERO PUSH2 0x186 JUMPI POP PUSH1 0x1 DUP1 ADD SLOAD PUSH1 0x1 PUSH1 0x1 PUSH1 0xA0 SHL SUB AND CALLER EQ JUMPDEST ISZERO PUSH2 0x19B JUMPI PUSH1 0x0 SWAP2 POP PUSH1 0x2 NOT AND PUSH1 0x4 OR PUSH2 0x11A JUMP JUMPDEST DUP1 PUSH1 0x8 AND PUSH1 0x8 EQ ISZERO PUSH2 0x1D5 JUMPI DUP2 PUSH1 0x3 EQ DUP1 ISZERO PUSH2 0x1C3 JUMPI POP PUSH1 0x1 DUP1 ADD SLOAD PUSH1 0x1 PUSH1 0x1 PUSH1 0xA0 SHL SUB AND CALLER EQ JUMPDEST ISZERO PUSH2 0x1D5 JUMPI PUSH1 0x0 SWAP2 POP PUSH1 0x8 NOT AND PUSH2 0x3A1 JUMP JUMPDEST DUP1 PUSH1 0x4 AND PUSH1 0x4 EQ ISZERO PUSH2 0x22E JUMPI DUP2 PUSH1 0x4 EQ DUP1 ISZERO PUSH2 0x1FD JUMPI POP PUSH1 0x1 DUP1 ADD SLOAD PUSH1 0x1 PUSH1 0x1 PUSH1 0xA0 SHL SUB AND CALLER EQ JUMPDEST ISZERO PUSH2 0x212 JUMPI PUSH1 0x0 SWAP2 POP PUSH1 0x4 NOT AND PUSH1 0x10 OR PUSH2 0x11A JUMP JUMPDEST PUSH1 0x6 SLOAD PUSH1 0xFF AND ISZERO ISZERO PUSH1 0x1 EQ ISZERO PUSH2 0x22E JUMPI PUSH1 0x4 NOT AND PUSH1 0x8 OR PUSH2 0x11A JUMP JUMPDEST DUP1 PUSH1 0x20 AND PUSH1 0x20 EQ ISZERO PUSH2 0x26C JUMPI DUP2 PUSH1 0x5 EQ DUP1 ISZERO PUSH2 0x257 JUMPI POP PUSH1 0x1 PUSH1 0x2 ADD SLOAD PUSH1 0x1 PUSH1 0x1 PUSH1 0xA0 SHL SUB AND CALLER EQ JUMPDEST ISZERO PUSH2 0x26C JUMPI PUSH1 0x0 SWAP2 POP PUSH1 0x20 NOT AND PUSH1 0x8 OR PUSH2 0x11A JUMP JUMPDEST DUP1 PUSH1 0x10 AND PUSH1 0x10 EQ ISZERO PUSH2 0x2C6 JUMPI DUP2 PUSH1 0x6 EQ DUP1 ISZERO PUSH2 0x295 JUMPI POP PUSH1 0x1 PUSH1 0x2 ADD SLOAD PUSH1 0x1 PUSH1 0x1 PUSH1 0xA0 SHL SUB AND CALLER EQ JUMPDEST ISZERO PUSH2 0x2AA JUMPI PUSH1 0x0 SWAP2 POP PUSH1 0x10 NOT AND PUSH1 0x40 OR PUSH2 0x11A JUMP JUMPDEST PUSH1 0x6 SLOAD PUSH1 0xFF AND ISZERO ISZERO PUSH1 0x1 EQ ISZERO PUSH2 0x2C6 JUMPI PUSH1 0x10 NOT AND PUSH1 0x20 OR PUSH2 0x11A JUMP JUMPDEST DUP1 PUSH1 0x40 AND PUSH1 0x40 EQ ISZERO PUSH2 0x321 JUMPI DUP2 PUSH1 0x7 EQ DUP1 ISZERO PUSH2 0x2EF JUMPI POP PUSH1 0x1 PUSH1 0x3 ADD SLOAD PUSH1 0x1 PUSH1 0x1 PUSH1 0xA0 SHL SUB AND CALLER EQ JUMPDEST ISZERO PUSH2 0x304 JUMPI PUSH1 0x0 SWAP2 POP PUSH1 0x40 NOT AND PUSH1 0x80 OR PUSH2 0x11A JUMP JUMPDEST PUSH1 0x6 SLOAD PUSH1 0xFF AND ISZERO ISZERO PUSH1 0x1 EQ ISZERO PUSH2 0x321 JUMPI PUSH1 0x40 NOT AND PUSH2 0x100 OR PUSH2 0x11A JUMP JUMPDEST DUP1 PUSH1 0x80 AND PUSH1 0x80 EQ ISZERO PUSH2 0x360 JUMPI DUP2 PUSH1 0x8 EQ DUP1 ISZERO PUSH2 0x34A JUMPI POP PUSH1 0x1 PUSH1 0x4 ADD SLOAD PUSH1 0x1 PUSH1 0x1 PUSH1 0xA0 SHL SUB AND CALLER EQ JUMPDEST ISZERO PUSH2 0x360 JUMPI PUSH1 0x0 SWAP2 POP PUSH1 0x80 NOT AND PUSH2 0x100 OR PUSH2 0x11A JUMP JUMPDEST DUP1 PUSH2 0x100 AND PUSH2 0x100 EQ ISZERO PUSH2 0x3A1 JUMPI DUP2 PUSH1 0x9 EQ DUP1 ISZERO PUSH2 0x38B JUMPI POP PUSH1 0x1 PUSH1 0x3 ADD SLOAD PUSH1 0x1 PUSH1 0x1 PUSH1 0xA0 SHL SUB AND CALLER EQ JUMPDEST ISZERO PUSH2 0x3A1 JUMPI PUSH1 0x0 SWAP2 POP PUSH2 0x100 NOT AND PUSH1 0x20 OR PUSH2 0x11A JUMP JUMPDEST PUSH1 0x0 SSTORE POP JUMP JUMPDEST PUSH1 0x0 PUSH1 0x20 DUP3 DUP5 SUB SLT ISZERO PUSH2 0x3B9 JUMPI PUSH1 0x0 DUP1 REVERT JUMPDEST POP CALLDATALOAD SWAP2 SWAP1 POP JUMP JUMPDEST PUSH1 0x0 PUSH1 0x20 DUP3 DUP5 SUB SLT ISZERO PUSH2 0x3D2 JUMPI PUSH1 0x0 DUP1 REVERT JUMPDEST DUP2 CALLDATALOAD DUP1 ISZERO ISZERO DUP2 EQ PUSH2 0x3E2 JUMPI PUSH1 0x0 DUP1 REVERT JUMPDEST SWAP4 SWAP3 POP POP POP JUMP INVALID LOG2 PUSH5 0x6970667358 0x22 SLT KECCAK256 0x2D CODESIZE PUSH3 0xB1EBA3 0xB6 0xDE PUSH19 0xAE29BA1FF76FD2A542B2804971C2E58DD94C9E SWAP1 BASEFEE LOG4 SSTORE PUSH5 0x736F6C6343 STOP ADDMOD MULMOD STOP CALLER "
    }
  }
}