{
  "abi": [
    {
      "inputs": [
        {
          "internalType": "address[5]",
          "name": "_participants",
          "type": "address[5]"
        },
        {
          "internalType": "uint256",
          "name": "_disputeWindowInUNIX",
          "type": "uint256"
        }
      ],
      "stateMutability": "nonpayable",
      "type": "constructor"
    },
    {
      "inputs": [
        {
          "internalType": "uint256",
          "name": "id",
          "type": "uint256"
        },
        {
          "internalType": "uint256",
          "name": "cond",
          "type": "uint256"
        }
      ],
      "name": "continueAfterDispute",
      "outputs": [],
      "stateMutability": "nonpayable",
      "type": "function"
    },
    {
      "inputs": [],
      "name": "disputeMadeAtUNIX",
      "outputs": [
        {
          "internalType": "uint256",
          "name": "",
          "type": "uint256"
        }
      ],
      "stateMutability": "view",
      "type": "function"
    },
    {
      "inputs": [],
      "name": "disputeWindowInUNIX",
      "outputs": [
        {
          "internalType": "uint256",
          "name": "",
          "type": "uint256"
        }
      ],
      "stateMutability": "view",
      "type": "function"
    },
    {
      "inputs": [],
      "name": "index",
      "outputs": [
        {
          "internalType": "uint256",
          "name": "",
          "type": "uint256"
        }
      ],
      "stateMutability": "view",
      "type": "function"
    },
    {
      "inputs": [
        {
          "internalType": "uint256",
          "name": "",
          "type": "uint256"
        }
      ],
      "name": "participants",
      "outputs": [
        {
          "internalType": "address",
          "name": "",
          "type": "address"
        }
      ],
      "stateMutability": "view",
      "type": "function"
    },
    {
      "inputs": [
        {
          "components": [
            {
              "internalType": "uint256",
              "name": "index",
              "type": "uint256"
            },
            {
              "internalType": "uint256",
              "name": "caseID",
              "type": "uint256"
            },
            {
              "internalType": "uint256",
              "name": "from",
              "type": "uint256"
            },
            {
              "internalType": "uint256",
              "name": "taskID",
              "type": "uint256"
            },
            {
              "internalType": "uint256",
              "name": "newTokenState",
              "type": "uint256"
            },
            {
              "internalType": "uint256",
              "name": "conditionState",
              "type": "uint256"
            },
            {
              "internalType": "bytes[5]",
              "name": "signatures",
              "type": "bytes[5]"
            }
          ],
          "internalType": "struct IM_ProcessChannel.Step",
          "name": "_step",
          "type": "tuple"
        }
      ],
      "name": "submit",
      "outputs": [],
      "stateMutability": "nonpayable",
      "type": "function"
    },
    {
      "inputs": [],
      "name": "tokenState",
      "outputs": [
        {
          "internalType": "uint256",
          "name": "",
          "type": "uint256"
        }
      ],
      "stateMutability": "view",
      "type": "function"
    }
  ],
  "evm": {
    "bytecode": {
      "linkReferences": {},
      "object": "60a06040526001600055600060015560006002553480156200002057600080fd5b5060405162000c3938038062000c39833981016040819052620000439162000104565b6200005260038360056200005d565b506080525062000197565b8260058101928215620000a8579160200282015b82811115620000a857825182546001600160a01b0319166001600160a01b0390911617825560209092019160019091019062000071565b50620000b6929150620000ba565b5090565b5b80821115620000b65760008155600101620000bb565b634e487b7160e01b600052604160045260246000fd5b80516001600160a01b0381168114620000ff57600080fd5b919050565b60008060c083850312156200011857600080fd5b83601f8401126200012857600080fd5b60405160a081016001600160401b03811182821017156200014d576200014d620000d1565b6040528060a08501868111156200016357600080fd5b855b8181101562000188576200017981620000e7565b83526020928301920162000165565b50519196919550909350505050565b608051610a79620001c06000396000818160dc0152818161016e01526101dd0152610a796000f3fe608060405234801561001057600080fd5b506004361061006d5760003560e01c80631311163c146100725780632986c0e5146100875780633594b762146100a357806335c1d349146100ac578063421f9e34146100d7578063b08bb56a146100fe578063e90dd9e214610111575b600080fd5b6100856100803660046108ea565b61011a565b005b61009060015481565b6040519081526020015b60405180910390f35b61009060025481565b6100bf6100ba36600461092c565b6101aa565b6040516001600160a01b03909116815260200161009a565b6100907f000000000000000000000000000000000000000000000000000000000000000081565b61008561010c366004610945565b6101ca565b61009060005481565b600254813515801561012a575080155b1561013757426002555050565b610140826104fa565b156101a657806101685760808201351561015957426002555b50803560015560800135600055565b426101937f00000000000000000000000000000000000000000000000000000000000000008361097d565b106101a657813560015560808201356000555b5050565b600381600581106101ba57600080fd5b01546001600160a01b0316905081565b60025480158015906102045750426102027f00000000000000000000000000000000000000000000000000000000000000008361097d565b105b61024a5760405162461bcd60e51b81526020600482015260126024820152714e6f20656c6170736564206469737075746560701b60448201526064015b60405180910390fd5b6000548315801561025e5750806001166001145b801561027757506003600001546001600160a01b031633145b156102885760011916600217610475565b83600114801561029b5750806002166002145b80156102b457506003600101546001600160a01b031633145b156102c55760021916600417610475565b8360021480156102d85750806008166008145b80156102f157506003600101546001600160a01b031633145b156102ff5760081916610475565b8360031480156103125750806004166004145b801561032b57506003600101546001600160a01b031633145b1561033c5760041916601017610475565b83600414801561034f5750806020166020145b801561036857506003600201546001600160a01b031633145b156103795760201916600817610475565b83600514801561038c5750806010166010145b80156103a557506003600201546001600160a01b031633145b156103b65760101916604017610475565b8360061480156103c95750806040166040145b80156103e1575060038001546001600160a01b031633145b156103f25760401916608017610475565b8360071480156104055750806080166080145b801561041e57506003600401546001600160a01b031633145b15610430576080191661010017610475565b83600814801561044557508061010016610100145b801561045d575060038001546001600160a01b031633145b1561046f576101001916602017610475565b50505050565b5b80156104f2578260011660011480156104925750806010166010145b156104a35760101916602017610476565b8260021660021480156104b95750806040166040145b156104cb576040191661010017610476565b8260041660041480156104e15750806004166004145b156104f25760041916600817610476565b600055505050565b600081600001356001541061051157506000919050565b604080518335602082810191909152840135818301529083013560608281019190915283013560808281019190915283013560a08281019190915283013560c082015260009060e00160405160208183030381529060405280519060200120905060005b600581101561063d576003816005811061059157610591610995565b01546001600160a01b03166106136105ac60c08701876109ab565b83600581106105bd576105bd610995565b6020028101906105cd91906109cb565b8080601f01602080910402602001604051908101604052809392919081815260200183838082843760009201919091525061060d92508791506106479050565b9061067a565b6001600160a01b03161461062b575060009392505050565b8061063581610a12565b915050610575565b5060019392505050565b7f19457468657265756d205369676e6564204d6573736167653a0a3332000000006000908152601c91909152603c902090565b6000806000610689858561069e565b91509150610696816106e4565b509392505050565b6000808251604114156106d55760208301516040840151606085015160001a6106c987828585610830565b945094505050506106dd565b506000905060025b9250929050565b60008160048111156106f8576106f8610a2d565b14156107015750565b600181600481111561071557610715610a2d565b141561075e5760405162461bcd60e51b815260206004820152601860248201527745434453413a20696e76616c6964207369676e617475726560401b6044820152606401610241565b600281600481111561077257610772610a2d565b14156107c05760405162461bcd60e51b815260206004820152601f60248201527f45434453413a20696e76616c6964207369676e6174757265206c656e677468006044820152606401610241565b60038160048111156107d4576107d4610a2d565b141561082d5760405162461bcd60e51b815260206004820152602260248201527f45434453413a20696e76616c6964207369676e6174757265202773272076616c604482015261756560f01b6064820152608401610241565b50565b6000806fa2a8918ca85bafe22016d0b997e4df60600160ff1b0383111561085d57506000905060036108e1565b6040805160008082526020820180845289905260ff881692820192909252606081018690526080810185905260019060a0016020604051602081039080840390855afa1580156108b1573d6000803e3d6000fd5b5050604051601f1901519150506001600160a01b0381166108da576000600192509250506108e1565b9150600090505b94509492505050565b6000602082840312156108fc57600080fd5b813567ffffffffffffffff81111561091357600080fd5b820160e0818503121561092557600080fd5b9392505050565b60006020828403121561093e57600080fd5b5035919050565b6000806040838503121561095857600080fd5b50508035926020909101359150565b634e487b7160e01b600052601160045260246000fd5b6000821982111561099057610990610967565b500190565b634e487b7160e01b600052603260045260246000fd5b60008235609e198336030181126109c157600080fd5b9190910192915050565b6000808335601e198436030181126109e257600080fd5b83018035915067ffffffffffffffff8211156109fd57600080fd5b6020019150368190038213156106dd57600080fd5b6000600019821415610a2657610a26610967565b5060010190565b634e487b7160e01b600052602160045260246000fdfea2646970667358221220d94616fa68d43960f35c00ad2b6f4db7a12c3c7c33b882dc712a3d1baec7816864736f6c63430008090033",
      "opcodes": "PUSH1 0xA0 PUSH1 0x40 MSTORE PUSH1 0x1 PUSH1 0x0 SSTORE PUSH1 0x0 PUSH1 0x1 SSTORE PUSH1 0x0 PUSH1 0x2 SSTORE CALLVALUE DUP1 ISZERO PUSH3 0x20 JUMPI PUSH1 0x0 DUP1 REVERT JUMPDEST POP PUSH1 0x40 MLOAD PUSH3 0xC39 CODESIZE SUB DUP1 PUSH3 0xC39 DUP4 CODECOPY DUP2 ADD PUSH1 0x40 DUP2 SWAP1 MSTORE PUSH3 0x43 SWAP2 PUSH3 0x104 JUMP JUMPDEST PUSH3 0x52 PUSH1 0x3 DUP4 PUSH1 0x5 PUSH3 0x5D JUMP JUMPDEST POP PUSH1 0x80 MSTORE POP PUSH3 0x197 JUMP JUMPDEST DUP3 PUSH1 0x5 DUP2 ADD SWAP3 DUP3 ISZERO PUSH3 0xA8 JUMPI SWAP2 PUSH1 0x20 MUL DUP3 ADD JUMPDEST DUP3 DUP2 GT ISZERO PUSH3 0xA8 JUMPI DUP3 MLOAD DUP3 SLOAD PUSH1 0x1 PUSH1 0x1 PUSH1 0xA0 SHL SUB NOT AND PUSH1 0x1 PUSH1 0x1 PUSH1 0xA0 SHL SUB SWAP1 SWAP2 AND OR DUP3 SSTORE PUSH1 0x20 SWAP1 SWAP3 ADD SWAP2 PUSH1 0x1 SWAP1 SWAP2 ADD SWAP1 PUSH3 0x71 JUMP JUMPDEST POP PUSH3 0xB6 SWAP3 SWAP2 POP PUSH3 0xBA JUMP JUMPDEST POP SWAP1 JUMP JUMPDEST JUMPDEST DUP1 DUP3 GT ISZERO PUSH3 0xB6 JUMPI PUSH1 0x0 DUP2 SSTORE PUSH1 0x1 ADD PUSH3 0xBB JUMP JUMPDEST PUSH4 0x4E487B71 PUSH1 0xE0 SHL PUSH1 0x0 MSTORE PUSH1 0x41 PUSH1 0x4 MSTORE PUSH1 0x24 PUSH1 0x0 REVERT JUMPDEST DUP1 MLOAD PUSH1 0x1 PUSH1 0x1 PUSH1 0xA0 SHL SUB DUP2 AND DUP2 EQ PUSH3 0xFF JUMPI PUSH1 0x0 DUP1 REVERT JUMPDEST SWAP2 SWAP1 POP JUMP JUMPDEST PUSH1 0x0 DUP1 PUSH1 0xC0 DUP4 DUP6 SUB SLT ISZERO PUSH3 0x118 JUMPI PUSH1 0x0 DUP1 REVERT JUMPDEST DUP4 PUSH1 0x1F DUP5 ADD SLT PUSH3 0x128 JUMPI PUSH1 0x0 DUP1 REVERT JUMPDEST PUSH1 0x40 MLOAD PUSH1 0xA0 DUP2 ADD PUSH1 0x1 PUSH1 0x1 PUSH1 0x40 SHL SUB DUP2 GT DUP3 DUP3 LT OR ISZERO PUSH3 0x14D JUMPI PUSH3 0x14D PUSH3 0xD1 JUMP JUMPDEST PUSH1 0x40 MSTORE DUP1 PUSH1 0xA0 DUP6 ADD DUP7 DUP2 GT ISZERO PUSH3 0x163 JUMPI PUSH1 0x0 DUP1 REVERT JUMPDEST DUP6 JUMPDEST DUP2 DUP2 LT ISZERO PUSH3 0x188 JUMPI PUSH3 0x179 DUP2 PUSH3 0xE7 JUMP JUMPDEST DUP4 MSTORE PUSH1 0x20 SWAP3 DUP4 ADD SWAP3 ADD PUSH3 0x165 JUMP JUMPDEST POP MLOAD SWAP2 SWAP7 SWAP2 SWAP6 POP SWAP1 SWAP4 POP POP POP POP JUMP JUMPDEST PUSH1 0x80 MLOAD PUSH2 0xA79 PUSH3 0x1C0 PUSH1 0x0 CODECOPY PUSH1 0x0 DUP2 DUP2 PUSH1 0xDC ADD MSTORE DUP2 DUP2 PUSH2 0x16E ADD MSTORE PUSH2 0x1DD ADD MSTORE PUSH2 0xA79 PUSH1 0x0 RETURN INVALID PUSH1 0x80 PUSH1 0x40 MSTORE CALLVALUE DUP1 ISZERO PUSH2 0x10 JUMPI PUSH1 0x0 DUP1 REVERT JUMPDEST POP PUSH1 0x4 CALLDATASIZE LT PUSH2 0x6D JUMPI PUSH1 0x0 CALLDATALOAD PUSH1 0xE0 SHR DUP1 PUSH4 0x1311163C EQ PUSH2 0x72 JUMPI DUP1 PUSH4 0x2986C0E5 EQ PUSH2 0x87 JUMPI DUP1 PUSH4 0x3594B762 EQ PUSH2 0xA3 JUMPI DUP1 PUSH4 0x35C1D349 EQ PUSH2 0xAC JUMPI DUP1 PUSH4 0x421F9E34 EQ PUSH2 0xD7 JUMPI DUP1 PUSH4 0xB08BB56A EQ PUSH2 0xFE JUMPI DUP1 PUSH4 0xE90DD9E2 EQ PUSH2 0x111 JUMPI JUMPDEST PUSH1 0x0 DUP1 REVERT JUMPDEST PUSH2 0x85 PUSH2 0x80 CALLDATASIZE PUSH1 0x4 PUSH2 0x8EA JUMP JUMPDEST PUSH2 0x11A JUMP JUMPDEST STOP JUMPDEST PUSH2 0x90 PUSH1 0x1 SLOAD DUP2 JUMP JUMPDEST PUSH1 0x40 MLOAD SWAP1 DUP2 MSTORE PUSH1 0x20 ADD JUMPDEST PUSH1 0x40 MLOAD DUP1 SWAP2 SUB SWAP1 RETURN JUMPDEST PUSH2 0x90 PUSH1 0x2 SLOAD DUP2 JUMP JUMPDEST PUSH2 0xBF PUSH2 0xBA CALLDATASIZE PUSH1 0x4 PUSH2 0x92C JUMP JUMPDEST PUSH2 0x1AA JUMP JUMPDEST PUSH1 0x40 MLOAD PUSH1 0x1 PUSH1 0x1 PUSH1 0xA0 SHL SUB SWAP1 SWAP2 AND DUP2 MSTORE PUSH1 0x20 ADD PUSH2 0x9A JUMP JUMPDEST PUSH2 0x90 PUSH32 0x0 DUP2 JUMP JUMPDEST PUSH2 0x85 PUSH2 0x10C CALLDATASIZE PUSH1 0x4 PUSH2 0x945 JUMP JUMPDEST PUSH2 0x1CA JUMP JUMPDEST PUSH2 0x90 PUSH1 0x0 SLOAD DUP2 JUMP JUMPDEST PUSH1 0x2 SLOAD DUP2 CALLDATALOAD ISZERO DUP1 ISZERO PUSH2 0x12A JUMPI POP DUP1 ISZERO JUMPDEST ISZERO PUSH2 0x137 JUMPI TIMESTAMP PUSH1 0x2 SSTORE POP POP JUMP JUMPDEST PUSH2 0x140 DUP3 PUSH2 0x4FA JUMP JUMPDEST ISZERO PUSH2 0x1A6 JUMPI DUP1 PUSH2 0x168 JUMPI PUSH1 0x80 DUP3 ADD CALLDATALOAD ISZERO PUSH2 0x159 JUMPI TIMESTAMP PUSH1 0x2 SSTORE JUMPDEST POP DUP1 CALLDATALOAD PUSH1 0x1 SSTORE PUSH1 0x80 ADD CALLDATALOAD PUSH1 0x0 SSTORE JUMP JUMPDEST TIMESTAMP PUSH2 0x193 PUSH32 0x0 DUP4 PUSH2 0x97D JUMP JUMPDEST LT PUSH2 0x1A6 JUMPI DUP2 CALLDATALOAD PUSH1 0x1 SSTORE PUSH1 0x80 DUP3 ADD CALLDATALOAD PUSH1 0x0 SSTORE JUMPDEST POP POP JUMP JUMPDEST PUSH1 0x3 DUP2 PUSH1 0x5 DUP2 LT PUSH2 0x1BA JUMPI PUSH1 0x0 DUP1 REVERT JUMPDEST ADD SLOAD PUSH1 0x1 PUSH1 0x1 PUSH1 0xA0 SHL SUB AND SWAP1 POP DUP2 JUMP JUMPDEST PUSH1 0x2 SLOAD DUP1 ISZERO DUP1 ISZERO SWAP1 PUSH2 0x204 JUMPI POP TIMESTAMP PUSH2 0x202 PUSH32 0x0 DUP4 PUSH2 0x97D JUMP JUMPDEST LT JUMPDEST PUSH2 0x24A JUMPI PUSH1 0x40 MLOAD PUSH3 0x461BCD PUSH1 0xE5 SHL DUP2 MSTORE PUSH1 0x20 PUSH1 0x4 DUP3 ADD MSTORE PUSH1 0x12 PUSH1 0x24 DUP3 ADD MSTORE PUSH18 0x4E6F20656C61707365642064697370757465 PUSH1 0x70 SHL PUSH1 0x44 DUP3 ADD MSTORE PUSH1 0x64 ADD JUMPDEST PUSH1 0x40 MLOAD DUP1 SWAP2 SUB SWAP1 REVERT JUMPDEST PUSH1 0x0 SLOAD DUP4 ISZERO DUP1 ISZERO PUSH2 0x25E JUMPI POP DUP1 PUSH1 0x1 AND PUSH1 0x1 EQ JUMPDEST DUP1 ISZERO PUSH2 0x277 JUMPI POP PUSH1 0x3 PUSH1 0x0 ADD SLOAD PUSH1 0x1 PUSH1 0x1 PUSH1 0xA0 SHL SUB AND CALLER EQ JUMPDEST ISZERO PUSH2 0x288 JUMPI PUSH1 0x1 NOT AND PUSH1 0x2 OR PUSH2 0x475 JUMP JUMPDEST DUP4 PUSH1 0x1 EQ DUP1 ISZERO PUSH2 0x29B JUMPI POP DUP1 PUSH1 0x2 AND PUSH1 0x2 EQ JUMPDEST DUP1 ISZERO PUSH2 0x2B4 JUMPI POP PUSH1 0x3 PUSH1 0x1 ADD SLOAD PUSH1 0x1 PUSH1 0x1 PUSH1 0xA0 SHL SUB AND CALLER EQ JUMPDEST ISZERO PUSH2 0x2C5 JUMPI PUSH1 0x2 NOT AND PUSH1 0x4 OR PUSH2 0x475 JUMP JUMPDEST DUP4 PUSH1 0x2 EQ DUP1 ISZERO PUSH2 0x2D8 JUMPI POP DUP1 PUSH1 0x8 AND PUSH1 0x8 EQ JUMPDEST DUP1 ISZERO PUSH2 0x2F1 JUMPI POP PUSH1 0x3 PUSH1 0x1 ADD SLOAD PUSH1 0x1 PUSH1 0x1 PUSH1 0xA0 SHL SUB AND CALLER EQ JUMPDEST ISZERO PUSH2 0x2FF JUMPI PUSH1 0x8 NOT AND PUSH2 0x475 JUMP JUMPDEST DUP4 PUSH1 0x3 EQ DUP1 ISZERO PUSH2 0x312 JUMPI POP DUP1 PUSH1 0x4 AND PUSH1 0x4 EQ JUMPDEST DUP1 ISZERO PUSH2 0x32B JUMPI POP PUSH1 0x3 PUSH1 0x1 ADD SLOAD PUSH1 0x1 PUSH1 0x1 PUSH1 0xA0 SHL SUB AND CALLER EQ JUMPDEST ISZERO PUSH2 0x33C JUMPI PUSH1 0x4 NOT AND PUSH1 0x10 OR PUSH2 0x475 JUMP JUMPDEST DUP4 PUSH1 0x4 EQ DUP1 ISZERO PUSH2 0x34F JUMPI POP DUP1 PUSH1 0x20 AND PUSH1 0x20 EQ JUMPDEST DUP1 ISZERO PUSH2 0x368 JUMPI POP PUSH1 0x3 PUSH1 0x2 ADD SLOAD PUSH1 0x1 PUSH1 0x1 PUSH1 0xA0 SHL SUB AND CALLER EQ JUMPDEST ISZERO PUSH2 0x379 JUMPI PUSH1 0x20 NOT AND PUSH1 0x8 OR PUSH2 0x475 JUMP JUMPDEST DUP4 PUSH1 0x5 EQ DUP1 ISZERO PUSH2 0x38C JUMPI POP DUP1 PUSH1 0x10 AND PUSH1 0x10 EQ JUMPDEST DUP1 ISZERO PUSH2 0x3A5 JUMPI POP PUSH1 0x3 PUSH1 0x2 ADD SLOAD PUSH1 0x1 PUSH1 0x1 PUSH1 0xA0 SHL SUB AND CALLER EQ JUMPDEST ISZERO PUSH2 0x3B6 JUMPI PUSH1 0x10 NOT AND PUSH1 0x40 OR PUSH2 0x475 JUMP JUMPDEST DUP4 PUSH1 0x6 EQ DUP1 ISZERO PUSH2 0x3C9 JUMPI POP DUP1 PUSH1 0x40 AND PUSH1 0x40 EQ JUMPDEST DUP1 ISZERO PUSH2 0x3E1 JUMPI POP PUSH1 0x3 DUP1 ADD SLOAD PUSH1 0x1 PUSH1 0x1 PUSH1 0xA0 SHL SUB AND CALLER EQ JUMPDEST ISZERO PUSH2 0x3F2 JUMPI PUSH1 0x40 NOT AND PUSH1 0x80 OR PUSH2 0x475 JUMP JUMPDEST DUP4 PUSH1 0x7 EQ DUP1 ISZERO PUSH2 0x405 JUMPI POP DUP1 PUSH1 0x80 AND PUSH1 0x80 EQ JUMPDEST DUP1 ISZERO PUSH2 0x41E JUMPI POP PUSH1 0x3 PUSH1 0x4 ADD SLOAD PUSH1 0x1 PUSH1 0x1 PUSH1 0xA0 SHL SUB AND CALLER EQ JUMPDEST ISZERO PUSH2 0x430 JUMPI PUSH1 0x80 NOT AND PUSH2 0x100 OR PUSH2 0x475 JUMP JUMPDEST DUP4 PUSH1 0x8 EQ DUP1 ISZERO PUSH2 0x445 JUMPI POP DUP1 PUSH2 0x100 AND PUSH2 0x100 EQ JUMPDEST DUP1 ISZERO PUSH2 0x45D JUMPI POP PUSH1 0x3 DUP1 ADD SLOAD PUSH1 0x1 PUSH1 0x1 PUSH1 0xA0 SHL SUB AND CALLER EQ JUMPDEST ISZERO PUSH2 0x46F JUMPI PUSH2 0x100 NOT AND PUSH1 0x20 OR PUSH2 0x475 JUMP JUMPDEST POP POP POP POP JUMP JUMPDEST JUMPDEST DUP1 ISZERO PUSH2 0x4F2 JUMPI DUP3 PUSH1 0x1 AND PUSH1 0x1 EQ DUP1 ISZERO PUSH2 0x492 JUMPI POP DUP1 PUSH1 0x10 AND PUSH1 0x10 EQ JUMPDEST ISZERO PUSH2 0x4A3 JUMPI PUSH1 0x10 NOT AND PUSH1 0x20 OR PUSH2 0x476 JUMP JUMPDEST DUP3 PUSH1 0x2 AND PUSH1 0x2 EQ DUP1 ISZERO PUSH2 0x4B9 JUMPI POP DUP1 PUSH1 0x40 AND PUSH1 0x40 EQ JUMPDEST ISZERO PUSH2 0x4CB JUMPI PUSH1 0x40 NOT AND PUSH2 0x100 OR PUSH2 0x476 JUMP JUMPDEST DUP3 PUSH1 0x4 AND PUSH1 0x4 EQ DUP1 ISZERO PUSH2 0x4E1 JUMPI POP DUP1 PUSH1 0x4 AND PUSH1 0x4 EQ JUMPDEST ISZERO PUSH2 0x4F2 JUMPI PUSH1 0x4 NOT AND PUSH1 0x8 OR PUSH2 0x476 JUMP JUMPDEST PUSH1 0x0 SSTORE POP POP POP JUMP JUMPDEST PUSH1 0x0 DUP2 PUSH1 0x0 ADD CALLDATALOAD PUSH1 0x1 SLOAD LT PUSH2 0x511 JUMPI POP PUSH1 0x0 SWAP2 SWAP1 POP JUMP JUMPDEST PUSH1 0x40 DUP1 MLOAD DUP4 CALLDATALOAD PUSH1 0x20 DUP3 DUP2 ADD SWAP2 SWAP1 SWAP2 MSTORE DUP5 ADD CALLDATALOAD DUP2 DUP4 ADD MSTORE SWAP1 DUP4 ADD CALLDATALOAD PUSH1 0x60 DUP3 DUP2 ADD SWAP2 SWAP1 SWAP2 MSTORE DUP4 ADD CALLDATALOAD PUSH1 0x80 DUP3 DUP2 ADD SWAP2 SWAP1 SWAP2 MSTORE DUP4 ADD CALLDATALOAD PUSH1 0xA0 DUP3 DUP2 ADD SWAP2 SWAP1 SWAP2 MSTORE DUP4 ADD CALLDATALOAD PUSH1 0xC0 DUP3 ADD MSTORE PUSH1 0x0 SWAP1 PUSH1 0xE0 ADD PUSH1 0x40 MLOAD PUSH1 0x20 DUP2 DUP4 SUB SUB DUP2 MSTORE SWAP1 PUSH1 0x40 MSTORE DUP1 MLOAD SWAP1 PUSH1 0x20 ADD KECCAK256 SWAP1 POP PUSH1 0x0 JUMPDEST PUSH1 0x5 DUP2 LT ISZERO PUSH2 0x63D JUMPI PUSH1 0x3 DUP2 PUSH1 0x5 DUP2 LT PUSH2 0x591 JUMPI PUSH2 0x591 PUSH2 0x995 JUMP JUMPDEST ADD SLOAD PUSH1 0x1 PUSH1 0x1 PUSH1 0xA0 SHL SUB AND PUSH2 0x613 PUSH2 0x5AC PUSH1 0xC0 DUP8 ADD DUP8 PUSH2 0x9AB JUMP JUMPDEST DUP4 PUSH1 0x5 DUP2 LT PUSH2 0x5BD JUMPI PUSH2 0x5BD PUSH2 0x995 JUMP JUMPDEST PUSH1 0x20 MUL DUP2 ADD SWAP1 PUSH2 0x5CD SWAP2 SWAP1 PUSH2 0x9CB JUMP JUMPDEST DUP1 DUP1 PUSH1 0x1F ADD PUSH1 0x20 DUP1 SWAP2 DIV MUL PUSH1 0x20 ADD PUSH1 0x40 MLOAD SWAP1 DUP2 ADD PUSH1 0x40 MSTORE DUP1 SWAP4 SWAP3 SWAP2 SWAP1 DUP2 DUP2 MSTORE PUSH1 0x20 ADD DUP4 DUP4 DUP1 DUP3 DUP5 CALLDATACOPY PUSH1 0x0 SWAP3 ADD SWAP2 SWAP1 SWAP2 MSTORE POP PUSH2 0x60D SWAP3 POP DUP8 SWAP2 POP PUSH2 0x647 SWAP1 POP JUMP JUMPDEST SWAP1 PUSH2 0x67A JUMP JUMPDEST PUSH1 0x1 PUSH1 0x1 PUSH1 0xA0 SHL SUB AND EQ PUSH2 0x62B JUMPI POP PUSH1 0x0 SWAP4 SWAP3 POP POP POP JUMP JUMPDEST DUP1 PUSH2 0x635 DUP2 PUSH2 0xA12 JUMP JUMPDEST SWAP2 POP POP PUSH2 0x575 JUMP JUMPDEST POP PUSH1 0x1 SWAP4 SWAP3 POP POP POP JUMP JUMPDEST PUSH32 0x19457468657265756D205369676E6564204D6573736167653A0A333200000000 PUSH1 0x0 SWAP1 DUP2 MSTORE PUSH1 0x1C SWAP2 SWAP1 SWAP2 MSTORE PUSH1 0x3C SWAP1 KECCAK256 SWAP1 JUMP JUMPDEST PUSH1 0x0 DUP1 PUSH1 0x0 PUSH2 0x689 DUP6 DUP6 PUSH2 0x69E JUMP JUMPDEST SWAP2 POP SWAP2 POP PUSH2 0x696 DUP2 PUSH2 0x6E4 JUMP JUMPDEST POP SWAP4 SWAP3 POP POP POP JUMP JUMPDEST PUSH1 0x0 DUP1 DUP3 MLOAD PUSH1 0x41 EQ ISZERO PUSH2 0x6D5 JUMPI PUSH1 0x20 DUP4 ADD MLOAD PUSH1 0x40 DUP5 ADD MLOAD PUSH1 0x60 DUP6 ADD MLOAD PUSH1 0x0 BYTE PUSH2 0x6C9 DUP8 DUP3 DUP6 DUP6 PUSH2 0x830 JUMP JUMPDEST SWAP5 POP SWAP5 POP POP POP POP PUSH2 0x6DD JUMP JUMPDEST POP PUSH1 0x0 SWAP1 POP PUSH1 0x2 JUMPDEST SWAP3 POP SWAP3 SWAP1 POP JUMP JUMPDEST PUSH1 0x0 DUP2 PUSH1 0x4 DUP2 GT ISZERO PUSH2 0x6F8 JUMPI PUSH2 0x6F8 PUSH2 0xA2D JUMP JUMPDEST EQ ISZERO PUSH2 0x701 JUMPI POP JUMP JUMPDEST PUSH1 0x1 DUP2 PUSH1 0x4 DUP2 GT ISZERO PUSH2 0x715 JUMPI PUSH2 0x715 PUSH2 0xA2D JUMP JUMPDEST EQ ISZERO PUSH2 0x75E JUMPI PUSH1 0x40 MLOAD PUSH3 0x461BCD PUSH1 0xE5 SHL DUP2 MSTORE PUSH1 0x20 PUSH1 0x4 DUP3 ADD MSTORE PUSH1 0x18 PUSH1 0x24 DUP3 ADD MSTORE PUSH24 0x45434453413A20696E76616C6964207369676E6174757265 PUSH1 0x40 SHL PUSH1 0x44 DUP3 ADD MSTORE PUSH1 0x64 ADD PUSH2 0x241 JUMP JUMPDEST PUSH1 0x2 DUP2 PUSH1 0x4 DUP2 GT ISZERO PUSH2 0x772 JUMPI PUSH2 0x772 PUSH2 0xA2D JUMP JUMPDEST EQ ISZERO PUSH2 0x7C0 JUMPI PUSH1 0x40 MLOAD PUSH3 0x461BCD PUSH1 0xE5 SHL DUP2 MSTORE PUSH1 0x20 PUSH1 0x4 DUP3 ADD MSTORE PUSH1 0x1F PUSH1 0x24 DUP3 ADD MSTORE PUSH32 0x45434453413A20696E76616C6964207369676E6174757265206C656E67746800 PUSH1 0x44 DUP3 ADD MSTORE PUSH1 0x64 ADD PUSH2 0x241 JUMP JUMPDEST PUSH1 0x3 DUP2 PUSH1 0x4 DUP2 GT ISZERO PUSH2 0x7D4 JUMPI PUSH2 0x7D4 PUSH2 0xA2D JUMP JUMPDEST EQ ISZERO PUSH2 0x82D JUMPI PUSH1 0x40 MLOAD PUSH3 0x461BCD PUSH1 0xE5 SHL DUP2 MSTORE PUSH1 0x20 PUSH1 0x4 DUP3 ADD MSTORE PUSH1 0x22 PUSH1 0x24 DUP3 ADD MSTORE PUSH32 0x45434453413A20696E76616C6964207369676E6174757265202773272076616C PUSH1 0x44 DUP3 ADD MSTORE PUSH2 0x7565 PUSH1 0xF0 SHL PUSH1 0x64 DUP3 ADD MSTORE PUSH1 0x84 ADD PUSH2 0x241 JUMP JUMPDEST POP JUMP JUMPDEST PUSH1 0x0 DUP1 PUSH16 0xA2A8918CA85BAFE22016D0B997E4DF60 PUSH1 0x1 PUSH1 0xFF SHL SUB DUP4 GT ISZERO PUSH2 0x85D JUMPI POP PUSH1 0x0 SWAP1 POP PUSH1 0x3 PUSH2 0x8E1 JUMP JUMPDEST PUSH1 0x40 DUP1 MLOAD PUSH1 0x0 DUP1 DUP3 MSTORE PUSH1 0x20 DUP3 ADD DUP1 DUP5 MSTORE DUP10 SWAP1 MSTORE PUSH1 0xFF DUP9 AND SWAP3 DUP3 ADD SWAP3 SWAP1 SWAP3 MSTORE PUSH1 0x60 DUP2 ADD DUP7 SWAP1 MSTORE PUSH1 0x80 DUP2 ADD DUP6 SWAP1 MSTORE PUSH1 0x1 SWAP1 PUSH1 0xA0 ADD PUSH1 0x20 PUSH1 0x40 MLOAD PUSH1 0x20 DUP2 SUB SWAP1 DUP1 DUP5 SUB SWAP1 DUP6 GAS STATICCALL ISZERO DUP1 ISZERO PUSH2 0x8B1 JUMPI RETURNDATASIZE PUSH1 0x0 DUP1 RETURNDATACOPY RETURNDATASIZE PUSH1 0x0 REVERT JUMPDEST POP POP PUSH1 0x40 MLOAD PUSH1 0x1F NOT ADD MLOAD SWAP2 POP POP PUSH1 0x1 PUSH1 0x1 PUSH1 0xA0 SHL SUB DUP2 AND PUSH2 0x8DA JUMPI PUSH1 0x0 PUSH1 0x1 SWAP3 POP SWAP3 POP POP PUSH2 0x8E1 JUMP JUMPDEST SWAP2 POP PUSH1 0x0 SWAP1 POP JUMPDEST SWAP5 POP SWAP5 SWAP3 POP POP POP JUMP JUMPDEST PUSH1 0x0 PUSH1 0x20 DUP3 DUP5 SUB SLT ISZERO PUSH2 0x8FC JUMPI PUSH1 0x0 DUP1 REVERT JUMPDEST DUP2 CALLDATALOAD PUSH8 0xFFFFFFFFFFFFFFFF DUP2 GT ISZERO PUSH2 0x913 JUMPI PUSH1 0x0 DUP1 REVERT JUMPDEST DUP3 ADD PUSH1 0xE0 DUP2 DUP6 SUB SLT ISZERO PUSH2 0x925 JUMPI PUSH1 0x0 DUP1 REVERT JUMPDEST SWAP4 SWAP3 POP POP POP JUMP JUMPDEST PUSH1 0x0 PUSH1 0x20 DUP3 DUP5 SUB SLT ISZERO PUSH2 0x93E JUMPI PUSH1 0x0 DUP1 REVERT JUMPDEST POP CALLDATALOAD SWAP2 SWAP1 POP JUMP JUMPDEST PUSH1 0x0 DUP1 PUSH1 0x40 DUP4 DUP6 SUB SLT ISZERO PUSH2 0x958 JUMPI PUSH1 0x0 DUP1 REVERT JUMPDEST POP POP DUP1 CALLDATALOAD SWAP3 PUSH1 0x20 SWAP1 SWAP2 ADD CALLDATALOAD SWAP2 POP JUMP JUMPDEST PUSH4 0x4E487B71 PUSH1 0xE0 SHL PUSH1 0x0 MSTORE PUSH1 0x11 PUSH1 0x4 MSTORE PUSH1 0x24 PUSH1 0x0 REVERT JUMPDEST PUSH1 0x0 DUP3 NOT DUP3 GT ISZERO PUSH2 0x990 JUMPI PUSH2 0x990 PUSH2 0x967 JUMP JUMPDEST POP ADD SWAP1 JUMP JUMPDEST PUSH4 0x4E487B71 PUSH1 0xE0 SHL PUSH1 0x0 MSTORE PUSH1 0x32 PUSH1 0x4 MSTORE PUSH1 0x24 PUSH1 0x0 REVERT JUMPDEST PUSH1 0x0 DUP3 CALLDATALOAD PUSH1 0x9E NOT DUP4 CALLDATASIZE SUB ADD DUP2 SLT PUSH2 0x9C1 JUMPI PUSH1 0x0 DUP1 REVERT JUMPDEST SWAP2 SWAP1 SWAP2 ADD SWAP3 SWAP2 POP POP JUMP JUMPDEST PUSH1 0x0 DUP1 DUP4 CALLDATALOAD PUSH1 0x1E NOT DUP5 CALLDATASIZE SUB ADD DUP2 SLT PUSH2 0x9E2 JUMPI PUSH1 0x0 DUP1 REVERT JUMPDEST DUP4 ADD DUP1 CALLDATALOAD SWAP2 POP PUSH8 0xFFFFFFFFFFFFFFFF DUP3 GT ISZERO PUSH2 0x9FD JUMPI PUSH1 0x0 DUP1 REVERT JUMPDEST PUSH1 0x20 ADD SWAP2 POP CALLDATASIZE DUP2 SWAP1 SUB DUP3 SGT ISZERO PUSH2 0x6DD JUMPI PUSH1 0x0 DUP1 REVERT JUMPDEST PUSH1 0x0 PUSH1 0x0 NOT DUP3 EQ ISZERO PUSH2 0xA26 JUMPI PUSH2 0xA26 PUSH2 0x967 JUMP JUMPDEST POP PUSH1 0x1 ADD SWAP1 JUMP JUMPDEST PUSH4 0x4E487B71 PUSH1 0xE0 SHL PUSH1 0x0 MSTORE PUSH1 0x21 PUSH1 0x4 MSTORE PUSH1 0x24 PUSH1 0x0 REVERT INVALID LOG2 PUSH5 0x6970667358 0x22 SLT KECCAK256 0xD9 CHAINID AND STATICCALL PUSH9 0xD43960F35C00AD2B6F 0x4D 0xB7 LOG1 0x2C EXTCODECOPY PUSH29 0x33B882DC712A3D1BAEC7816864736F6C63430008090033000000000000 "
    }
  }
}