{
  "abi": [
    {
      "inputs": [
        {
          "internalType": "address[5]",
          "name": "_participants",
          "type": "address[5]"
        }
      ],
      "stateMutability": "nonpayable",
      "type": "constructor"
    },
    {
      "inputs": [
        {
          "internalType": "uint256",
          "name": "id",
          "type": "uint256"
        }
      ],
      "name": "enact",
      "outputs": [],
      "stateMutability": "nonpayable",
      "type": "function"
    },
    {
      "inputs": [
        {
          "internalType": "uint256",
          "name": "",
          "type": "uint256"
        }
      ],
      "name": "participants",
      "outputs": [
        {
          "internalType": "address",
          "name": "",
          "type": "address"
        }
      ],
      "stateMutability": "view",
      "type": "function"
    },
    {
      "inputs": [],
      "name": "tokenState",
      "outputs": [
        {
          "internalType": "uint256",
          "name": "",
          "type": "uint256"
        }
      ],
      "stateMutability": "view",
      "type": "function"
    }
  ],
  "evm": {
    "bytecode": {
      "linkReferences": {},
      "object": "6080604052600160005534801561001557600080fd5b50604051610435380380610435833981016040819052610034916100d1565b6100416001826005610048565b5050610163565b8260058101928215610090579160200282015b8281111561009057825182546001600160a01b0319166001600160a01b0390911617825560209092019160019091019061005b565b5061009c9291506100a0565b5090565b5b8082111561009c57600081556001016100a1565b80516001600160a01b03811681146100cc57600080fd5b919050565b600060a082840312156100e357600080fd5b82601f8301126100f257600080fd5b60405160a081016001600160401b038111828210171561012257634e487b7160e01b600052604160045260246000fd5b6040528060a084018581111561013757600080fd5b845b818110156101585761014a816100b5565b835260209283019201610139565b509195945050505050565b6102c3806101726000396000f3fe608060405234801561001057600080fd5b50600436106100415760003560e01c806335c1d349146100465780635e9cc2a914610076578063e90dd9e21461008b575b600080fd5b610059610054366004610274565b6100a2565b6040516001600160a01b0390911681526020015b60405180910390f35b610089610084366004610274565b6100c2565b005b61009460005481565b60405190815260200161006d565b600181600581106100b257600080fd5b01546001600160a01b0316905081565b600054811580156100d65750806002166002145b80156100ef57506001600301546001600160a01b031633145b15610100576002191660041761026e565b8160011480156101135750806008166008145b801561012c57506001600401546001600160a01b031633145b1561013a576008191661026e565b81600214801561014d5750806004166004145b801561016657506001600401546001600160a01b031633145b15610177576004191660101761026e565b81600314801561018a5750806001166001145b80156101a357506001600001546001600160a01b031633145b156101b4576001191660021761026e565b8160041480156101c75750806020166020145b80156101df575060018001546001600160a01b031633145b156101f0576020191660401761026e565b8160051480156102035750806040166040145b801561021c57506001600401546001600160a01b031633145b1561022d576040191660081761026e565b8160061480156102405750806010166010145b801561025957506001600201546001600160a01b031633145b1561026a576010191660201761026e565b5050565b60005550565b60006020828403121561028657600080fd5b503591905056fea264697066735822122062436405dc05658281c932f76fa45f5fb16adf695163bd732c45be12a3a2655064736f6c63430008090033",
      "opcodes": "PUSH1 0x80 PUSH1 0x40 MSTORE PUSH1 0x1 PUSH1 0x0 SSTORE CALLVALUE DUP1 ISZERO PUSH2 0x15 JUMPI PUSH1 0x0 DUP1 REVERT JUMPDEST POP PUSH1 0x40 MLOAD PUSH2 0x435 CODESIZE SUB DUP1 PUSH2 0x435 DUP4 CODECOPY DUP2 ADD PUSH1 0x40 DUP2 SWAP1 MSTORE PUSH2 0x34 SWAP2 PUSH2 0xD1 JUMP JUMPDEST PUSH2 0x41 PUSH1 0x1 DUP3 PUSH1 0x5 PUSH2 0x48 JUMP JUMPDEST POP POP PUSH2 0x163 JUMP JUMPDEST DUP3 PUSH1 0x5 DUP2 ADD SWAP3 DUP3 ISZERO PUSH2 0x90 JUMPI SWAP2 PUSH1 0x20 MUL DUP3 ADD JUMPDEST DUP3 DUP2 GT ISZERO PUSH2 0x90 JUMPI DUP3 MLOAD DUP3 SLOAD PUSH1 0x1 PUSH1 0x1 PUSH1 0xA0 SHL SUB NOT AND PUSH1 0x1 PUSH1 0x1 PUSH1 0xA0 SHL SUB SWAP1 SWAP2 AND OR DUP3 SSTORE PUSH1 0x20 SWAP1 SWAP3 ADD SWAP2 PUSH1 0x1 SWAP1 SWAP2 ADD SWAP1 PUSH2 0x5B JUMP JUMPDEST POP PUSH2 0x9C SWAP3 SWAP2 POP PUSH2 0xA0 JUMP JUMPDEST POP SWAP1 JUMP JUMPDEST JUMPDEST DUP1 DUP3 GT ISZERO PUSH2 0x9C JUMPI PUSH1 0x0 DUP2 SSTORE PUSH1 0x1 ADD PUSH2 0xA1 JUMP JUMPDEST DUP1 MLOAD PUSH1 0x1 PUSH1 0x1 PUSH1 0xA0 SHL SUB DUP2 AND DUP2 EQ PUSH2 0xCC JUMPI PUSH1 0x0 DUP1 REVERT JUMPDEST SWAP2 SWAP1 POP JUMP JUMPDEST PUSH1 0x0 PUSH1 0xA0 DUP3 DUP5 SUB SLT ISZERO PUSH2 0xE3 JUMPI PUSH1 0x0 DUP1 REVERT JUMPDEST DUP3 PUSH1 0x1F DUP4 ADD SLT PUSH2 0xF2 JUMPI PUSH1 0x0 DUP1 REVERT JUMPDEST PUSH1 0x40 MLOAD PUSH1 0xA0 DUP2 ADD PUSH1 0x1 PUSH1 0x1 PUSH1 0x40 SHL SUB DUP2 GT DUP3 DUP3 LT OR ISZERO PUSH2 0x122 JUMPI PUSH4 0x4E487B71 PUSH1 0xE0 SHL PUSH1 0x0 MSTORE PUSH1 0x41 PUSH1 0x4 MSTORE PUSH1 0x24 PUSH1 0x0 REVERT JUMPDEST PUSH1 0x40 MSTORE DUP1 PUSH1 0xA0 DUP5 ADD DUP6 DUP2 GT ISZERO PUSH2 0x137 JUMPI PUSH1 0x0 DUP1 REVERT JUMPDEST DUP5 JUMPDEST DUP2 DUP2 LT ISZERO PUSH2 0x158 JUMPI PUSH2 0x14A DUP2 PUSH2 0xB5 JUMP JUMPDEST DUP4 MSTORE PUSH1 0x20 SWAP3 DUP4 ADD SWAP3 ADD PUSH2 0x139 JUMP JUMPDEST POP SWAP2 SWAP6 SWAP5 POP POP POP POP POP JUMP JUMPDEST PUSH2 0x2C3 DUP1 PUSH2 0x172 PUSH1 0x0 CODECOPY PUSH1 0x0 RETURN INVALID PUSH1 0x80 PUSH1 0x40 MSTORE CALLVALUE DUP1 ISZERO PUSH2 0x10 JUMPI PUSH1 0x0 DUP1 REVERT JUMPDEST POP PUSH1 0x4 CALLDATASIZE LT PUSH2 0x41 JUMPI PUSH1 0x0 CALLDATALOAD PUSH1 0xE0 SHR DUP1 PUSH4 0x35C1D349 EQ PUSH2 0x46 JUMPI DUP1 PUSH4 0x5E9CC2A9 EQ PUSH2 0x76 JUMPI DUP1 PUSH4 0xE90DD9E2 EQ PUSH2 0x8B JUMPI JUMPDEST PUSH1 0x0 DUP1 REVERT JUMPDEST PUSH2 0x59 PUSH2 0x54 CALLDATASIZE PUSH1 0x4 PUSH2 0x274 JUMP JUMPDEST PUSH2 0xA2 JUMP JUMPDEST PUSH1 0x40 MLOAD PUSH1 0x1 PUSH1 0x1 PUSH1 0xA0 SHL SUB SWAP1 SWAP2 AND DUP2 MSTORE PUSH1 0x20 ADD JUMPDEST PUSH1 0x40 MLOAD DUP1 SWAP2 SUB SWAP1 RETURN JUMPDEST PUSH2 0x89 PUSH2 0x84 CALLDATASIZE PUSH1 0x4 PUSH2 0x274 JUMP JUMPDEST PUSH2 0xC2 JUMP JUMPDEST STOP JUMPDEST PUSH2 0x94 PUSH1 0x0 SLOAD DUP2 JUMP JUMPDEST PUSH1 0x40 MLOAD SWAP1 DUP2 MSTORE PUSH1 0x20 ADD PUSH2 0x6D JUMP JUMPDEST PUSH1 0x1 DUP2 PUSH1 0x5 DUP2 LT PUSH2 0xB2 JUMPI PUSH1 0x0 DUP1 REVERT JUMPDEST ADD SLOAD PUSH1 0x1 PUSH1 0x1 PUSH1 0xA0 SHL SUB AND SWAP1 POP DUP2 JUMP JUMPDEST PUSH1 0x0 SLOAD DUP2 ISZERO DUP1 ISZERO PUSH2 0xD6 JUMPI POP DUP1 PUSH1 0x2 AND PUSH1 0x2 EQ JUMPDEST DUP1 ISZERO PUSH2 0xEF JUMPI POP PUSH1 0x1 PUSH1 0x3 ADD SLOAD PUSH1 0x1 PUSH1 0x1 PUSH1 0xA0 SHL SUB AND CALLER EQ JUMPDEST ISZERO PUSH2 0x100 JUMPI PUSH1 0x2 NOT AND PUSH1 0x4 OR PUSH2 0x26E JUMP JUMPDEST DUP2 PUSH1 0x1 EQ DUP1 ISZERO PUSH2 0x113 JUMPI POP DUP1 PUSH1 0x8 AND PUSH1 0x8 EQ JUMPDEST DUP1 ISZERO PUSH2 0x12C JUMPI POP PUSH1 0x1 PUSH1 0x4 ADD SLOAD PUSH1 0x1 PUSH1 0x1 PUSH1 0xA0 SHL SUB AND CALLER EQ JUMPDEST ISZERO PUSH2 0x13A JUMPI PUSH1 0x8 NOT AND PUSH2 0x26E JUMP JUMPDEST DUP2 PUSH1 0x2 EQ DUP1 ISZERO PUSH2 0x14D JUMPI POP DUP1 PUSH1 0x4 AND PUSH1 0x4 EQ JUMPDEST DUP1 ISZERO PUSH2 0x166 JUMPI POP PUSH1 0x1 PUSH1 0x4 ADD SLOAD PUSH1 0x1 PUSH1 0x1 PUSH1 0xA0 SHL SUB AND CALLER EQ JUMPDEST ISZERO PUSH2 0x177 JUMPI PUSH1 0x4 NOT AND PUSH1 0x10 OR PUSH2 0x26E JUMP JUMPDEST DUP2 PUSH1 0x3 EQ DUP1 ISZERO PUSH2 0x18A JUMPI POP DUP1 PUSH1 0x1 AND PUSH1 0x1 EQ JUMPDEST DUP1 ISZERO PUSH2 0x1A3 JUMPI POP PUSH1 0x1 PUSH1 0x0 ADD SLOAD PUSH1 0x1 PUSH1 0x1 PUSH1 0xA0 SHL SUB AND CALLER EQ JUMPDEST ISZERO PUSH2 0x1B4 JUMPI PUSH1 0x1 NOT AND PUSH1 0x2 OR PUSH2 0x26E JUMP JUMPDEST DUP2 PUSH1 0x4 EQ DUP1 ISZERO PUSH2 0x1C7 JUMPI POP DUP1 PUSH1 0x20 AND PUSH1 0x20 EQ JUMPDEST DUP1 ISZERO PUSH2 0x1DF JUMPI POP PUSH1 0x1 DUP1 ADD SLOAD PUSH1 0x1 PUSH1 0x1 PUSH1 0xA0 SHL SUB AND CALLER EQ JUMPDEST ISZERO PUSH2 0x1F0 JUMPI PUSH1 0x20 NOT AND PUSH1 0x40 OR PUSH2 0x26E JUMP JUMPDEST DUP2 PUSH1 0x5 EQ DUP1 ISZERO PUSH2 0x203 JUMPI POP DUP1 PUSH1 0x40 AND PUSH1 0x40 EQ JUMPDEST DUP1 ISZERO PUSH2 0x21C JUMPI POP PUSH1 0x1 PUSH1 0x4 ADD SLOAD PUSH1 0x1 PUSH1 0x1 PUSH1 0xA0 SHL SUB AND CALLER EQ JUMPDEST ISZERO PUSH2 0x22D JUMPI PUSH1 0x40 NOT AND PUSH1 0x8 OR PUSH2 0x26E JUMP JUMPDEST DUP2 PUSH1 0x6 EQ DUP1 ISZERO PUSH2 0x240 JUMPI POP DUP1 PUSH1 0x10 AND PUSH1 0x10 EQ JUMPDEST DUP1 ISZERO PUSH2 0x259 JUMPI POP PUSH1 0x1 PUSH1 0x2 ADD SLOAD PUSH1 0x1 PUSH1 0x1 PUSH1 0xA0 SHL SUB AND CALLER EQ JUMPDEST ISZERO PUSH2 0x26A JUMPI PUSH1 0x10 NOT AND PUSH1 0x20 OR PUSH2 0x26E JUMP JUMPDEST POP POP JUMP JUMPDEST PUSH1 0x0 SSTORE POP JUMP JUMPDEST PUSH1 0x0 PUSH1 0x20 DUP3 DUP5 SUB SLT ISZERO PUSH2 0x286 JUMPI PUSH1 0x0 DUP1 REVERT JUMPDEST POP CALLDATALOAD SWAP2 SWAP1 POP JUMP INVALID LOG2 PUSH5 0x6970667358 0x22 SLT KECCAK256 PUSH3 0x436405 0xDC SDIV PUSH6 0x8281C932F76F LOG4 0x5F 0x5F 0xB1 PUSH11 0xDF695163BD732C45BE12A3 LOG2 PUSH6 0x5064736F6C63 NUMBER STOP ADDMOD MULMOD STOP CALLER "
    }
  }
}