{
  "abi": [
    {
      "inputs": [
        {
          "internalType": "address[3]",
          "name": "_participants",
          "type": "address[3]"
        }
      ],
      "stateMutability": "nonpayable",
      "type": "constructor"
    },
    {
      "inputs": [
        {
          "internalType": "uint256",
          "name": "id",
          "type": "uint256"
        }
      ],
      "name": "enact",
      "outputs": [],
      "stateMutability": "nonpayable",
      "type": "function"
    },
    {
      "inputs": [],
      "name": "items",
      "outputs": [
        {
          "internalType": "bool",
          "name": "",
          "type": "bool"
        }
      ],
      "stateMutability": "view",
      "type": "function"
    },
    {
      "inputs": [
        {
          "internalType": "uint256",
          "name": "",
          "type": "uint256"
        }
      ],
      "name": "participants",
      "outputs": [
        {
          "internalType": "address",
          "name": "",
          "type": "address"
        }
      ],
      "stateMutability": "view",
      "type": "function"
    },
    {
      "inputs": [],
      "name": "tokenState",
      "outputs": [
        {
          "internalType": "uint256",
          "name": "",
          "type": "uint256"
        }
      ],
      "stateMutability": "view",
      "type": "function"
    }
  ],
  "evm": {
    "bytecode": {
      "linkReferences": {},
      "object": "608060405260016000556004805460ff1916905534801561001f57600080fd5b506040516103ef3803806103ef83398101604081905261003e916100db565b61004b6001826003610052565b505061016d565b826003810192821561009a579160200282015b8281111561009a57825182546001600160a01b0319166001600160a01b03909116178255602090920191600190910190610065565b506100a69291506100aa565b5090565b5b808211156100a657600081556001016100ab565b80516001600160a01b03811681146100d657600080fd5b919050565b6000606082840312156100ed57600080fd5b82601f8301126100fc57600080fd5b604051606081016001600160401b038111828210171561012c57634e487b7160e01b600052604160045260246000fd5b60405280606084018581111561014157600080fd5b845b8181101561016257610154816100bf565b835260209283019201610143565b509195945050505050565b6102738061017c6000396000f3fe608060405234801561001057600080fd5b506004361061004c5760003560e01c806335c1d349146100515780635e9cc2a914610081578063c06fad0614610096578063e90dd9e2146100b3575b600080fd5b61006461005f366004610224565b6100ca565b6040516001600160a01b0390911681526020015b60405180910390f35b61009461008f366004610224565b6100ea565b005b6004546100a39060ff1681565b6040519015158152602001610078565b6100bc60005481565b604051908152602001610078565b600181600381106100da57600080fd5b01546001600160a01b0316905081565b6000545b8015610118578160031480156101075750806002166002145b1561011857600219166008176100ee565b811580156101295750806001166001145b801561014257506001600001546001600160a01b031633145b15610153576001191660021761021e565b60045460ff161515600114801561016a5750816001145b80156101795750806002166002145b801561019257506001600001546001600160a01b031633145b156101a3576002191660041761021e565b8160021480156101b65750806004166004145b80156101cf57506001600001546001600160a01b031633145b156101e0576004191660081761021e565b8160031480156101f35750806008166008145b801561020c57506001600001546001600160a01b031633145b1561021a576008191661021e565b5050565b60005550565b60006020828403121561023657600080fd5b503591905056fea2646970667358221220e3455935aae6e150db9d97e9ac93dfc4736acc6c01056f91f1ac9e4d4a9cfa8964736f6c63430008090033",
      "opcodes": "PUSH1 0x80 PUSH1 0x40 MSTORE PUSH1 0x1 PUSH1 0x0 SSTORE PUSH1 0x4 DUP1 SLOAD PUSH1 0xFF NOT AND SWAP1 SSTORE CALLVALUE DUP1 ISZERO PUSH2 0x1F JUMPI PUSH1 0x0 DUP1 REVERT JUMPDEST POP PUSH1 0x40 MLOAD PUSH2 0x3EF CODESIZE SUB DUP1 PUSH2 0x3EF DUP4 CODECOPY DUP2 ADD PUSH1 0x40 DUP2 SWAP1 MSTORE PUSH2 0x3E SWAP2 PUSH2 0xDB JUMP JUMPDEST PUSH2 0x4B PUSH1 0x1 DUP3 PUSH1 0x3 PUSH2 0x52 JUMP JUMPDEST POP POP PUSH2 0x16D JUMP JUMPDEST DUP3 PUSH1 0x3 DUP2 ADD SWAP3 DUP3 ISZERO PUSH2 0x9A JUMPI SWAP2 PUSH1 0x20 MUL DUP3 ADD JUMPDEST DUP3 DUP2 GT ISZERO PUSH2 0x9A JUMPI DUP3 MLOAD DUP3 SLOAD PUSH1 0x1 PUSH1 0x1 PUSH1 0xA0 SHL SUB NOT AND PUSH1 0x1 PUSH1 0x1 PUSH1 0xA0 SHL SUB SWAP1 SWAP2 AND OR DUP3 SSTORE PUSH1 0x20 SWAP1 SWAP3 ADD SWAP2 PUSH1 0x1 SWAP1 SWAP2 ADD SWAP1 PUSH2 0x65 JUMP JUMPDEST POP PUSH2 0xA6 SWAP3 SWAP2 POP PUSH2 0xAA JUMP JUMPDEST POP SWAP1 JUMP JUMPDEST JUMPDEST DUP1 DUP3 GT ISZERO PUSH2 0xA6 JUMPI PUSH1 0x0 DUP2 SSTORE PUSH1 0x1 ADD PUSH2 0xAB JUMP JUMPDEST DUP1 MLOAD PUSH1 0x1 PUSH1 0x1 PUSH1 0xA0 SHL SUB DUP2 AND DUP2 EQ PUSH2 0xD6 JUMPI PUSH1 0x0 DUP1 REVERT JUMPDEST SWAP2 SWAP1 POP JUMP JUMPDEST PUSH1 0x0 PUSH1 0x60 DUP3 DUP5 SUB SLT ISZERO PUSH2 0xED JUMPI PUSH1 0x0 DUP1 REVERT JUMPDEST DUP3 PUSH1 0x1F DUP4 ADD SLT PUSH2 0xFC JUMPI PUSH1 0x0 DUP1 REVERT JUMPDEST PUSH1 0x40 MLOAD PUSH1 0x60 DUP2 ADD PUSH1 0x1 PUSH1 0x1 PUSH1 0x40 SHL SUB DUP2 GT DUP3 DUP3 LT OR ISZERO PUSH2 0x12C JUMPI PUSH4 0x4E487B71 PUSH1 0xE0 SHL PUSH1 0x0 MSTORE PUSH1 0x41 PUSH1 0x4 MSTORE PUSH1 0x24 PUSH1 0x0 REVERT JUMPDEST PUSH1 0x40 MSTORE DUP1 PUSH1 0x60 DUP5 ADD DUP6 DUP2 GT ISZERO PUSH2 0x141 JUMPI PUSH1 0x0 DUP1 REVERT JUMPDEST DUP5 JUMPDEST DUP2 DUP2 LT ISZERO PUSH2 0x162 JUMPI PUSH2 0x154 DUP2 PUSH2 0xBF JUMP JUMPDEST DUP4 MSTORE PUSH1 0x20 SWAP3 DUP4 ADD SWAP3 ADD PUSH2 0x143 JUMP JUMPDEST POP SWAP2 SWAP6 SWAP5 POP POP POP POP POP JUMP JUMPDEST PUSH2 0x273 DUP1 PUSH2 0x17C PUSH1 0x0 CODECOPY PUSH1 0x0 RETURN INVALID PUSH1 0x80 PUSH1 0x40 MSTORE CALLVALUE DUP1 ISZERO PUSH2 0x10 JUMPI PUSH1 0x0 DUP1 REVERT JUMPDEST POP PUSH1 0x4 CALLDATASIZE LT PUSH2 0x4C JUMPI PUSH1 0x0 CALLDATALOAD PUSH1 0xE0 SHR DUP1 PUSH4 0x35C1D349 EQ PUSH2 0x51 JUMPI DUP1 PUSH4 0x5E9CC2A9 EQ PUSH2 0x81 JUMPI DUP1 PUSH4 0xC06FAD06 EQ PUSH2 0x96 JUMPI DUP1 PUSH4 0xE90DD9E2 EQ PUSH2 0xB3 JUMPI JUMPDEST PUSH1 0x0 DUP1 REVERT JUMPDEST PUSH2 0x64 PUSH2 0x5F CALLDATASIZE PUSH1 0x4 PUSH2 0x224 JUMP JUMPDEST PUSH2 0xCA JUMP JUMPDEST PUSH1 0x40 MLOAD PUSH1 0x1 PUSH1 0x1 PUSH1 0xA0 SHL SUB SWAP1 SWAP2 AND DUP2 MSTORE PUSH1 0x20 ADD JUMPDEST PUSH1 0x40 MLOAD DUP1 SWAP2 SUB SWAP1 RETURN JUMPDEST PUSH2 0x94 PUSH2 0x8F CALLDATASIZE PUSH1 0x4 PUSH2 0x224 JUMP JUMPDEST PUSH2 0xEA JUMP JUMPDEST STOP JUMPDEST PUSH1 0x4 SLOAD PUSH2 0xA3 SWAP1 PUSH1 0xFF AND DUP2 JUMP JUMPDEST PUSH1 0x40 MLOAD SWAP1 ISZERO ISZERO DUP2 MSTORE PUSH1 0x20 ADD PUSH2 0x78 JUMP JUMPDEST PUSH2 0xBC PUSH1 0x0 SLOAD DUP2 JUMP JUMPDEST PUSH1 0x40 MLOAD SWAP1 DUP2 MSTORE PUSH1 0x20 ADD PUSH2 0x78 JUMP JUMPDEST PUSH1 0x1 DUP2 PUSH1 0x3 DUP2 LT PUSH2 0xDA JUMPI PUSH1 0x0 DUP1 REVERT JUMPDEST ADD SLOAD PUSH1 0x1 PUSH1 0x1 PUSH1 0xA0 SHL SUB AND SWAP1 POP DUP2 JUMP JUMPDEST PUSH1 0x0 SLOAD JUMPDEST DUP1 ISZERO PUSH2 0x118 JUMPI DUP2 PUSH1 0x3 EQ DUP1 ISZERO PUSH2 0x107 JUMPI POP DUP1 PUSH1 0x2 AND PUSH1 0x2 EQ JUMPDEST ISZERO PUSH2 0x118 JUMPI PUSH1 0x2 NOT AND PUSH1 0x8 OR PUSH2 0xEE JUMP JUMPDEST DUP2 ISZERO DUP1 ISZERO PUSH2 0x129 JUMPI POP DUP1 PUSH1 0x1 AND PUSH1 0x1 EQ JUMPDEST DUP1 ISZERO PUSH2 0x142 JUMPI POP PUSH1 0x1 PUSH1 0x0 ADD SLOAD PUSH1 0x1 PUSH1 0x1 PUSH1 0xA0 SHL SUB AND CALLER EQ JUMPDEST ISZERO PUSH2 0x153 JUMPI PUSH1 0x1 NOT AND PUSH1 0x2 OR PUSH2 0x21E JUMP JUMPDEST PUSH1 0x4 SLOAD PUSH1 0xFF AND ISZERO ISZERO PUSH1 0x1 EQ DUP1 ISZERO PUSH2 0x16A JUMPI POP DUP2 PUSH1 0x1 EQ JUMPDEST DUP1 ISZERO PUSH2 0x179 JUMPI POP DUP1 PUSH1 0x2 AND PUSH1 0x2 EQ JUMPDEST DUP1 ISZERO PUSH2 0x192 JUMPI POP PUSH1 0x1 PUSH1 0x0 ADD SLOAD PUSH1 0x1 PUSH1 0x1 PUSH1 0xA0 SHL SUB AND CALLER EQ JUMPDEST ISZERO PUSH2 0x1A3 JUMPI PUSH1 0x2 NOT AND PUSH1 0x4 OR PUSH2 0x21E JUMP JUMPDEST DUP2 PUSH1 0x2 EQ DUP1 ISZERO PUSH2 0x1B6 JUMPI POP DUP1 PUSH1 0x4 AND PUSH1 0x4 EQ JUMPDEST DUP1 ISZERO PUSH2 0x1CF JUMPI POP PUSH1 0x1 PUSH1 0x0 ADD SLOAD PUSH1 0x1 PUSH1 0x1 PUSH1 0xA0 SHL SUB AND CALLER EQ JUMPDEST ISZERO PUSH2 0x1E0 JUMPI PUSH1 0x4 NOT AND PUSH1 0x8 OR PUSH2 0x21E JUMP JUMPDEST DUP2 PUSH1 0x3 EQ DUP1 ISZERO PUSH2 0x1F3 JUMPI POP DUP1 PUSH1 0x8 AND PUSH1 0x8 EQ JUMPDEST DUP1 ISZERO PUSH2 0x20C JUMPI POP PUSH1 0x1 PUSH1 0x0 ADD SLOAD PUSH1 0x1 PUSH1 0x1 PUSH1 0xA0 SHL SUB AND CALLER EQ JUMPDEST ISZERO PUSH2 0x21A JUMPI PUSH1 0x8 NOT AND PUSH2 0x21E JUMP JUMPDEST POP POP JUMP JUMPDEST PUSH1 0x0 SSTORE POP JUMP JUMPDEST PUSH1 0x0 PUSH1 0x20 DUP3 DUP5 SUB SLT ISZERO PUSH2 0x236 JUMPI PUSH1 0x0 DUP1 REVERT JUMPDEST POP CALLDATALOAD SWAP2 SWAP1 POP JUMP INVALID LOG2 PUSH5 0x6970667358 0x22 SLT KECCAK256 0xE3 GASLIMIT MSIZE CALLDATALOAD 0xAA 0xE6 0xE1 POP 0xDB SWAP14 SWAP8 0xE9 0xAC SWAP4 0xDF 0xC4 PUSH20 0x6ACC6C01056F91F1AC9E4D4A9CFA8964736F6C63 NUMBER STOP ADDMOD MULMOD STOP CALLER "
    }
  }
}