{
  "abi": [
    {
      "inputs": [
        {
          "internalType": "address[3]",
          "name": "_participants",
          "type": "address[3]"
        }
      ],
      "stateMutability": "nonpayable",
      "type": "constructor"
    },
    {
      "inputs": [],
      "name": "bond",
      "outputs": [
        {
          "internalType": "int256",
          "name": "",
          "type": "int256"
        }
      ],
      "stateMutability": "view",
      "type": "function"
    },
    {
      "inputs": [
        {
          "internalType": "uint256",
          "name": "id",
          "type": "uint256"
        }
      ],
      "name": "enact",
      "outputs": [],
      "stateMutability": "nonpayable",
      "type": "function"
    },
    {
      "inputs": [
        {
          "internalType": "uint256",
          "name": "",
          "type": "uint256"
        }
      ],
      "name": "participants",
      "outputs": [
        {
          "internalType": "address",
          "name": "",
          "type": "address"
        }
      ],
      "stateMutability": "view",
      "type": "function"
    },
    {
      "inputs": [
        {
          "internalType": "int256",
          "name": "_bond",
          "type": "int256"
        }
      ],
      "name": "setbond",
      "outputs": [],
      "stateMutability": "nonpayable",
      "type": "function"
    },
    {
      "inputs": [
        {
          "internalType": "int256",
          "name": "_weeklyRent",
          "type": "int256"
        }
      ],
      "name": "setweeklyRent",
      "outputs": [],
      "stateMutability": "nonpayable",
      "type": "function"
    },
    {
      "inputs": [],
      "name": "tokenState",
      "outputs": [
        {
          "internalType": "uint256",
          "name": "",
          "type": "uint256"
        }
      ],
      "stateMutability": "view",
      "type": "function"
    },
    {
      "inputs": [],
      "name": "weeklyRent",
      "outputs": [
        {
          "internalType": "int256",
          "name": "",
          "type": "int256"
        }
      ],
      "stateMutability": "view",
      "type": "function"
    }
  ],
  "evm": {
    "bytecode": {
      "linkReferences": {},
      "object": "60806040526001600055610fa06004556103e860055534801561002157600080fd5b506040516105f13803806105f1833981016040819052610040916100dd565b61004d6001826003610054565b505061016f565b826003810192821561009c579160200282015b8281111561009c57825182546001600160a01b0319166001600160a01b03909116178255602090920191600190910190610067565b506100a89291506100ac565b5090565b5b808211156100a857600081556001016100ad565b80516001600160a01b03811681146100d857600080fd5b919050565b6000606082840312156100ef57600080fd5b82601f8301126100fe57600080fd5b604051606081016001600160401b038111828210171561012e57634e487b7160e01b600052604160045260246000fd5b60405280606084018581111561014357600080fd5b845b8181101561016457610156816100c1565b835260209283019201610145565b509195945050505050565b6104738061017e6000396000f3fe608060405234801561001057600080fd5b506004361061006d5760003560e01c8063028c24a61461007257806335c1d349146100875780635e9cc2a9146100b757806364c9ec6f146100ca578063b5756959146100e1578063e90dd9e2146100f4578063f2adb39b146100fd575b600080fd5b610085610080366004610389565b600455565b005b61009a610095366004610389565b610106565b6040516001600160a01b0390911681526020015b60405180910390f35b6100856100c5366004610389565b610126565b6100d360045481565b6040519081526020016100ae565b6100856100ef366004610389565b600555565b6100d360005481565b6100d360055481565b6001816003811061011657600080fd5b01546001600160a01b0316905081565b6000545b801561038357806002166002141561016e5781600114801561015957506001600001546001600160a01b031633145b1561016e57600091506002191660041761012a565b80600816600814156101de5781600214801561019757506001600201546001600160a01b031633145b156101ac57600091506008191660101761012a565b8160061480156101c957506001600201546001600160a01b031633145b156101de57600091506008191660401761012a565b806010166010141561024b5781600314801561020757506001600001546001600160a01b031633145b15610219576000915060101916610383565b81600414801561023657506001600001546001600160a01b031633145b1561024b57600091506010191660201761012a565b806020166020141561028557816005148015610273575060018001546001600160a01b031633145b15610285576000915060201916610383565b80604016604014156102bf578160071480156102ad575060018001546001600160a01b031633145b156102bf576000915060401916610383565b80600116600114156102f7576005546102d99060046103b8565b60045413156102eb5760011916610383565b6001191660821761012a565b80608016608014156103685781600814801561032057506001600001546001600160a01b031633145b1561033557600091506080191660801761012a565b81600914801561035257506001600001546001600160a01b031633145b156103685760009150608019166101001761012a565b8061010416610104141561038357610104191660081761012a565b60005550565b60006020828403121561039b57600080fd5b5035919050565b634e487b7160e01b600052601160045260246000fd5b60006001600160ff1b03818413828413808216868404861116156103de576103de6103a2565b600160ff1b60008712828116878305891216156103fd576103fd6103a2565b60008712925087820587128484161615610419576104196103a2565b8785058712818416161561042f5761042f6103a2565b50505092909302939250505056fea2646970667358221220b7e418dc292b30e8d5b387e6c8efe4bfd4769dbcbe92fb0d6188dd924a880bc364736f6c63430008090033",
      "opcodes": "PUSH1 0x80 PUSH1 0x40 MSTORE PUSH1 0x1 PUSH1 0x0 SSTORE PUSH2 0xFA0 PUSH1 0x4 SSTORE PUSH2 0x3E8 PUSH1 0x5 SSTORE CALLVALUE DUP1 ISZERO PUSH2 0x21 JUMPI PUSH1 0x0 DUP1 REVERT JUMPDEST POP PUSH1 0x40 MLOAD PUSH2 0x5F1 CODESIZE SUB DUP1 PUSH2 0x5F1 DUP4 CODECOPY DUP2 ADD PUSH1 0x40 DUP2 SWAP1 MSTORE PUSH2 0x40 SWAP2 PUSH2 0xDD JUMP JUMPDEST PUSH2 0x4D PUSH1 0x1 DUP3 PUSH1 0x3 PUSH2 0x54 JUMP JUMPDEST POP POP PUSH2 0x16F JUMP JUMPDEST DUP3 PUSH1 0x3 DUP2 ADD SWAP3 DUP3 ISZERO PUSH2 0x9C JUMPI SWAP2 PUSH1 0x20 MUL DUP3 ADD JUMPDEST DUP3 DUP2 GT ISZERO PUSH2 0x9C JUMPI DUP3 MLOAD DUP3 SLOAD PUSH1 0x1 PUSH1 0x1 PUSH1 0xA0 SHL SUB NOT AND PUSH1 0x1 PUSH1 0x1 PUSH1 0xA0 SHL SUB SWAP1 SWAP2 AND OR DUP3 SSTORE PUSH1 0x20 SWAP1 SWAP3 ADD SWAP2 PUSH1 0x1 SWAP1 SWAP2 ADD SWAP1 PUSH2 0x67 JUMP JUMPDEST POP PUSH2 0xA8 SWAP3 SWAP2 POP PUSH2 0xAC JUMP JUMPDEST POP SWAP1 JUMP JUMPDEST JUMPDEST DUP1 DUP3 GT ISZERO PUSH2 0xA8 JUMPI PUSH1 0x0 DUP2 SSTORE PUSH1 0x1 ADD PUSH2 0xAD JUMP JUMPDEST DUP1 MLOAD PUSH1 0x1 PUSH1 0x1 PUSH1 0xA0 SHL SUB DUP2 AND DUP2 EQ PUSH2 0xD8 JUMPI PUSH1 0x0 DUP1 REVERT JUMPDEST SWAP2 SWAP1 POP JUMP JUMPDEST PUSH1 0x0 PUSH1 0x60 DUP3 DUP5 SUB SLT ISZERO PUSH2 0xEF JUMPI PUSH1 0x0 DUP1 REVERT JUMPDEST DUP3 PUSH1 0x1F DUP4 ADD SLT PUSH2 0xFE JUMPI PUSH1 0x0 DUP1 REVERT JUMPDEST PUSH1 0x40 MLOAD PUSH1 0x60 DUP2 ADD PUSH1 0x1 PUSH1 0x1 PUSH1 0x40 SHL SUB DUP2 GT DUP3 DUP3 LT OR ISZERO PUSH2 0x12E JUMPI PUSH4 0x4E487B71 PUSH1 0xE0 SHL PUSH1 0x0 MSTORE PUSH1 0x41 PUSH1 0x4 MSTORE PUSH1 0x24 PUSH1 0x0 REVERT JUMPDEST PUSH1 0x40 MSTORE DUP1 PUSH1 0x60 DUP5 ADD DUP6 DUP2 GT ISZERO PUSH2 0x143 JUMPI PUSH1 0x0 DUP1 REVERT JUMPDEST DUP5 JUMPDEST DUP2 DUP2 LT ISZERO PUSH2 0x164 JUMPI PUSH2 0x156 DUP2 PUSH2 0xC1 JUMP JUMPDEST DUP4 MSTORE PUSH1 0x20 SWAP3 DUP4 ADD SWAP3 ADD PUSH2 0x145 JUMP JUMPDEST POP SWAP2 SWAP6 SWAP5 POP POP POP POP POP JUMP JUMPDEST PUSH2 0x473 DUP1 PUSH2 0x17E PUSH1 0x0 CODECOPY PUSH1 0x0 RETURN INVALID PUSH1 0x80 PUSH1 0x40 MSTORE CALLVALUE DUP1 ISZERO PUSH2 0x10 JUMPI PUSH1 0x0 DUP1 REVERT JUMPDEST POP PUSH1 0x4 CALLDATASIZE LT PUSH2 0x6D JUMPI PUSH1 0x0 CALLDATALOAD PUSH1 0xE0 SHR DUP1 PUSH4 0x28C24A6 EQ PUSH2 0x72 JUMPI DUP1 PUSH4 0x35C1D349 EQ PUSH2 0x87 JUMPI DUP1 PUSH4 0x5E9CC2A9 EQ PUSH2 0xB7 JUMPI DUP1 PUSH4 0x64C9EC6F EQ PUSH2 0xCA JUMPI DUP1 PUSH4 0xB5756959 EQ PUSH2 0xE1 JUMPI DUP1 PUSH4 0xE90DD9E2 EQ PUSH2 0xF4 JUMPI DUP1 PUSH4 0xF2ADB39B EQ PUSH2 0xFD JUMPI JUMPDEST PUSH1 0x0 DUP1 REVERT JUMPDEST PUSH2 0x85 PUSH2 0x80 CALLDATASIZE PUSH1 0x4 PUSH2 0x389 JUMP JUMPDEST PUSH1 0x4 SSTORE JUMP JUMPDEST STOP JUMPDEST PUSH2 0x9A PUSH2 0x95 CALLDATASIZE PUSH1 0x4 PUSH2 0x389 JUMP JUMPDEST PUSH2 0x106 JUMP JUMPDEST PUSH1 0x40 MLOAD PUSH1 0x1 PUSH1 0x1 PUSH1 0xA0 SHL SUB SWAP1 SWAP2 AND DUP2 MSTORE PUSH1 0x20 ADD JUMPDEST PUSH1 0x40 MLOAD DUP1 SWAP2 SUB SWAP1 RETURN JUMPDEST PUSH2 0x85 PUSH2 0xC5 CALLDATASIZE PUSH1 0x4 PUSH2 0x389 JUMP JUMPDEST PUSH2 0x126 JUMP JUMPDEST PUSH2 0xD3 PUSH1 0x4 SLOAD DUP2 JUMP JUMPDEST PUSH1 0x40 MLOAD SWAP1 DUP2 MSTORE PUSH1 0x20 ADD PUSH2 0xAE JUMP JUMPDEST PUSH2 0x85 PUSH2 0xEF CALLDATASIZE PUSH1 0x4 PUSH2 0x389 JUMP JUMPDEST PUSH1 0x5 SSTORE JUMP JUMPDEST PUSH2 0xD3 PUSH1 0x0 SLOAD DUP2 JUMP JUMPDEST PUSH2 0xD3 PUSH1 0x5 SLOAD DUP2 JUMP JUMPDEST PUSH1 0x1 DUP2 PUSH1 0x3 DUP2 LT PUSH2 0x116 JUMPI PUSH1 0x0 DUP1 REVERT JUMPDEST ADD SLOAD PUSH1 0x1 PUSH1 0x1 PUSH1 0xA0 SHL SUB AND SWAP1 POP DUP2 JUMP JUMPDEST PUSH1 0x0 SLOAD JUMPDEST DUP1 ISZERO PUSH2 0x383 JUMPI DUP1 PUSH1 0x2 AND PUSH1 0x2 EQ ISZERO PUSH2 0x16E JUMPI DUP2 PUSH1 0x1 EQ DUP1 ISZERO PUSH2 0x159 JUMPI POP PUSH1 0x1 PUSH1 0x0 ADD SLOAD PUSH1 0x1 PUSH1 0x1 PUSH1 0xA0 SHL SUB AND CALLER EQ JUMPDEST ISZERO PUSH2 0x16E JUMPI PUSH1 0x0 SWAP2 POP PUSH1 0x2 NOT AND PUSH1 0x4 OR PUSH2 0x12A JUMP JUMPDEST DUP1 PUSH1 0x8 AND PUSH1 0x8 EQ ISZERO PUSH2 0x1DE JUMPI DUP2 PUSH1 0x2 EQ DUP1 ISZERO PUSH2 0x197 JUMPI POP PUSH1 0x1 PUSH1 0x2 ADD SLOAD PUSH1 0x1 PUSH1 0x1 PUSH1 0xA0 SHL SUB AND CALLER EQ JUMPDEST ISZERO PUSH2 0x1AC JUMPI PUSH1 0x0 SWAP2 POP PUSH1 0x8 NOT AND PUSH1 0x10 OR PUSH2 0x12A JUMP JUMPDEST DUP2 PUSH1 0x6 EQ DUP1 ISZERO PUSH2 0x1C9 JUMPI POP PUSH1 0x1 PUSH1 0x2 ADD SLOAD PUSH1 0x1 PUSH1 0x1 PUSH1 0xA0 SHL SUB AND CALLER EQ JUMPDEST ISZERO PUSH2 0x1DE JUMPI PUSH1 0x0 SWAP2 POP PUSH1 0x8 NOT AND PUSH1 0x40 OR PUSH2 0x12A JUMP JUMPDEST DUP1 PUSH1 0x10 AND PUSH1 0x10 EQ ISZERO PUSH2 0x24B JUMPI DUP2 PUSH1 0x3 EQ DUP1 ISZERO PUSH2 0x207 JUMPI POP PUSH1 0x1 PUSH1 0x0 ADD SLOAD PUSH1 0x1 PUSH1 0x1 PUSH1 0xA0 SHL SUB AND CALLER EQ JUMPDEST ISZERO PUSH2 0x219 JUMPI PUSH1 0x0 SWAP2 POP PUSH1 0x10 NOT AND PUSH2 0x383 JUMP JUMPDEST DUP2 PUSH1 0x4 EQ DUP1 ISZERO PUSH2 0x236 JUMPI POP PUSH1 0x1 PUSH1 0x0 ADD SLOAD PUSH1 0x1 PUSH1 0x1 PUSH1 0xA0 SHL SUB AND CALLER EQ JUMPDEST ISZERO PUSH2 0x24B JUMPI PUSH1 0x0 SWAP2 POP PUSH1 0x10 NOT AND PUSH1 0x20 OR PUSH2 0x12A JUMP JUMPDEST DUP1 PUSH1 0x20 AND PUSH1 0x20 EQ ISZERO PUSH2 0x285 JUMPI DUP2 PUSH1 0x5 EQ DUP1 ISZERO PUSH2 0x273 JUMPI POP PUSH1 0x1 DUP1 ADD SLOAD PUSH1 0x1 PUSH1 0x1 PUSH1 0xA0 SHL SUB AND CALLER EQ JUMPDEST ISZERO PUSH2 0x285 JUMPI PUSH1 0x0 SWAP2 POP PUSH1 0x20 NOT AND PUSH2 0x383 JUMP JUMPDEST DUP1 PUSH1 0x40 AND PUSH1 0x40 EQ ISZERO PUSH2 0x2BF JUMPI DUP2 PUSH1 0x7 EQ DUP1 ISZERO PUSH2 0x2AD JUMPI POP PUSH1 0x1 DUP1 ADD SLOAD PUSH1 0x1 PUSH1 0x1 PUSH1 0xA0 SHL SUB AND CALLER EQ JUMPDEST ISZERO PUSH2 0x2BF JUMPI PUSH1 0x0 SWAP2 POP PUSH1 0x40 NOT AND PUSH2 0x383 JUMP JUMPDEST DUP1 PUSH1 0x1 AND PUSH1 0x1 EQ ISZERO PUSH2 0x2F7 JUMPI PUSH1 0x5 SLOAD PUSH2 0x2D9 SWAP1 PUSH1 0x4 PUSH2 0x3B8 JUMP JUMPDEST PUSH1 0x4 SLOAD SGT ISZERO PUSH2 0x2EB JUMPI PUSH1 0x1 NOT AND PUSH2 0x383 JUMP JUMPDEST PUSH1 0x1 NOT AND PUSH1 0x82 OR PUSH2 0x12A JUMP JUMPDEST DUP1 PUSH1 0x80 AND PUSH1 0x80 EQ ISZERO PUSH2 0x368 JUMPI DUP2 PUSH1 0x8 EQ DUP1 ISZERO PUSH2 0x320 JUMPI POP PUSH1 0x1 PUSH1 0x0 ADD SLOAD PUSH1 0x1 PUSH1 0x1 PUSH1 0xA0 SHL SUB AND CALLER EQ JUMPDEST ISZERO PUSH2 0x335 JUMPI PUSH1 0x0 SWAP2 POP PUSH1 0x80 NOT AND PUSH1 0x80 OR PUSH2 0x12A JUMP JUMPDEST DUP2 PUSH1 0x9 EQ DUP1 ISZERO PUSH2 0x352 JUMPI POP PUSH1 0x1 PUSH1 0x0 ADD SLOAD PUSH1 0x1 PUSH1 0x1 PUSH1 0xA0 SHL SUB AND CALLER EQ JUMPDEST ISZERO PUSH2 0x368 JUMPI PUSH1 0x0 SWAP2 POP PUSH1 0x80 NOT AND PUSH2 0x100 OR PUSH2 0x12A JUMP JUMPDEST DUP1 PUSH2 0x104 AND PUSH2 0x104 EQ ISZERO PUSH2 0x383 JUMPI PUSH2 0x104 NOT AND PUSH1 0x8 OR PUSH2 0x12A JUMP JUMPDEST PUSH1 0x0 SSTORE POP JUMP JUMPDEST PUSH1 0x0 PUSH1 0x20 DUP3 DUP5 SUB SLT ISZERO PUSH2 0x39B JUMPI PUSH1 0x0 DUP1 REVERT JUMPDEST POP CALLDATALOAD SWAP2 SWAP1 POP JUMP JUMPDEST PUSH4 0x4E487B71 PUSH1 0xE0 SHL PUSH1 0x0 MSTORE PUSH1 0x11 PUSH1 0x4 MSTORE PUSH1 0x24 PUSH1 0x0 REVERT JUMPDEST PUSH1 0x0 PUSH1 0x1 PUSH1 0x1 PUSH1 0xFF SHL SUB DUP2 DUP5 SGT DUP3 DUP5 SGT DUP1 DUP3 AND DUP7 DUP5 DIV DUP7 GT AND ISZERO PUSH2 0x3DE JUMPI PUSH2 0x3DE PUSH2 0x3A2 JUMP JUMPDEST PUSH1 0x1 PUSH1 0xFF SHL PUSH1 0x0 DUP8 SLT DUP3 DUP2 AND DUP8 DUP4 SDIV DUP10 SLT AND ISZERO PUSH2 0x3FD JUMPI PUSH2 0x3FD PUSH2 0x3A2 JUMP JUMPDEST PUSH1 0x0 DUP8 SLT SWAP3 POP DUP8 DUP3 SDIV DUP8 SLT DUP5 DUP5 AND AND ISZERO PUSH2 0x419 JUMPI PUSH2 0x419 PUSH2 0x3A2 JUMP JUMPDEST DUP8 DUP6 SDIV DUP8 SLT DUP2 DUP5 AND AND ISZERO PUSH2 0x42F JUMPI PUSH2 0x42F PUSH2 0x3A2 JUMP JUMPDEST POP POP POP SWAP3 SWAP1 SWAP4 MUL SWAP4 SWAP3 POP POP POP JUMP INVALID LOG2 PUSH5 0x6970667358 0x22 SLT KECCAK256 0xB7 0xE4 XOR 0xDC 0x29 0x2B ADDRESS 0xE8 0xD5 0xB3 DUP8 0xE6 0xC8 0xEF 0xE4 0xBF 0xD4 PUSH23 0x9DBCBE92FB0D6188DD924A880BC364736F6C6343000809 STOP CALLER "
    }
  }
}