{
  "abi": [
    {
      "inputs": [
        {
          "internalType": "address[5]",
          "name": "_participants",
          "type": "address[5]"
        },
        {
          "internalType": "uint256",
          "name": "_disputeWindowInUNIX",
          "type": "uint256"
        }
      ],
      "stateMutability": "nonpayable",
      "type": "constructor"
    },
    {
      "inputs": [
        {
          "internalType": "uint256",
          "name": "id",
          "type": "uint256"
        }
      ],
      "name": "continueAfterDispute",
      "outputs": [],
      "stateMutability": "nonpayable",
      "type": "function"
    },
    {
      "inputs": [],
      "name": "disputeMadeAtUNIX",
      "outputs": [
        {
          "internalType": "uint256",
          "name": "",
          "type": "uint256"
        }
      ],
      "stateMutability": "view",
      "type": "function"
    },
    {
      "inputs": [],
      "name": "disputeWindowInUNIX",
      "outputs": [
        {
          "internalType": "uint256",
          "name": "",
          "type": "uint256"
        }
      ],
      "stateMutability": "view",
      "type": "function"
    },
    {
      "inputs": [],
      "name": "index",
      "outputs": [
        {
          "internalType": "uint256",
          "name": "",
          "type": "uint256"
        }
      ],
      "stateMutability": "view",
      "type": "function"
    },
    {
      "inputs": [
        {
          "internalType": "uint256",
          "name": "",
          "type": "uint256"
        }
      ],
      "name": "participants",
      "outputs": [
        {
          "internalType": "address",
          "name": "",
          "type": "address"
        }
      ],
      "stateMutability": "view",
      "type": "function"
    },
    {
      "inputs": [
        {
          "components": [
            {
              "internalType": "uint256",
              "name": "index",
              "type": "uint256"
            },
            {
              "internalType": "uint256",
              "name": "from",
              "type": "uint256"
            },
            {
              "internalType": "uint256",
              "name": "caseID",
              "type": "uint256"
            },
            {
              "internalType": "uint256",
              "name": "taskID",
              "type": "uint256"
            },
            {
              "internalType": "uint256",
              "name": "newTokenState",
              "type": "uint256"
            },
            {
              "internalType": "bytes[5]",
              "name": "signatures",
              "type": "bytes[5]"
            }
          ],
          "internalType": "struct IM_ProcessChannel.Step",
          "name": "_step",
          "type": "tuple"
        }
      ],
      "name": "submit",
      "outputs": [],
      "stateMutability": "nonpayable",
      "type": "function"
    },
    {
      "inputs": [],
      "name": "tokenState",
      "outputs": [
        {
          "internalType": "uint256",
          "name": "",
          "type": "uint256"
        }
      ],
      "stateMutability": "view",
      "type": "function"
    }
  ],
  "evm": {
    "bytecode": {
      "linkReferences": {},
      "object": "60a060405260016000556000600155600060075534801561001f57600080fd5b5060405162000be038038062000be0833981016040819052610040916100f6565b61004d6002836005610057565b506080525061017f565b826005810192821561009f579160200282015b8281111561009f57825182546001600160a01b0319166001600160a01b0390911617825560209092019160019091019061006a565b506100ab9291506100af565b5090565b5b808211156100ab57600081556001016100b0565b634e487b7160e01b600052604160045260246000fd5b80516001600160a01b03811681146100f157600080fd5b919050565b60008060c0838503121561010957600080fd5b83601f84011261011857600080fd5b60405160a081016001600160401b038111828210171561013a5761013a6100c4565b6040528060a085018681111561014f57600080fd5b855b8181101561017057610162816100da565b835260209283019201610151565b50519196919550909350505050565b608051610a38620001a86000396000818160dc0152818161016001526101d60152610a386000f3fe608060405234801561001057600080fd5b506004361061006d5760003560e01c80631db630ea146100725780632986c0e5146100875780633594b762146100a357806335c1d349146100ac578063421f9e34146100d7578063467ad0e9146100fe578063e90dd9e214610111575b600080fd5b6100856100803660046108cb565b61011a565b005b61009060015481565b6040519081526020015b60405180910390f35b61009060075481565b6100bf6100ba36600461090d565b6101a3565b6040516001600160a01b03909116815260200161009a565b6100907f000000000000000000000000000000000000000000000000000000000000000081565b61008561010c36600461090d565b6101c3565b61009060005481565b600754813515801561012a575080155b801561013857506000546001145b1561014257426007555b61014b826104bb565b801561018857508015806101885750426101857f00000000000000000000000000000000000000000000000000000000000000008361093c565b10155b1561019f5742600755813560015560808201356000555b5050565b600281600581106101b357600080fd5b01546001600160a01b0316905081565b60075480158015906101fd5750426101fb7f00000000000000000000000000000000000000000000000000000000000000008361093c565b105b6102435760405162461bcd60e51b81526020600482015260126024820152714e6f20656c6170736564206469737075746560701b60448201526064015b60405180910390fd5b6000546002600001546001600160a01b031633148015610261575082155b80156102705750806001166001145b156102815760011916600217610464565b6002600101546001600160a01b03163314801561029e5750826001145b80156102ad5750806002166002145b156102be5760021916600417610464565b6002600101546001600160a01b0316331480156102db5750826002145b80156102ea5750806008166008145b156102f85760081916610464565b6002600101546001600160a01b0316331480156103155750826003145b80156103245750806004166004145b156103355760041916601017610464565b60028001546001600160a01b0316331480156103515750826004145b80156103605750806020166020145b156103715760201916600817610464565b60028001546001600160a01b03163314801561038d5750826005145b801561039c5750806010166010145b156103ad5760101916604017610464565b6002600301546001600160a01b0316331480156103ca5750826006145b80156103d95750806040166040145b156103ea5760401916608017610464565b6002600401546001600160a01b0316331480156104075750826007145b80156104165750806080166080145b15610428576080191661010017610464565b6002600301546001600160a01b0316331480156104455750826008145b801561045657508061010016610100145b156104645761010019166020175b5b80156104b4578060401660401415610484576040191661010017610465565b806010166010141561049c5760101916602017610465565b80600416600414156104b45760041916600817610465565b6000555050565b60008160000135600154106104d257506000919050565b6040805160009161051b91853591860135906020808801359160608901359160808a01359101948552602085019390935260408401919091526060830152608082015260a00190565b60405160208183030381529060405280519060200120905060005b60058110156105fe576002816005811061055257610552610954565b01546001600160a01b03166105d461056d60a087018761096a565b836005811061057e5761057e610954565b60200281019061058e919061098a565b8080601f0160208091040260200160405190810160405280939291908181526020018383808284376000920191909152506105ce92508791506106089050565b9061065b565b6001600160a01b0316146105ec575060009392505050565b806105f6816109d1565b915050610536565b5060019392505050565b6040517f19457468657265756d205369676e6564204d6573736167653a0a3332000000006020820152603c8101829052600090605c01604051602081830303815290604052805190602001209050919050565b600080600061066a858561067f565b91509150610677816106c5565b509392505050565b6000808251604114156106b65760208301516040840151606085015160001a6106aa87828585610811565b945094505050506106be565b506000905060025b9250929050565b60008160048111156106d9576106d96109ec565b14156106e25750565b60018160048111156106f6576106f66109ec565b141561073f5760405162461bcd60e51b815260206004820152601860248201527745434453413a20696e76616c6964207369676e617475726560401b604482015260640161023a565b6002816004811115610753576107536109ec565b14156107a15760405162461bcd60e51b815260206004820152601f60248201527f45434453413a20696e76616c6964207369676e6174757265206c656e67746800604482015260640161023a565b60038160048111156107b5576107b56109ec565b141561080e5760405162461bcd60e51b815260206004820152602260248201527f45434453413a20696e76616c6964207369676e6174757265202773272076616c604482015261756560f01b606482015260840161023a565b50565b6000806fa2a8918ca85bafe22016d0b997e4df60600160ff1b0383111561083e57506000905060036108c2565b6040805160008082526020820180845289905260ff881692820192909252606081018690526080810185905260019060a0016020604051602081039080840390855afa158015610892573d6000803e3d6000fd5b5050604051601f1901519150506001600160a01b0381166108bb576000600192509250506108c2565b9150600090505b94509492505050565b6000602082840312156108dd57600080fd5b813567ffffffffffffffff8111156108f457600080fd5b820160c0818503121561090657600080fd5b9392505050565b60006020828403121561091f57600080fd5b5035919050565b634e487b7160e01b600052601160045260246000fd5b6000821982111561094f5761094f610926565b500190565b634e487b7160e01b600052603260045260246000fd5b60008235609e1983360301811261098057600080fd5b9190910192915050565b6000808335601e198436030181126109a157600080fd5b83018035915067ffffffffffffffff8211156109bc57600080fd5b6020019150368190038213156106be57600080fd5b60006000198214156109e5576109e5610926565b5060010190565b634e487b7160e01b600052602160045260246000fdfea26469706673582212208754445f45f2beba574ebf742af48f2b8942efe72c823d91fa026d3360efc6a264736f6c63430008090033",
      "opcodes": "PUSH1 0xA0 PUSH1 0x40 MSTORE PUSH1 0x1 PUSH1 0x0 SSTORE PUSH1 0x0 PUSH1 0x1 SSTORE PUSH1 0x0 PUSH1 0x7 SSTORE CALLVALUE DUP1 ISZERO PUSH2 0x1F JUMPI PUSH1 0x0 DUP1 REVERT JUMPDEST POP PUSH1 0x40 MLOAD PUSH3 0xBE0 CODESIZE SUB DUP1 PUSH3 0xBE0 DUP4 CODECOPY DUP2 ADD PUSH1 0x40 DUP2 SWAP1 MSTORE PUSH2 0x40 SWAP2 PUSH2 0xF6 JUMP JUMPDEST PUSH2 0x4D PUSH1 0x2 DUP4 PUSH1 0x5 PUSH2 0x57 JUMP JUMPDEST POP PUSH1 0x80 MSTORE POP PUSH2 0x17F JUMP JUMPDEST DUP3 PUSH1 0x5 DUP2 ADD SWAP3 DUP3 ISZERO PUSH2 0x9F JUMPI SWAP2 PUSH1 0x20 MUL DUP3 ADD JUMPDEST DUP3 DUP2 GT ISZERO PUSH2 0x9F JUMPI DUP3 MLOAD DUP3 SLOAD PUSH1 0x1 PUSH1 0x1 PUSH1 0xA0 SHL SUB NOT AND PUSH1 0x1 PUSH1 0x1 PUSH1 0xA0 SHL SUB SWAP1 SWAP2 AND OR DUP3 SSTORE PUSH1 0x20 SWAP1 SWAP3 ADD SWAP2 PUSH1 0x1 SWAP1 SWAP2 ADD SWAP1 PUSH2 0x6A JUMP JUMPDEST POP PUSH2 0xAB SWAP3 SWAP2 POP PUSH2 0xAF JUMP JUMPDEST POP SWAP1 JUMP JUMPDEST JUMPDEST DUP1 DUP3 GT ISZERO PUSH2 0xAB JUMPI PUSH1 0x0 DUP2 SSTORE PUSH1 0x1 ADD PUSH2 0xB0 JUMP JUMPDEST PUSH4 0x4E487B71 PUSH1 0xE0 SHL PUSH1 0x0 MSTORE PUSH1 0x41 PUSH1 0x4 MSTORE PUSH1 0x24 PUSH1 0x0 REVERT JUMPDEST DUP1 MLOAD PUSH1 0x1 PUSH1 0x1 PUSH1 0xA0 SHL SUB DUP2 AND DUP2 EQ PUSH2 0xF1 JUMPI PUSH1 0x0 DUP1 REVERT JUMPDEST SWAP2 SWAP1 POP JUMP JUMPDEST PUSH1 0x0 DUP1 PUSH1 0xC0 DUP4 DUP6 SUB SLT ISZERO PUSH2 0x109 JUMPI PUSH1 0x0 DUP1 REVERT JUMPDEST DUP4 PUSH1 0x1F DUP5 ADD SLT PUSH2 0x118 JUMPI PUSH1 0x0 DUP1 REVERT JUMPDEST PUSH1 0x40 MLOAD PUSH1 0xA0 DUP2 ADD PUSH1 0x1 PUSH1 0x1 PUSH1 0x40 SHL SUB DUP2 GT DUP3 DUP3 LT OR ISZERO PUSH2 0x13A JUMPI PUSH2 0x13A PUSH2 0xC4 JUMP JUMPDEST PUSH1 0x40 MSTORE DUP1 PUSH1 0xA0 DUP6 ADD DUP7 DUP2 GT ISZERO PUSH2 0x14F JUMPI PUSH1 0x0 DUP1 REVERT JUMPDEST DUP6 JUMPDEST DUP2 DUP2 LT ISZERO PUSH2 0x170 JUMPI PUSH2 0x162 DUP2 PUSH2 0xDA JUMP JUMPDEST DUP4 MSTORE PUSH1 0x20 SWAP3 DUP4 ADD SWAP3 ADD PUSH2 0x151 JUMP JUMPDEST POP MLOAD SWAP2 SWAP7 SWAP2 SWAP6 POP SWAP1 SWAP4 POP POP POP POP JUMP JUMPDEST PUSH1 0x80 MLOAD PUSH2 0xA38 PUSH3 0x1A8 PUSH1 0x0 CODECOPY PUSH1 0x0 DUP2 DUP2 PUSH1 0xDC ADD MSTORE DUP2 DUP2 PUSH2 0x160 ADD MSTORE PUSH2 0x1D6 ADD MSTORE PUSH2 0xA38 PUSH1 0x0 RETURN INVALID PUSH1 0x80 PUSH1 0x40 MSTORE CALLVALUE DUP1 ISZERO PUSH2 0x10 JUMPI PUSH1 0x0 DUP1 REVERT JUMPDEST POP PUSH1 0x4 CALLDATASIZE LT PUSH2 0x6D JUMPI PUSH1 0x0 CALLDATALOAD PUSH1 0xE0 SHR DUP1 PUSH4 0x1DB630EA EQ PUSH2 0x72 JUMPI DUP1 PUSH4 0x2986C0E5 EQ PUSH2 0x87 JUMPI DUP1 PUSH4 0x3594B762 EQ PUSH2 0xA3 JUMPI DUP1 PUSH4 0x35C1D349 EQ PUSH2 0xAC JUMPI DUP1 PUSH4 0x421F9E34 EQ PUSH2 0xD7 JUMPI DUP1 PUSH4 0x467AD0E9 EQ PUSH2 0xFE JUMPI DUP1 PUSH4 0xE90DD9E2 EQ PUSH2 0x111 JUMPI JUMPDEST PUSH1 0x0 DUP1 REVERT JUMPDEST PUSH2 0x85 PUSH2 0x80 CALLDATASIZE PUSH1 0x4 PUSH2 0x8CB JUMP JUMPDEST PUSH2 0x11A JUMP JUMPDEST STOP JUMPDEST PUSH2 0x90 PUSH1 0x1 SLOAD DUP2 JUMP JUMPDEST PUSH1 0x40 MLOAD SWAP1 DUP2 MSTORE PUSH1 0x20 ADD JUMPDEST PUSH1 0x40 MLOAD DUP1 SWAP2 SUB SWAP1 RETURN JUMPDEST PUSH2 0x90 PUSH1 0x7 SLOAD DUP2 JUMP JUMPDEST PUSH2 0xBF PUSH2 0xBA CALLDATASIZE PUSH1 0x4 PUSH2 0x90D JUMP JUMPDEST PUSH2 0x1A3 JUMP JUMPDEST PUSH1 0x40 MLOAD PUSH1 0x1 PUSH1 0x1 PUSH1 0xA0 SHL SUB SWAP1 SWAP2 AND DUP2 MSTORE PUSH1 0x20 ADD PUSH2 0x9A JUMP JUMPDEST PUSH2 0x90 PUSH32 0x0 DUP2 JUMP JUMPDEST PUSH2 0x85 PUSH2 0x10C CALLDATASIZE PUSH1 0x4 PUSH2 0x90D JUMP JUMPDEST PUSH2 0x1C3 JUMP JUMPDEST PUSH2 0x90 PUSH1 0x0 SLOAD DUP2 JUMP JUMPDEST PUSH1 0x7 SLOAD DUP2 CALLDATALOAD ISZERO DUP1 ISZERO PUSH2 0x12A JUMPI POP DUP1 ISZERO JUMPDEST DUP1 ISZERO PUSH2 0x138 JUMPI POP PUSH1 0x0 SLOAD PUSH1 0x1 EQ JUMPDEST ISZERO PUSH2 0x142 JUMPI TIMESTAMP PUSH1 0x7 SSTORE JUMPDEST PUSH2 0x14B DUP3 PUSH2 0x4BB JUMP JUMPDEST DUP1 ISZERO PUSH2 0x188 JUMPI POP DUP1 ISZERO DUP1 PUSH2 0x188 JUMPI POP TIMESTAMP PUSH2 0x185 PUSH32 0x0 DUP4 PUSH2 0x93C JUMP JUMPDEST LT ISZERO JUMPDEST ISZERO PUSH2 0x19F JUMPI TIMESTAMP PUSH1 0x7 SSTORE DUP2 CALLDATALOAD PUSH1 0x1 SSTORE PUSH1 0x80 DUP3 ADD CALLDATALOAD PUSH1 0x0 SSTORE JUMPDEST POP POP JUMP JUMPDEST PUSH1 0x2 DUP2 PUSH1 0x5 DUP2 LT PUSH2 0x1B3 JUMPI PUSH1 0x0 DUP1 REVERT JUMPDEST ADD SLOAD PUSH1 0x1 PUSH1 0x1 PUSH1 0xA0 SHL SUB AND SWAP1 POP DUP2 JUMP JUMPDEST PUSH1 0x7 SLOAD DUP1 ISZERO DUP1 ISZERO SWAP1 PUSH2 0x1FD JUMPI POP TIMESTAMP PUSH2 0x1FB PUSH32 0x0 DUP4 PUSH2 0x93C JUMP JUMPDEST LT JUMPDEST PUSH2 0x243 JUMPI PUSH1 0x40 MLOAD PUSH3 0x461BCD PUSH1 0xE5 SHL DUP2 MSTORE PUSH1 0x20 PUSH1 0x4 DUP3 ADD MSTORE PUSH1 0x12 PUSH1 0x24 DUP3 ADD MSTORE PUSH18 0x4E6F20656C61707365642064697370757465 PUSH1 0x70 SHL PUSH1 0x44 DUP3 ADD MSTORE PUSH1 0x64 ADD JUMPDEST PUSH1 0x40 MLOAD DUP1 SWAP2 SUB SWAP1 REVERT JUMPDEST PUSH1 0x0 SLOAD PUSH1 0x2 PUSH1 0x0 ADD SLOAD PUSH1 0x1 PUSH1 0x1 PUSH1 0xA0 SHL SUB AND CALLER EQ DUP1 ISZERO PUSH2 0x261 JUMPI POP DUP3 ISZERO JUMPDEST DUP1 ISZERO PUSH2 0x270 JUMPI POP DUP1 PUSH1 0x1 AND PUSH1 0x1 EQ JUMPDEST ISZERO PUSH2 0x281 JUMPI PUSH1 0x1 NOT AND PUSH1 0x2 OR PUSH2 0x464 JUMP JUMPDEST PUSH1 0x2 PUSH1 0x1 ADD SLOAD PUSH1 0x1 PUSH1 0x1 PUSH1 0xA0 SHL SUB AND CALLER EQ DUP1 ISZERO PUSH2 0x29E JUMPI POP DUP3 PUSH1 0x1 EQ JUMPDEST DUP1 ISZERO PUSH2 0x2AD JUMPI POP DUP1 PUSH1 0x2 AND PUSH1 0x2 EQ JUMPDEST ISZERO PUSH2 0x2BE JUMPI PUSH1 0x2 NOT AND PUSH1 0x4 OR PUSH2 0x464 JUMP JUMPDEST PUSH1 0x2 PUSH1 0x1 ADD SLOAD PUSH1 0x1 PUSH1 0x1 PUSH1 0xA0 SHL SUB AND CALLER EQ DUP1 ISZERO PUSH2 0x2DB JUMPI POP DUP3 PUSH1 0x2 EQ JUMPDEST DUP1 ISZERO PUSH2 0x2EA JUMPI POP DUP1 PUSH1 0x8 AND PUSH1 0x8 EQ JUMPDEST ISZERO PUSH2 0x2F8 JUMPI PUSH1 0x8 NOT AND PUSH2 0x464 JUMP JUMPDEST PUSH1 0x2 PUSH1 0x1 ADD SLOAD PUSH1 0x1 PUSH1 0x1 PUSH1 0xA0 SHL SUB AND CALLER EQ DUP1 ISZERO PUSH2 0x315 JUMPI POP DUP3 PUSH1 0x3 EQ JUMPDEST DUP1 ISZERO PUSH2 0x324 JUMPI POP DUP1 PUSH1 0x4 AND PUSH1 0x4 EQ JUMPDEST ISZERO PUSH2 0x335 JUMPI PUSH1 0x4 NOT AND PUSH1 0x10 OR PUSH2 0x464 JUMP JUMPDEST PUSH1 0x2 DUP1 ADD SLOAD PUSH1 0x1 PUSH1 0x1 PUSH1 0xA0 SHL SUB AND CALLER EQ DUP1 ISZERO PUSH2 0x351 JUMPI POP DUP3 PUSH1 0x4 EQ JUMPDEST DUP1 ISZERO PUSH2 0x360 JUMPI POP DUP1 PUSH1 0x20 AND PUSH1 0x20 EQ JUMPDEST ISZERO PUSH2 0x371 JUMPI PUSH1 0x20 NOT AND PUSH1 0x8 OR PUSH2 0x464 JUMP JUMPDEST PUSH1 0x2 DUP1 ADD SLOAD PUSH1 0x1 PUSH1 0x1 PUSH1 0xA0 SHL SUB AND CALLER EQ DUP1 ISZERO PUSH2 0x38D JUMPI POP DUP3 PUSH1 0x5 EQ JUMPDEST DUP1 ISZERO PUSH2 0x39C JUMPI POP DUP1 PUSH1 0x10 AND PUSH1 0x10 EQ JUMPDEST ISZERO PUSH2 0x3AD JUMPI PUSH1 0x10 NOT AND PUSH1 0x40 OR PUSH2 0x464 JUMP JUMPDEST PUSH1 0x2 PUSH1 0x3 ADD SLOAD PUSH1 0x1 PUSH1 0x1 PUSH1 0xA0 SHL SUB AND CALLER EQ DUP1 ISZERO PUSH2 0x3CA JUMPI POP DUP3 PUSH1 0x6 EQ JUMPDEST DUP1 ISZERO PUSH2 0x3D9 JUMPI POP DUP1 PUSH1 0x40 AND PUSH1 0x40 EQ JUMPDEST ISZERO PUSH2 0x3EA JUMPI PUSH1 0x40 NOT AND PUSH1 0x80 OR PUSH2 0x464 JUMP JUMPDEST PUSH1 0x2 PUSH1 0x4 ADD SLOAD PUSH1 0x1 PUSH1 0x1 PUSH1 0xA0 SHL SUB AND CALLER EQ DUP1 ISZERO PUSH2 0x407 JUMPI POP DUP3 PUSH1 0x7 EQ JUMPDEST DUP1 ISZERO PUSH2 0x416 JUMPI POP DUP1 PUSH1 0x80 AND PUSH1 0x80 EQ JUMPDEST ISZERO PUSH2 0x428 JUMPI PUSH1 0x80 NOT AND PUSH2 0x100 OR PUSH2 0x464 JUMP JUMPDEST PUSH1 0x2 PUSH1 0x3 ADD SLOAD PUSH1 0x1 PUSH1 0x1 PUSH1 0xA0 SHL SUB AND CALLER EQ DUP1 ISZERO PUSH2 0x445 JUMPI POP DUP3 PUSH1 0x8 EQ JUMPDEST DUP1 ISZERO PUSH2 0x456 JUMPI POP DUP1 PUSH2 0x100 AND PUSH2 0x100 EQ JUMPDEST ISZERO PUSH2 0x464 JUMPI PUSH2 0x100 NOT AND PUSH1 0x20 OR JUMPDEST JUMPDEST DUP1 ISZERO PUSH2 0x4B4 JUMPI DUP1 PUSH1 0x40 AND PUSH1 0x40 EQ ISZERO PUSH2 0x484 JUMPI PUSH1 0x40 NOT AND PUSH2 0x100 OR PUSH2 0x465 JUMP JUMPDEST DUP1 PUSH1 0x10 AND PUSH1 0x10 EQ ISZERO PUSH2 0x49C JUMPI PUSH1 0x10 NOT AND PUSH1 0x20 OR PUSH2 0x465 JUMP JUMPDEST DUP1 PUSH1 0x4 AND PUSH1 0x4 EQ ISZERO PUSH2 0x4B4 JUMPI PUSH1 0x4 NOT AND PUSH1 0x8 OR PUSH2 0x465 JUMP JUMPDEST PUSH1 0x0 SSTORE POP POP JUMP JUMPDEST PUSH1 0x0 DUP2 PUSH1 0x0 ADD CALLDATALOAD PUSH1 0x1 SLOAD LT PUSH2 0x4D2 JUMPI POP PUSH1 0x0 SWAP2 SWAP1 POP JUMP JUMPDEST PUSH1 0x40 DUP1 MLOAD PUSH1 0x0 SWAP2 PUSH2 0x51B SWAP2 DUP6 CALLDATALOAD SWAP2 DUP7 ADD CALLDATALOAD SWAP1 PUSH1 0x20 DUP1 DUP9 ADD CALLDATALOAD SWAP2 PUSH1 0x60 DUP10 ADD CALLDATALOAD SWAP2 PUSH1 0x80 DUP11 ADD CALLDATALOAD SWAP2 ADD SWAP5 DUP6 MSTORE PUSH1 0x20 DUP6 ADD SWAP4 SWAP1 SWAP4 MSTORE PUSH1 0x40 DUP5 ADD SWAP2 SWAP1 SWAP2 MSTORE PUSH1 0x60 DUP4 ADD MSTORE PUSH1 0x80 DUP3 ADD MSTORE PUSH1 0xA0 ADD SWAP1 JUMP JUMPDEST PUSH1 0x40 MLOAD PUSH1 0x20 DUP2 DUP4 SUB SUB DUP2 MSTORE SWAP1 PUSH1 0x40 MSTORE DUP1 MLOAD SWAP1 PUSH1 0x20 ADD KECCAK256 SWAP1 POP PUSH1 0x0 JUMPDEST PUSH1 0x5 DUP2 LT ISZERO PUSH2 0x5FE JUMPI PUSH1 0x2 DUP2 PUSH1 0x5 DUP2 LT PUSH2 0x552 JUMPI PUSH2 0x552 PUSH2 0x954 JUMP JUMPDEST ADD SLOAD PUSH1 0x1 PUSH1 0x1 PUSH1 0xA0 SHL SUB AND PUSH2 0x5D4 PUSH2 0x56D PUSH1 0xA0 DUP8 ADD DUP8 PUSH2 0x96A JUMP JUMPDEST DUP4 PUSH1 0x5 DUP2 LT PUSH2 0x57E JUMPI PUSH2 0x57E PUSH2 0x954 JUMP JUMPDEST PUSH1 0x20 MUL DUP2 ADD SWAP1 PUSH2 0x58E SWAP2 SWAP1 PUSH2 0x98A JUMP JUMPDEST DUP1 DUP1 PUSH1 0x1F ADD PUSH1 0x20 DUP1 SWAP2 DIV MUL PUSH1 0x20 ADD PUSH1 0x40 MLOAD SWAP1 DUP2 ADD PUSH1 0x40 MSTORE DUP1 SWAP4 SWAP3 SWAP2 SWAP1 DUP2 DUP2 MSTORE PUSH1 0x20 ADD DUP4 DUP4 DUP1 DUP3 DUP5 CALLDATACOPY PUSH1 0x0 SWAP3 ADD SWAP2 SWAP1 SWAP2 MSTORE POP PUSH2 0x5CE SWAP3 POP DUP8 SWAP2 POP PUSH2 0x608 SWAP1 POP JUMP JUMPDEST SWAP1 PUSH2 0x65B JUMP JUMPDEST PUSH1 0x1 PUSH1 0x1 PUSH1 0xA0 SHL SUB AND EQ PUSH2 0x5EC JUMPI POP PUSH1 0x0 SWAP4 SWAP3 POP POP POP JUMP JUMPDEST DUP1 PUSH2 0x5F6 DUP2 PUSH2 0x9D1 JUMP JUMPDEST SWAP2 POP POP PUSH2 0x536 JUMP JUMPDEST POP PUSH1 0x1 SWAP4 SWAP3 POP POP POP JUMP JUMPDEST PUSH1 0x40 MLOAD PUSH32 0x19457468657265756D205369676E6564204D6573736167653A0A333200000000 PUSH1 0x20 DUP3 ADD MSTORE PUSH1 0x3C DUP2 ADD DUP3 SWAP1 MSTORE PUSH1 0x0 SWAP1 PUSH1 0x5C ADD PUSH1 0x40 MLOAD PUSH1 0x20 DUP2 DUP4 SUB SUB DUP2 MSTORE SWAP1 PUSH1 0x40 MSTORE DUP1 MLOAD SWAP1 PUSH1 0x20 ADD KECCAK256 SWAP1 POP SWAP2 SWAP1 POP JUMP JUMPDEST PUSH1 0x0 DUP1 PUSH1 0x0 PUSH2 0x66A DUP6 DUP6 PUSH2 0x67F JUMP JUMPDEST SWAP2 POP SWAP2 POP PUSH2 0x677 DUP2 PUSH2 0x6C5 JUMP JUMPDEST POP SWAP4 SWAP3 POP POP POP JUMP JUMPDEST PUSH1 0x0 DUP1 DUP3 MLOAD PUSH1 0x41 EQ ISZERO PUSH2 0x6B6 JUMPI PUSH1 0x20 DUP4 ADD MLOAD PUSH1 0x40 DUP5 ADD MLOAD PUSH1 0x60 DUP6 ADD MLOAD PUSH1 0x0 BYTE PUSH2 0x6AA DUP8 DUP3 DUP6 DUP6 PUSH2 0x811 JUMP JUMPDEST SWAP5 POP SWAP5 POP POP POP POP PUSH2 0x6BE JUMP JUMPDEST POP PUSH1 0x0 SWAP1 POP PUSH1 0x2 JUMPDEST SWAP3 POP SWAP3 SWAP1 POP JUMP JUMPDEST PUSH1 0x0 DUP2 PUSH1 0x4 DUP2 GT ISZERO PUSH2 0x6D9 JUMPI PUSH2 0x6D9 PUSH2 0x9EC JUMP JUMPDEST EQ ISZERO PUSH2 0x6E2 JUMPI POP JUMP JUMPDEST PUSH1 0x1 DUP2 PUSH1 0x4 DUP2 GT ISZERO PUSH2 0x6F6 JUMPI PUSH2 0x6F6 PUSH2 0x9EC JUMP JUMPDEST EQ ISZERO PUSH2 0x73F JUMPI PUSH1 0x40 MLOAD PUSH3 0x461BCD PUSH1 0xE5 SHL DUP2 MSTORE PUSH1 0x20 PUSH1 0x4 DUP3 ADD MSTORE PUSH1 0x18 PUSH1 0x24 DUP3 ADD MSTORE PUSH24 0x45434453413A20696E76616C6964207369676E6174757265 PUSH1 0x40 SHL PUSH1 0x44 DUP3 ADD MSTORE PUSH1 0x64 ADD PUSH2 0x23A JUMP JUMPDEST PUSH1 0x2 DUP2 PUSH1 0x4 DUP2 GT ISZERO PUSH2 0x753 JUMPI PUSH2 0x753 PUSH2 0x9EC JUMP JUMPDEST EQ ISZERO PUSH2 0x7A1 JUMPI PUSH1 0x40 MLOAD PUSH3 0x461BCD PUSH1 0xE5 SHL DUP2 MSTORE PUSH1 0x20 PUSH1 0x4 DUP3 ADD MSTORE PUSH1 0x1F PUSH1 0x24 DUP3 ADD MSTORE PUSH32 0x45434453413A20696E76616C6964207369676E6174757265206C656E67746800 PUSH1 0x44 DUP3 ADD MSTORE PUSH1 0x64 ADD PUSH2 0x23A JUMP JUMPDEST PUSH1 0x3 DUP2 PUSH1 0x4 DUP2 GT ISZERO PUSH2 0x7B5 JUMPI PUSH2 0x7B5 PUSH2 0x9EC JUMP JUMPDEST EQ ISZERO PUSH2 0x80E JUMPI PUSH1 0x40 MLOAD PUSH3 0x461BCD PUSH1 0xE5 SHL DUP2 MSTORE PUSH1 0x20 PUSH1 0x4 DUP3 ADD MSTORE PUSH1 0x22 PUSH1 0x24 DUP3 ADD MSTORE PUSH32 0x45434453413A20696E76616C6964207369676E6174757265202773272076616C PUSH1 0x44 DUP3 ADD MSTORE PUSH2 0x7565 PUSH1 0xF0 SHL PUSH1 0x64 DUP3 ADD MSTORE PUSH1 0x84 ADD PUSH2 0x23A JUMP JUMPDEST POP JUMP JUMPDEST PUSH1 0x0 DUP1 PUSH16 0xA2A8918CA85BAFE22016D0B997E4DF60 PUSH1 0x1 PUSH1 0xFF SHL SUB DUP4 GT ISZERO PUSH2 0x83E JUMPI POP PUSH1 0x0 SWAP1 POP PUSH1 0x3 PUSH2 0x8C2 JUMP JUMPDEST PUSH1 0x40 DUP1 MLOAD PUSH1 0x0 DUP1 DUP3 MSTORE PUSH1 0x20 DUP3 ADD DUP1 DUP5 MSTORE DUP10 SWAP1 MSTORE PUSH1 0xFF DUP9 AND SWAP3 DUP3 ADD SWAP3 SWAP1 SWAP3 MSTORE PUSH1 0x60 DUP2 ADD DUP7 SWAP1 MSTORE PUSH1 0x80 DUP2 ADD DUP6 SWAP1 MSTORE PUSH1 0x1 SWAP1 PUSH1 0xA0 ADD PUSH1 0x20 PUSH1 0x40 MLOAD PUSH1 0x20 DUP2 SUB SWAP1 DUP1 DUP5 SUB SWAP1 DUP6 GAS STATICCALL ISZERO DUP1 ISZERO PUSH2 0x892 JUMPI RETURNDATASIZE PUSH1 0x0 DUP1 RETURNDATACOPY RETURNDATASIZE PUSH1 0x0 REVERT JUMPDEST POP POP PUSH1 0x40 MLOAD PUSH1 0x1F NOT ADD MLOAD SWAP2 POP POP PUSH1 0x1 PUSH1 0x1 PUSH1 0xA0 SHL SUB DUP2 AND PUSH2 0x8BB JUMPI PUSH1 0x0 PUSH1 0x1 SWAP3 POP SWAP3 POP POP PUSH2 0x8C2 JUMP JUMPDEST SWAP2 POP PUSH1 0x0 SWAP1 POP JUMPDEST SWAP5 POP SWAP5 SWAP3 POP POP POP JUMP JUMPDEST PUSH1 0x0 PUSH1 0x20 DUP3 DUP5 SUB SLT ISZERO PUSH2 0x8DD JUMPI PUSH1 0x0 DUP1 REVERT JUMPDEST DUP2 CALLDATALOAD PUSH8 0xFFFFFFFFFFFFFFFF DUP2 GT ISZERO PUSH2 0x8F4 JUMPI PUSH1 0x0 DUP1 REVERT JUMPDEST DUP3 ADD PUSH1 0xC0 DUP2 DUP6 SUB SLT ISZERO PUSH2 0x906 JUMPI PUSH1 0x0 DUP1 REVERT JUMPDEST SWAP4 SWAP3 POP POP POP JUMP JUMPDEST PUSH1 0x0 PUSH1 0x20 DUP3 DUP5 SUB SLT ISZERO PUSH2 0x91F JUMPI PUSH1 0x0 DUP1 REVERT JUMPDEST POP CALLDATALOAD SWAP2 SWAP1 POP JUMP JUMPDEST PUSH4 0x4E487B71 PUSH1 0xE0 SHL PUSH1 0x0 MSTORE PUSH1 0x11 PUSH1 0x4 MSTORE PUSH1 0x24 PUSH1 0x0 REVERT JUMPDEST PUSH1 0x0 DUP3 NOT DUP3 GT ISZERO PUSH2 0x94F JUMPI PUSH2 0x94F PUSH2 0x926 JUMP JUMPDEST POP ADD SWAP1 JUMP JUMPDEST PUSH4 0x4E487B71 PUSH1 0xE0 SHL PUSH1 0x0 MSTORE PUSH1 0x32 PUSH1 0x4 MSTORE PUSH1 0x24 PUSH1 0x0 REVERT JUMPDEST PUSH1 0x0 DUP3 CALLDATALOAD PUSH1 0x9E NOT DUP4 CALLDATASIZE SUB ADD DUP2 SLT PUSH2 0x980 JUMPI PUSH1 0x0 DUP1 REVERT JUMPDEST SWAP2 SWAP1 SWAP2 ADD SWAP3 SWAP2 POP POP JUMP JUMPDEST PUSH1 0x0 DUP1 DUP4 CALLDATALOAD PUSH1 0x1E NOT DUP5 CALLDATASIZE SUB ADD DUP2 SLT PUSH2 0x9A1 JUMPI PUSH1 0x0 DUP1 REVERT JUMPDEST DUP4 ADD DUP1 CALLDATALOAD SWAP2 POP PUSH8 0xFFFFFFFFFFFFFFFF DUP3 GT ISZERO PUSH2 0x9BC JUMPI PUSH1 0x0 DUP1 REVERT JUMPDEST PUSH1 0x20 ADD SWAP2 POP CALLDATASIZE DUP2 SWAP1 SUB DUP3 SGT ISZERO PUSH2 0x6BE JUMPI PUSH1 0x0 DUP1 REVERT JUMPDEST PUSH1 0x0 PUSH1 0x0 NOT DUP3 EQ ISZERO PUSH2 0x9E5 JUMPI PUSH2 0x9E5 PUSH2 0x926 JUMP JUMPDEST POP PUSH1 0x1 ADD SWAP1 JUMP JUMPDEST PUSH4 0x4E487B71 PUSH1 0xE0 SHL PUSH1 0x0 MSTORE PUSH1 0x21 PUSH1 0x4 MSTORE PUSH1 0x24 PUSH1 0x0 REVERT INVALID LOG2 PUSH5 0x6970667358 0x22 SLT KECCAK256 DUP8 SLOAD DIFFICULTY 0x5F GASLIMIT CALLCODE 0xBE 0xBA JUMPI 0x4E 0xBF PUSH21 0x2AF48F2B8942EFE72C823D91FA026D3360EFC6A264 PUSH20 0x6F6C634300080900330000000000000000000000 "
    }
  }
}