{
  "abi": [
    {
      "inputs": [
        {
          "internalType": "address[5]",
          "name": "_participants",
          "type": "address[5]"
        },
        {
          "internalType": "uint256",
          "name": "_disputeWindowInUNIX",
          "type": "uint256"
        }
      ],
      "stateMutability": "nonpayable",
      "type": "constructor"
    },
    {
      "inputs": [
        {
          "internalType": "uint256",
          "name": "id",
          "type": "uint256"
        }
      ],
      "name": "continueAfterDispute",
      "outputs": [],
      "stateMutability": "nonpayable",
      "type": "function"
    },
    {
      "inputs": [],
      "name": "disputeMadeAtUNIX",
      "outputs": [
        {
          "internalType": "uint256",
          "name": "",
          "type": "uint256"
        }
      ],
      "stateMutability": "view",
      "type": "function"
    },
    {
      "inputs": [],
      "name": "disputeWindowInUNIX",
      "outputs": [
        {
          "internalType": "uint256",
          "name": "",
          "type": "uint256"
        }
      ],
      "stateMutability": "view",
      "type": "function"
    },
    {
      "inputs": [],
      "name": "index",
      "outputs": [
        {
          "internalType": "uint256",
          "name": "",
          "type": "uint256"
        }
      ],
      "stateMutability": "view",
      "type": "function"
    },
    {
      "inputs": [
        {
          "internalType": "uint256",
          "name": "",
          "type": "uint256"
        }
      ],
      "name": "participants",
      "outputs": [
        {
          "internalType": "address",
          "name": "",
          "type": "address"
        }
      ],
      "stateMutability": "view",
      "type": "function"
    },
    {
      "inputs": [
        {
          "components": [
            {
              "internalType": "uint256",
              "name": "index",
              "type": "uint256"
            },
            {
              "internalType": "uint256",
              "name": "from",
              "type": "uint256"
            },
            {
              "internalType": "uint256",
              "name": "caseID",
              "type": "uint256"
            },
            {
              "internalType": "uint256",
              "name": "taskID",
              "type": "uint256"
            },
            {
              "internalType": "uint256",
              "name": "newTokenState",
              "type": "uint256"
            },
            {
              "internalType": "bytes[5]",
              "name": "signatures",
              "type": "bytes[5]"
            }
          ],
          "internalType": "struct IM_ProcessChannel.Step",
          "name": "_step",
          "type": "tuple"
        }
      ],
      "name": "submit",
      "outputs": [],
      "stateMutability": "nonpayable",
      "type": "function"
    },
    {
      "inputs": [],
      "name": "tokenState",
      "outputs": [
        {
          "internalType": "uint256",
          "name": "",
          "type": "uint256"
        }
      ],
      "stateMutability": "view",
      "type": "function"
    }
  ],
  "evm": {
    "bytecode": {
      "linkReferences": {},
      "object": "60a060405260016000556000600155600060075534801561001f57600080fd5b50604051610b77380380610b7783398101604081905261003e916100f4565b61004b6002836005610055565b506080525061017d565b826005810192821561009d579160200282015b8281111561009d57825182546001600160a01b0319166001600160a01b03909116178255602090920191600190910190610068565b506100a99291506100ad565b5090565b5b808211156100a957600081556001016100ae565b634e487b7160e01b600052604160045260246000fd5b80516001600160a01b03811681146100ef57600080fd5b919050565b60008060c0838503121561010757600080fd5b83601f84011261011657600080fd5b60405160a081016001600160401b0381118282101715610138576101386100c2565b6040528060a085018681111561014d57600080fd5b855b8181101561016e57610160816100d8565b83526020928301920161014f565b50519196919550909350505050565b6080516109d961019e6000396000818160dc01526101b601526109d96000f3fe608060405234801561001057600080fd5b506004361061006d5760003560e01c80631db630ea146100725780632986c0e5146100875780633594b762146100a357806335c1d349146100ac578063421f9e34146100d7578063467ad0e9146100fe578063e90dd9e214610111575b600080fd5b61008561008036600461086c565b61011a565b005b61009060015481565b6040519081526020015b60405180910390f35b61009060075481565b6100bf6100ba3660046108ae565b610183565b6040516001600160a01b03909116815260200161009a565b6100907f000000000000000000000000000000000000000000000000000000000000000081565b61008561010c3660046108ae565b6101a3565b61009060005481565b600754813515801561012a575080155b801561013857506000546001145b1561014257426007555b61014b8261045b565b8015610168575080158061016857504261016582806108dd565b10155b1561017f5742600755813560015560808201356000555b5050565b6002816005811061019357600080fd5b01546001600160a01b0316905081565b60075480158015906101dd5750426101db7f0000000000000000000000000000000000000000000000000000000000000000836108dd565b105b6102235760405162461bcd60e51b81526020600482015260126024820152714e6f20656c6170736564206469737075746560701b60448201526064015b60405180910390fd5b6000546002600001546001600160a01b031633148015610241575082155b80156102505750806001166001145b156102615760011916600217610443565b6002600101546001600160a01b03163314801561027e5750826001145b801561028d5750806002166002145b1561029e5760021916600417610443565b6002600101546001600160a01b0316331480156102bb5750826002145b80156102ca5750806004166004145b156102db5760041916600817610443565b6002600101546001600160a01b0316331480156102f85750826003145b80156103075750806004166004145b156103185760041916601017610443565b60028001546001600160a01b0316331480156103345750826004145b80156103435750806010166010145b156103545760101916600417610443565b60028001546001600160a01b0316331480156103705750826005145b801561037f5750806010166010145b156103905760101916602017610443565b6002600301546001600160a01b0316331480156103ad5750826006145b80156103bc5750806020166020145b156103cd5760201916604017610443565b6002600401546001600160a01b0316331480156103ea5750826007145b80156103f95750806040166040145b1561040a5760401916602017610443565b6002600301546001600160a01b0316331480156104275750826008145b80156104365750806020166020145b1561044357602019166010175b806008166008141561045457600819165b6000555050565b600081600001356001541061047257506000919050565b604080516000916104bb91853591860135906020808801359160608901359160808a01359101948552602085019390935260408401919091526060830152608082015260a00190565b60405160208183030381529060405280519060200120905060005b600581101561059f57600281600581106104f2576104f26108f5565b01546001600160a01b031661057461050d60a087018761090b565b836005811061051e5761051e6108f5565b60200281019061052e919061092b565b8080601f01602080910402602001604051908101604052809392919081815260200183838082843760009201919091525061056e92508791506105a99050565b906105fc565b6001600160a01b0316141561058d575060009392505050565b8061059781610972565b9150506104d6565b5060019392505050565b6040517f19457468657265756d205369676e6564204d6573736167653a0a3332000000006020820152603c8101829052600090605c01604051602081830303815290604052805190602001209050919050565b600080600061060b8585610620565b9150915061061881610666565b509392505050565b6000808251604114156106575760208301516040840151606085015160001a61064b878285856107b2565b9450945050505061065f565b506000905060025b9250929050565b600081600481111561067a5761067a61098d565b14156106835750565b60018160048111156106975761069761098d565b14156106e05760405162461bcd60e51b815260206004820152601860248201527745434453413a20696e76616c6964207369676e617475726560401b604482015260640161021a565b60028160048111156106f4576106f461098d565b14156107425760405162461bcd60e51b815260206004820152601f60248201527f45434453413a20696e76616c6964207369676e6174757265206c656e67746800604482015260640161021a565b60038160048111156107565761075661098d565b14156107af5760405162461bcd60e51b815260206004820152602260248201527f45434453413a20696e76616c6964207369676e6174757265202773272076616c604482015261756560f01b606482015260840161021a565b50565b6000806fa2a8918ca85bafe22016d0b997e4df60600160ff1b038311156107df5750600090506003610863565b6040805160008082526020820180845289905260ff881692820192909252606081018690526080810185905260019060a0016020604051602081039080840390855afa158015610833573d6000803e3d6000fd5b5050604051601f1901519150506001600160a01b03811661085c57600060019250925050610863565b9150600090505b94509492505050565b60006020828403121561087e57600080fd5b813567ffffffffffffffff81111561089557600080fd5b820160c081850312156108a757600080fd5b9392505050565b6000602082840312156108c057600080fd5b5035919050565b634e487b7160e01b600052601160045260246000fd5b600082198211156108f0576108f06108c7565b500190565b634e487b7160e01b600052603260045260246000fd5b60008235609e1983360301811261092157600080fd5b9190910192915050565b6000808335601e1984360301811261094257600080fd5b83018035915067ffffffffffffffff82111561095d57600080fd5b60200191503681900382131561065f57600080fd5b6000600019821415610986576109866108c7565b5060010190565b634e487b7160e01b600052602160045260246000fdfea264697066735822122072ef0433c2ef0489b74aa2747c2e7ee79c3bdf2d81d79f2a620adef80de54abb64736f6c63430008090033",
      "opcodes": "PUSH1 0xA0 PUSH1 0x40 MSTORE PUSH1 0x1 PUSH1 0x0 SSTORE PUSH1 0x0 PUSH1 0x1 SSTORE PUSH1 0x0 PUSH1 0x7 SSTORE CALLVALUE DUP1 ISZERO PUSH2 0x1F JUMPI PUSH1 0x0 DUP1 REVERT JUMPDEST POP PUSH1 0x40 MLOAD PUSH2 0xB77 CODESIZE SUB DUP1 PUSH2 0xB77 DUP4 CODECOPY DUP2 ADD PUSH1 0x40 DUP2 SWAP1 MSTORE PUSH2 0x3E SWAP2 PUSH2 0xF4 JUMP JUMPDEST PUSH2 0x4B PUSH1 0x2 DUP4 PUSH1 0x5 PUSH2 0x55 JUMP JUMPDEST POP PUSH1 0x80 MSTORE POP PUSH2 0x17D JUMP JUMPDEST DUP3 PUSH1 0x5 DUP2 ADD SWAP3 DUP3 ISZERO PUSH2 0x9D JUMPI SWAP2 PUSH1 0x20 MUL DUP3 ADD JUMPDEST DUP3 DUP2 GT ISZERO PUSH2 0x9D JUMPI DUP3 MLOAD DUP3 SLOAD PUSH1 0x1 PUSH1 0x1 PUSH1 0xA0 SHL SUB NOT AND PUSH1 0x1 PUSH1 0x1 PUSH1 0xA0 SHL SUB SWAP1 SWAP2 AND OR DUP3 SSTORE PUSH1 0x20 SWAP1 SWAP3 ADD SWAP2 PUSH1 0x1 SWAP1 SWAP2 ADD SWAP1 PUSH2 0x68 JUMP JUMPDEST POP PUSH2 0xA9 SWAP3 SWAP2 POP PUSH2 0xAD JUMP JUMPDEST POP SWAP1 JUMP JUMPDEST JUMPDEST DUP1 DUP3 GT ISZERO PUSH2 0xA9 JUMPI PUSH1 0x0 DUP2 SSTORE PUSH1 0x1 ADD PUSH2 0xAE JUMP JUMPDEST PUSH4 0x4E487B71 PUSH1 0xE0 SHL PUSH1 0x0 MSTORE PUSH1 0x41 PUSH1 0x4 MSTORE PUSH1 0x24 PUSH1 0x0 REVERT JUMPDEST DUP1 MLOAD PUSH1 0x1 PUSH1 0x1 PUSH1 0xA0 SHL SUB DUP2 AND DUP2 EQ PUSH2 0xEF JUMPI PUSH1 0x0 DUP1 REVERT JUMPDEST SWAP2 SWAP1 POP JUMP JUMPDEST PUSH1 0x0 DUP1 PUSH1 0xC0 DUP4 DUP6 SUB SLT ISZERO PUSH2 0x107 JUMPI PUSH1 0x0 DUP1 REVERT JUMPDEST DUP4 PUSH1 0x1F DUP5 ADD SLT PUSH2 0x116 JUMPI PUSH1 0x0 DUP1 REVERT JUMPDEST PUSH1 0x40 MLOAD PUSH1 0xA0 DUP2 ADD PUSH1 0x1 PUSH1 0x1 PUSH1 0x40 SHL SUB DUP2 GT DUP3 DUP3 LT OR ISZERO PUSH2 0x138 JUMPI PUSH2 0x138 PUSH2 0xC2 JUMP JUMPDEST PUSH1 0x40 MSTORE DUP1 PUSH1 0xA0 DUP6 ADD DUP7 DUP2 GT ISZERO PUSH2 0x14D JUMPI PUSH1 0x0 DUP1 REVERT JUMPDEST DUP6 JUMPDEST DUP2 DUP2 LT ISZERO PUSH2 0x16E JUMPI PUSH2 0x160 DUP2 PUSH2 0xD8 JUMP JUMPDEST DUP4 MSTORE PUSH1 0x20 SWAP3 DUP4 ADD SWAP3 ADD PUSH2 0x14F JUMP JUMPDEST POP MLOAD SWAP2 SWAP7 SWAP2 SWAP6 POP SWAP1 SWAP4 POP POP POP POP JUMP JUMPDEST PUSH1 0x80 MLOAD PUSH2 0x9D9 PUSH2 0x19E PUSH1 0x0 CODECOPY PUSH1 0x0 DUP2 DUP2 PUSH1 0xDC ADD MSTORE PUSH2 0x1B6 ADD MSTORE PUSH2 0x9D9 PUSH1 0x0 RETURN INVALID PUSH1 0x80 PUSH1 0x40 MSTORE CALLVALUE DUP1 ISZERO PUSH2 0x10 JUMPI PUSH1 0x0 DUP1 REVERT JUMPDEST POP PUSH1 0x4 CALLDATASIZE LT PUSH2 0x6D JUMPI PUSH1 0x0 CALLDATALOAD PUSH1 0xE0 SHR DUP1 PUSH4 0x1DB630EA EQ PUSH2 0x72 JUMPI DUP1 PUSH4 0x2986C0E5 EQ PUSH2 0x87 JUMPI DUP1 PUSH4 0x3594B762 EQ PUSH2 0xA3 JUMPI DUP1 PUSH4 0x35C1D349 EQ PUSH2 0xAC JUMPI DUP1 PUSH4 0x421F9E34 EQ PUSH2 0xD7 JUMPI DUP1 PUSH4 0x467AD0E9 EQ PUSH2 0xFE JUMPI DUP1 PUSH4 0xE90DD9E2 EQ PUSH2 0x111 JUMPI JUMPDEST PUSH1 0x0 DUP1 REVERT JUMPDEST PUSH2 0x85 PUSH2 0x80 CALLDATASIZE PUSH1 0x4 PUSH2 0x86C JUMP JUMPDEST PUSH2 0x11A JUMP JUMPDEST STOP JUMPDEST PUSH2 0x90 PUSH1 0x1 SLOAD DUP2 JUMP JUMPDEST PUSH1 0x40 MLOAD SWAP1 DUP2 MSTORE PUSH1 0x20 ADD JUMPDEST PUSH1 0x40 MLOAD DUP1 SWAP2 SUB SWAP1 RETURN JUMPDEST PUSH2 0x90 PUSH1 0x7 SLOAD DUP2 JUMP JUMPDEST PUSH2 0xBF PUSH2 0xBA CALLDATASIZE PUSH1 0x4 PUSH2 0x8AE JUMP JUMPDEST PUSH2 0x183 JUMP JUMPDEST PUSH1 0x40 MLOAD PUSH1 0x1 PUSH1 0x1 PUSH1 0xA0 SHL SUB SWAP1 SWAP2 AND DUP2 MSTORE PUSH1 0x20 ADD PUSH2 0x9A JUMP JUMPDEST PUSH2 0x90 PUSH32 0x0 DUP2 JUMP JUMPDEST PUSH2 0x85 PUSH2 0x10C CALLDATASIZE PUSH1 0x4 PUSH2 0x8AE JUMP JUMPDEST PUSH2 0x1A3 JUMP JUMPDEST PUSH2 0x90 PUSH1 0x0 SLOAD DUP2 JUMP JUMPDEST PUSH1 0x7 SLOAD DUP2 CALLDATALOAD ISZERO DUP1 ISZERO PUSH2 0x12A JUMPI POP DUP1 ISZERO JUMPDEST DUP1 ISZERO PUSH2 0x138 JUMPI POP PUSH1 0x0 SLOAD PUSH1 0x1 EQ JUMPDEST ISZERO PUSH2 0x142 JUMPI TIMESTAMP PUSH1 0x7 SSTORE JUMPDEST PUSH2 0x14B DUP3 PUSH2 0x45B JUMP JUMPDEST DUP1 ISZERO PUSH2 0x168 JUMPI POP DUP1 ISZERO DUP1 PUSH2 0x168 JUMPI POP TIMESTAMP PUSH2 0x165 DUP3 DUP1 PUSH2 0x8DD JUMP JUMPDEST LT ISZERO JUMPDEST ISZERO PUSH2 0x17F JUMPI TIMESTAMP PUSH1 0x7 SSTORE DUP2 CALLDATALOAD PUSH1 0x1 SSTORE PUSH1 0x80 DUP3 ADD CALLDATALOAD PUSH1 0x0 SSTORE JUMPDEST POP POP JUMP JUMPDEST PUSH1 0x2 DUP2 PUSH1 0x5 DUP2 LT PUSH2 0x193 JUMPI PUSH1 0x0 DUP1 REVERT JUMPDEST ADD SLOAD PUSH1 0x1 PUSH1 0x1 PUSH1 0xA0 SHL SUB AND SWAP1 POP DUP2 JUMP JUMPDEST PUSH1 0x7 SLOAD DUP1 ISZERO DUP1 ISZERO SWAP1 PUSH2 0x1DD JUMPI POP TIMESTAMP PUSH2 0x1DB PUSH32 0x0 DUP4 PUSH2 0x8DD JUMP JUMPDEST LT JUMPDEST PUSH2 0x223 JUMPI PUSH1 0x40 MLOAD PUSH3 0x461BCD PUSH1 0xE5 SHL DUP2 MSTORE PUSH1 0x20 PUSH1 0x4 DUP3 ADD MSTORE PUSH1 0x12 PUSH1 0x24 DUP3 ADD MSTORE PUSH18 0x4E6F20656C61707365642064697370757465 PUSH1 0x70 SHL PUSH1 0x44 DUP3 ADD MSTORE PUSH1 0x64 ADD JUMPDEST PUSH1 0x40 MLOAD DUP1 SWAP2 SUB SWAP1 REVERT JUMPDEST PUSH1 0x0 SLOAD PUSH1 0x2 PUSH1 0x0 ADD SLOAD PUSH1 0x1 PUSH1 0x1 PUSH1 0xA0 SHL SUB AND CALLER EQ DUP1 ISZERO PUSH2 0x241 JUMPI POP DUP3 ISZERO JUMPDEST DUP1 ISZERO PUSH2 0x250 JUMPI POP DUP1 PUSH1 0x1 AND PUSH1 0x1 EQ JUMPDEST ISZERO PUSH2 0x261 JUMPI PUSH1 0x1 NOT AND PUSH1 0x2 OR PUSH2 0x443 JUMP JUMPDEST PUSH1 0x2 PUSH1 0x1 ADD SLOAD PUSH1 0x1 PUSH1 0x1 PUSH1 0xA0 SHL SUB AND CALLER EQ DUP1 ISZERO PUSH2 0x27E JUMPI POP DUP3 PUSH1 0x1 EQ JUMPDEST DUP1 ISZERO PUSH2 0x28D JUMPI POP DUP1 PUSH1 0x2 AND PUSH1 0x2 EQ JUMPDEST ISZERO PUSH2 0x29E JUMPI PUSH1 0x2 NOT AND PUSH1 0x4 OR PUSH2 0x443 JUMP JUMPDEST PUSH1 0x2 PUSH1 0x1 ADD SLOAD PUSH1 0x1 PUSH1 0x1 PUSH1 0xA0 SHL SUB AND CALLER EQ DUP1 ISZERO PUSH2 0x2BB JUMPI POP DUP3 PUSH1 0x2 EQ JUMPDEST DUP1 ISZERO PUSH2 0x2CA JUMPI POP DUP1 PUSH1 0x4 AND PUSH1 0x4 EQ JUMPDEST ISZERO PUSH2 0x2DB JUMPI PUSH1 0x4 NOT AND PUSH1 0x8 OR PUSH2 0x443 JUMP JUMPDEST PUSH1 0x2 PUSH1 0x1 ADD SLOAD PUSH1 0x1 PUSH1 0x1 PUSH1 0xA0 SHL SUB AND CALLER EQ DUP1 ISZERO PUSH2 0x2F8 JUMPI POP DUP3 PUSH1 0x3 EQ JUMPDEST DUP1 ISZERO PUSH2 0x307 JUMPI POP DUP1 PUSH1 0x4 AND PUSH1 0x4 EQ JUMPDEST ISZERO PUSH2 0x318 JUMPI PUSH1 0x4 NOT AND PUSH1 0x10 OR PUSH2 0x443 JUMP JUMPDEST PUSH1 0x2 DUP1 ADD SLOAD PUSH1 0x1 PUSH1 0x1 PUSH1 0xA0 SHL SUB AND CALLER EQ DUP1 ISZERO PUSH2 0x334 JUMPI POP DUP3 PUSH1 0x4 EQ JUMPDEST DUP1 ISZERO PUSH2 0x343 JUMPI POP DUP1 PUSH1 0x10 AND PUSH1 0x10 EQ JUMPDEST ISZERO PUSH2 0x354 JUMPI PUSH1 0x10 NOT AND PUSH1 0x4 OR PUSH2 0x443 JUMP JUMPDEST PUSH1 0x2 DUP1 ADD SLOAD PUSH1 0x1 PUSH1 0x1 PUSH1 0xA0 SHL SUB AND CALLER EQ DUP1 ISZERO PUSH2 0x370 JUMPI POP DUP3 PUSH1 0x5 EQ JUMPDEST DUP1 ISZERO PUSH2 0x37F JUMPI POP DUP1 PUSH1 0x10 AND PUSH1 0x10 EQ JUMPDEST ISZERO PUSH2 0x390 JUMPI PUSH1 0x10 NOT AND PUSH1 0x20 OR PUSH2 0x443 JUMP JUMPDEST PUSH1 0x2 PUSH1 0x3 ADD SLOAD PUSH1 0x1 PUSH1 0x1 PUSH1 0xA0 SHL SUB AND CALLER EQ DUP1 ISZERO PUSH2 0x3AD JUMPI POP DUP3 PUSH1 0x6 EQ JUMPDEST DUP1 ISZERO PUSH2 0x3BC JUMPI POP DUP1 PUSH1 0x20 AND PUSH1 0x20 EQ JUMPDEST ISZERO PUSH2 0x3CD JUMPI PUSH1 0x20 NOT AND PUSH1 0x40 OR PUSH2 0x443 JUMP JUMPDEST PUSH1 0x2 PUSH1 0x4 ADD SLOAD PUSH1 0x1 PUSH1 0x1 PUSH1 0xA0 SHL SUB AND CALLER EQ DUP1 ISZERO PUSH2 0x3EA JUMPI POP DUP3 PUSH1 0x7 EQ JUMPDEST DUP1 ISZERO PUSH2 0x3F9 JUMPI POP DUP1 PUSH1 0x40 AND PUSH1 0x40 EQ JUMPDEST ISZERO PUSH2 0x40A JUMPI PUSH1 0x40 NOT AND PUSH1 0x20 OR PUSH2 0x443 JUMP JUMPDEST PUSH1 0x2 PUSH1 0x3 ADD SLOAD PUSH1 0x1 PUSH1 0x1 PUSH1 0xA0 SHL SUB AND CALLER EQ DUP1 ISZERO PUSH2 0x427 JUMPI POP DUP3 PUSH1 0x8 EQ JUMPDEST DUP1 ISZERO PUSH2 0x436 JUMPI POP DUP1 PUSH1 0x20 AND PUSH1 0x20 EQ JUMPDEST ISZERO PUSH2 0x443 JUMPI PUSH1 0x20 NOT AND PUSH1 0x10 OR JUMPDEST DUP1 PUSH1 0x8 AND PUSH1 0x8 EQ ISZERO PUSH2 0x454 JUMPI PUSH1 0x8 NOT AND JUMPDEST PUSH1 0x0 SSTORE POP POP JUMP JUMPDEST PUSH1 0x0 DUP2 PUSH1 0x0 ADD CALLDATALOAD PUSH1 0x1 SLOAD LT PUSH2 0x472 JUMPI POP PUSH1 0x0 SWAP2 SWAP1 POP JUMP JUMPDEST PUSH1 0x40 DUP1 MLOAD PUSH1 0x0 SWAP2 PUSH2 0x4BB SWAP2 DUP6 CALLDATALOAD SWAP2 DUP7 ADD CALLDATALOAD SWAP1 PUSH1 0x20 DUP1 DUP9 ADD CALLDATALOAD SWAP2 PUSH1 0x60 DUP10 ADD CALLDATALOAD SWAP2 PUSH1 0x80 DUP11 ADD CALLDATALOAD SWAP2 ADD SWAP5 DUP6 MSTORE PUSH1 0x20 DUP6 ADD SWAP4 SWAP1 SWAP4 MSTORE PUSH1 0x40 DUP5 ADD SWAP2 SWAP1 SWAP2 MSTORE PUSH1 0x60 DUP4 ADD MSTORE PUSH1 0x80 DUP3 ADD MSTORE PUSH1 0xA0 ADD SWAP1 JUMP JUMPDEST PUSH1 0x40 MLOAD PUSH1 0x20 DUP2 DUP4 SUB SUB DUP2 MSTORE SWAP1 PUSH1 0x40 MSTORE DUP1 MLOAD SWAP1 PUSH1 0x20 ADD KECCAK256 SWAP1 POP PUSH1 0x0 JUMPDEST PUSH1 0x5 DUP2 LT ISZERO PUSH2 0x59F JUMPI PUSH1 0x2 DUP2 PUSH1 0x5 DUP2 LT PUSH2 0x4F2 JUMPI PUSH2 0x4F2 PUSH2 0x8F5 JUMP JUMPDEST ADD SLOAD PUSH1 0x1 PUSH1 0x1 PUSH1 0xA0 SHL SUB AND PUSH2 0x574 PUSH2 0x50D PUSH1 0xA0 DUP8 ADD DUP8 PUSH2 0x90B JUMP JUMPDEST DUP4 PUSH1 0x5 DUP2 LT PUSH2 0x51E JUMPI PUSH2 0x51E PUSH2 0x8F5 JUMP JUMPDEST PUSH1 0x20 MUL DUP2 ADD SWAP1 PUSH2 0x52E SWAP2 SWAP1 PUSH2 0x92B JUMP JUMPDEST DUP1 DUP1 PUSH1 0x1F ADD PUSH1 0x20 DUP1 SWAP2 DIV MUL PUSH1 0x20 ADD PUSH1 0x40 MLOAD SWAP1 DUP2 ADD PUSH1 0x40 MSTORE DUP1 SWAP4 SWAP3 SWAP2 SWAP1 DUP2 DUP2 MSTORE PUSH1 0x20 ADD DUP4 DUP4 DUP1 DUP3 DUP5 CALLDATACOPY PUSH1 0x0 SWAP3 ADD SWAP2 SWAP1 SWAP2 MSTORE POP PUSH2 0x56E SWAP3 POP DUP8 SWAP2 POP PUSH2 0x5A9 SWAP1 POP JUMP JUMPDEST SWAP1 PUSH2 0x5FC JUMP JUMPDEST PUSH1 0x1 PUSH1 0x1 PUSH1 0xA0 SHL SUB AND EQ ISZERO PUSH2 0x58D JUMPI POP PUSH1 0x0 SWAP4 SWAP3 POP POP POP JUMP JUMPDEST DUP1 PUSH2 0x597 DUP2 PUSH2 0x972 JUMP JUMPDEST SWAP2 POP POP PUSH2 0x4D6 JUMP JUMPDEST POP PUSH1 0x1 SWAP4 SWAP3 POP POP POP JUMP JUMPDEST PUSH1 0x40 MLOAD PUSH32 0x19457468657265756D205369676E6564204D6573736167653A0A333200000000 PUSH1 0x20 DUP3 ADD MSTORE PUSH1 0x3C DUP2 ADD DUP3 SWAP1 MSTORE PUSH1 0x0 SWAP1 PUSH1 0x5C ADD PUSH1 0x40 MLOAD PUSH1 0x20 DUP2 DUP4 SUB SUB DUP2 MSTORE SWAP1 PUSH1 0x40 MSTORE DUP1 MLOAD SWAP1 PUSH1 0x20 ADD KECCAK256 SWAP1 POP SWAP2 SWAP1 POP JUMP JUMPDEST PUSH1 0x0 DUP1 PUSH1 0x0 PUSH2 0x60B DUP6 DUP6 PUSH2 0x620 JUMP JUMPDEST SWAP2 POP SWAP2 POP PUSH2 0x618 DUP2 PUSH2 0x666 JUMP JUMPDEST POP SWAP4 SWAP3 POP POP POP JUMP JUMPDEST PUSH1 0x0 DUP1 DUP3 MLOAD PUSH1 0x41 EQ ISZERO PUSH2 0x657 JUMPI PUSH1 0x20 DUP4 ADD MLOAD PUSH1 0x40 DUP5 ADD MLOAD PUSH1 0x60 DUP6 ADD MLOAD PUSH1 0x0 BYTE PUSH2 0x64B DUP8 DUP3 DUP6 DUP6 PUSH2 0x7B2 JUMP JUMPDEST SWAP5 POP SWAP5 POP POP POP POP PUSH2 0x65F JUMP JUMPDEST POP PUSH1 0x0 SWAP1 POP PUSH1 0x2 JUMPDEST SWAP3 POP SWAP3 SWAP1 POP JUMP JUMPDEST PUSH1 0x0 DUP2 PUSH1 0x4 DUP2 GT ISZERO PUSH2 0x67A JUMPI PUSH2 0x67A PUSH2 0x98D JUMP JUMPDEST EQ ISZERO PUSH2 0x683 JUMPI POP JUMP JUMPDEST PUSH1 0x1 DUP2 PUSH1 0x4 DUP2 GT ISZERO PUSH2 0x697 JUMPI PUSH2 0x697 PUSH2 0x98D JUMP JUMPDEST EQ ISZERO PUSH2 0x6E0 JUMPI PUSH1 0x40 MLOAD PUSH3 0x461BCD PUSH1 0xE5 SHL DUP2 MSTORE PUSH1 0x20 PUSH1 0x4 DUP3 ADD MSTORE PUSH1 0x18 PUSH1 0x24 DUP3 ADD MSTORE PUSH24 0x45434453413A20696E76616C6964207369676E6174757265 PUSH1 0x40 SHL PUSH1 0x44 DUP3 ADD MSTORE PUSH1 0x64 ADD PUSH2 0x21A JUMP JUMPDEST PUSH1 0x2 DUP2 PUSH1 0x4 DUP2 GT ISZERO PUSH2 0x6F4 JUMPI PUSH2 0x6F4 PUSH2 0x98D JUMP JUMPDEST EQ ISZERO PUSH2 0x742 JUMPI PUSH1 0x40 MLOAD PUSH3 0x461BCD PUSH1 0xE5 SHL DUP2 MSTORE PUSH1 0x20 PUSH1 0x4 DUP3 ADD MSTORE PUSH1 0x1F PUSH1 0x24 DUP3 ADD MSTORE PUSH32 0x45434453413A20696E76616C6964207369676E6174757265206C656E67746800 PUSH1 0x44 DUP3 ADD MSTORE PUSH1 0x64 ADD PUSH2 0x21A JUMP JUMPDEST PUSH1 0x3 DUP2 PUSH1 0x4 DUP2 GT ISZERO PUSH2 0x756 JUMPI PUSH2 0x756 PUSH2 0x98D JUMP JUMPDEST EQ ISZERO PUSH2 0x7AF JUMPI PUSH1 0x40 MLOAD PUSH3 0x461BCD PUSH1 0xE5 SHL DUP2 MSTORE PUSH1 0x20 PUSH1 0x4 DUP3 ADD MSTORE PUSH1 0x22 PUSH1 0x24 DUP3 ADD MSTORE PUSH32 0x45434453413A20696E76616C6964207369676E6174757265202773272076616C PUSH1 0x44 DUP3 ADD MSTORE PUSH2 0x7565 PUSH1 0xF0 SHL PUSH1 0x64 DUP3 ADD MSTORE PUSH1 0x84 ADD PUSH2 0x21A JUMP JUMPDEST POP JUMP JUMPDEST PUSH1 0x0 DUP1 PUSH16 0xA2A8918CA85BAFE22016D0B997E4DF60 PUSH1 0x1 PUSH1 0xFF SHL SUB DUP4 GT ISZERO PUSH2 0x7DF JUMPI POP PUSH1 0x0 SWAP1 POP PUSH1 0x3 PUSH2 0x863 JUMP JUMPDEST PUSH1 0x40 DUP1 MLOAD PUSH1 0x0 DUP1 DUP3 MSTORE PUSH1 0x20 DUP3 ADD DUP1 DUP5 MSTORE DUP10 SWAP1 MSTORE PUSH1 0xFF DUP9 AND SWAP3 DUP3 ADD SWAP3 SWAP1 SWAP3 MSTORE PUSH1 0x60 DUP2 ADD DUP7 SWAP1 MSTORE PUSH1 0x80 DUP2 ADD DUP6 SWAP1 MSTORE PUSH1 0x1 SWAP1 PUSH1 0xA0 ADD PUSH1 0x20 PUSH1 0x40 MLOAD PUSH1 0x20 DUP2 SUB SWAP1 DUP1 DUP5 SUB SWAP1 DUP6 GAS STATICCALL ISZERO DUP1 ISZERO PUSH2 0x833 JUMPI RETURNDATASIZE PUSH1 0x0 DUP1 RETURNDATACOPY RETURNDATASIZE PUSH1 0x0 REVERT JUMPDEST POP POP PUSH1 0x40 MLOAD PUSH1 0x1F NOT ADD MLOAD SWAP2 POP POP PUSH1 0x1 PUSH1 0x1 PUSH1 0xA0 SHL SUB DUP2 AND PUSH2 0x85C JUMPI PUSH1 0x0 PUSH1 0x1 SWAP3 POP SWAP3 POP POP PUSH2 0x863 JUMP JUMPDEST SWAP2 POP PUSH1 0x0 SWAP1 POP JUMPDEST SWAP5 POP SWAP5 SWAP3 POP POP POP JUMP JUMPDEST PUSH1 0x0 PUSH1 0x20 DUP3 DUP5 SUB SLT ISZERO PUSH2 0x87E JUMPI PUSH1 0x0 DUP1 REVERT JUMPDEST DUP2 CALLDATALOAD PUSH8 0xFFFFFFFFFFFFFFFF DUP2 GT ISZERO PUSH2 0x895 JUMPI PUSH1 0x0 DUP1 REVERT JUMPDEST DUP3 ADD PUSH1 0xC0 DUP2 DUP6 SUB SLT ISZERO PUSH2 0x8A7 JUMPI PUSH1 0x0 DUP1 REVERT JUMPDEST SWAP4 SWAP3 POP POP POP JUMP JUMPDEST PUSH1 0x0 PUSH1 0x20 DUP3 DUP5 SUB SLT ISZERO PUSH2 0x8C0 JUMPI PUSH1 0x0 DUP1 REVERT JUMPDEST POP CALLDATALOAD SWAP2 SWAP1 POP JUMP JUMPDEST PUSH4 0x4E487B71 PUSH1 0xE0 SHL PUSH1 0x0 MSTORE PUSH1 0x11 PUSH1 0x4 MSTORE PUSH1 0x24 PUSH1 0x0 REVERT JUMPDEST PUSH1 0x0 DUP3 NOT DUP3 GT ISZERO PUSH2 0x8F0 JUMPI PUSH2 0x8F0 PUSH2 0x8C7 JUMP JUMPDEST POP ADD SWAP1 JUMP JUMPDEST PUSH4 0x4E487B71 PUSH1 0xE0 SHL PUSH1 0x0 MSTORE PUSH1 0x32 PUSH1 0x4 MSTORE PUSH1 0x24 PUSH1 0x0 REVERT JUMPDEST PUSH1 0x0 DUP3 CALLDATALOAD PUSH1 0x9E NOT DUP4 CALLDATASIZE SUB ADD DUP2 SLT PUSH2 0x921 JUMPI PUSH1 0x0 DUP1 REVERT JUMPDEST SWAP2 SWAP1 SWAP2 ADD SWAP3 SWAP2 POP POP JUMP JUMPDEST PUSH1 0x0 DUP1 DUP4 CALLDATALOAD PUSH1 0x1E NOT DUP5 CALLDATASIZE SUB ADD DUP2 SLT PUSH2 0x942 JUMPI PUSH1 0x0 DUP1 REVERT JUMPDEST DUP4 ADD DUP1 CALLDATALOAD SWAP2 POP PUSH8 0xFFFFFFFFFFFFFFFF DUP3 GT ISZERO PUSH2 0x95D JUMPI PUSH1 0x0 DUP1 REVERT JUMPDEST PUSH1 0x20 ADD SWAP2 POP CALLDATASIZE DUP2 SWAP1 SUB DUP3 SGT ISZERO PUSH2 0x65F JUMPI PUSH1 0x0 DUP1 REVERT JUMPDEST PUSH1 0x0 PUSH1 0x0 NOT DUP3 EQ ISZERO PUSH2 0x986 JUMPI PUSH2 0x986 PUSH2 0x8C7 JUMP JUMPDEST POP PUSH1 0x1 ADD SWAP1 JUMP JUMPDEST PUSH4 0x4E487B71 PUSH1 0xE0 SHL PUSH1 0x0 MSTORE PUSH1 0x21 PUSH1 0x4 MSTORE PUSH1 0x24 PUSH1 0x0 REVERT INVALID LOG2 PUSH5 0x6970667358 0x22 SLT KECCAK256 PUSH19 0xEF0433C2EF0489B74AA2747C2E7EE79C3BDF2D DUP2 0xD7 SWAP16 0x2A PUSH3 0xADEF8 0xD 0xE5 0x4A 0xBB PUSH5 0x736F6C6343 STOP ADDMOD MULMOD STOP CALLER "
    }
  }
}