{
  "abi": [
    {
      "inputs": [
        {
          "internalType": "address[5]",
          "name": "_participants",
          "type": "address[5]"
        }
      ],
      "stateMutability": "nonpayable",
      "type": "constructor"
    },
    {
      "inputs": [
        {
          "internalType": "uint256",
          "name": "id",
          "type": "uint256"
        },
        {
          "internalType": "uint256",
          "name": "cond",
          "type": "uint256"
        }
      ],
      "name": "enact",
      "outputs": [],
      "stateMutability": "nonpayable",
      "type": "function"
    },
    {
      "inputs": [
        {
          "internalType": "uint256",
          "name": "",
          "type": "uint256"
        }
      ],
      "name": "participants",
      "outputs": [
        {
          "internalType": "address",
          "name": "",
          "type": "address"
        }
      ],
      "stateMutability": "view",
      "type": "function"
    },
    {
      "inputs": [],
      "name": "tokenState",
      "outputs": [
        {
          "internalType": "uint256",
          "name": "",
          "type": "uint256"
        }
      ],
      "stateMutability": "view",
      "type": "function"
    }
  ],
  "evm": {
    "bytecode": {
      "linkReferences": {},
      "object": "6080604052600160005534801561001557600080fd5b50604051610535380380610535833981016040819052610034916100d1565b6100416001826005610048565b5050610163565b8260058101928215610090579160200282015b8281111561009057825182546001600160a01b0319166001600160a01b0390911617825560209092019160019091019061005b565b5061009c9291506100a0565b5090565b5b8082111561009c57600081556001016100a1565b80516001600160a01b03811681146100cc57600080fd5b919050565b600060a082840312156100e357600080fd5b82601f8301126100f257600080fd5b60405160a081016001600160401b038111828210171561012257634e487b7160e01b600052604160045260246000fd5b6040528060a084018581111561013757600080fd5b845b818110156101585761014a816100b5565b835260209283019201610139565b509195945050505050565b6103c3806101726000396000f3fe608060405234801561001057600080fd5b50600436106100415760003560e01c806302563a901461004657806335c1d3491461005b578063e90dd9e21461008b575b600080fd5b610059610054366004610352565b6100a2565b005b61006e610069366004610374565b610332565b6040516001600160a01b0390911681526020015b60405180910390f35b61009460005481565b604051908152602001610082565b6000546001600001546001600160a01b0316331480156100c0575082155b80156100cf5750806001166001145b156100e0576001191660021761030c565b6001600401546001600160a01b0316331480156100fd5750826001145b801561010c5750806002166002145b1561011d5760021916600c1761030c565b60018001546001600160a01b0316331480156101395750826002145b80156101485750806004166004145b15610159576004191660101761030c565b60018001546001600160a01b0316331480156101755750826003145b80156101845750806008166008145b15610195576008191660201761030c565b6001600301546001600160a01b0316331480156101b25750826004145b80156101c15750806040166040145b156101d2576040191660801761030c565b6001600201546001600160a01b0316331480156101ef5750826005145b80156101fe5750806080166080145b1561021057608019166101001761030c565b6001600201546001600160a01b03163314801561022d5750826006145b801561023e57508061010016610100145b156102515761010019166102001761030c565b6001600301546001600160a01b03163314801561026e5750826007145b801561027f57508061020016610200145b156102925761020019166104001761030c565b6001600401546001600160a01b0316331480156102af5750826008145b80156102c057508061040016610400145b156102d35761040019166108001761030c565b6001600401546001600160a01b0316331480156102f05750826009145b801561030157508061080016610800145b1561030c5761080019165b5b801561032b57806030166030141561032b576030191660401761030d565b6000555050565b6001816005811061034257600080fd5b01546001600160a01b0316905081565b6000806040838503121561036557600080fd5b50508035926020909101359150565b60006020828403121561038657600080fd5b503591905056fea26469706673582212206f38f8f7ba952b3fdcd887ecc223ca883497afc33fc205c29d57944bf764104064736f6c63430008090033",
      "opcodes": "PUSH1 0x80 PUSH1 0x40 MSTORE PUSH1 0x1 PUSH1 0x0 SSTORE CALLVALUE DUP1 ISZERO PUSH2 0x15 JUMPI PUSH1 0x0 DUP1 REVERT JUMPDEST POP PUSH1 0x40 MLOAD PUSH2 0x535 CODESIZE SUB DUP1 PUSH2 0x535 DUP4 CODECOPY DUP2 ADD PUSH1 0x40 DUP2 SWAP1 MSTORE PUSH2 0x34 SWAP2 PUSH2 0xD1 JUMP JUMPDEST PUSH2 0x41 PUSH1 0x1 DUP3 PUSH1 0x5 PUSH2 0x48 JUMP JUMPDEST POP POP PUSH2 0x163 JUMP JUMPDEST DUP3 PUSH1 0x5 DUP2 ADD SWAP3 DUP3 ISZERO PUSH2 0x90 JUMPI SWAP2 PUSH1 0x20 MUL DUP3 ADD JUMPDEST DUP3 DUP2 GT ISZERO PUSH2 0x90 JUMPI DUP3 MLOAD DUP3 SLOAD PUSH1 0x1 PUSH1 0x1 PUSH1 0xA0 SHL SUB NOT AND PUSH1 0x1 PUSH1 0x1 PUSH1 0xA0 SHL SUB SWAP1 SWAP2 AND OR DUP3 SSTORE PUSH1 0x20 SWAP1 SWAP3 ADD SWAP2 PUSH1 0x1 SWAP1 SWAP2 ADD SWAP1 PUSH2 0x5B JUMP JUMPDEST POP PUSH2 0x9C SWAP3 SWAP2 POP PUSH2 0xA0 JUMP JUMPDEST POP SWAP1 JUMP JUMPDEST JUMPDEST DUP1 DUP3 GT ISZERO PUSH2 0x9C JUMPI PUSH1 0x0 DUP2 SSTORE PUSH1 0x1 ADD PUSH2 0xA1 JUMP JUMPDEST DUP1 MLOAD PUSH1 0x1 PUSH1 0x1 PUSH1 0xA0 SHL SUB DUP2 AND DUP2 EQ PUSH2 0xCC JUMPI PUSH1 0x0 DUP1 REVERT JUMPDEST SWAP2 SWAP1 POP JUMP JUMPDEST PUSH1 0x0 PUSH1 0xA0 DUP3 DUP5 SUB SLT ISZERO PUSH2 0xE3 JUMPI PUSH1 0x0 DUP1 REVERT JUMPDEST DUP3 PUSH1 0x1F DUP4 ADD SLT PUSH2 0xF2 JUMPI PUSH1 0x0 DUP1 REVERT JUMPDEST PUSH1 0x40 MLOAD PUSH1 0xA0 DUP2 ADD PUSH1 0x1 PUSH1 0x1 PUSH1 0x40 SHL SUB DUP2 GT DUP3 DUP3 LT OR ISZERO PUSH2 0x122 JUMPI PUSH4 0x4E487B71 PUSH1 0xE0 SHL PUSH1 0x0 MSTORE PUSH1 0x41 PUSH1 0x4 MSTORE PUSH1 0x24 PUSH1 0x0 REVERT JUMPDEST PUSH1 0x40 MSTORE DUP1 PUSH1 0xA0 DUP5 ADD DUP6 DUP2 GT ISZERO PUSH2 0x137 JUMPI PUSH1 0x0 DUP1 REVERT JUMPDEST DUP5 JUMPDEST DUP2 DUP2 LT ISZERO PUSH2 0x158 JUMPI PUSH2 0x14A DUP2 PUSH2 0xB5 JUMP JUMPDEST DUP4 MSTORE PUSH1 0x20 SWAP3 DUP4 ADD SWAP3 ADD PUSH2 0x139 JUMP JUMPDEST POP SWAP2 SWAP6 SWAP5 POP POP POP POP POP JUMP JUMPDEST PUSH2 0x3C3 DUP1 PUSH2 0x172 PUSH1 0x0 CODECOPY PUSH1 0x0 RETURN INVALID PUSH1 0x80 PUSH1 0x40 MSTORE CALLVALUE DUP1 ISZERO PUSH2 0x10 JUMPI PUSH1 0x0 DUP1 REVERT JUMPDEST POP PUSH1 0x4 CALLDATASIZE LT PUSH2 0x41 JUMPI PUSH1 0x0 CALLDATALOAD PUSH1 0xE0 SHR DUP1 PUSH4 0x2563A90 EQ PUSH2 0x46 JUMPI DUP1 PUSH4 0x35C1D349 EQ PUSH2 0x5B JUMPI DUP1 PUSH4 0xE90DD9E2 EQ PUSH2 0x8B JUMPI JUMPDEST PUSH1 0x0 DUP1 REVERT JUMPDEST PUSH2 0x59 PUSH2 0x54 CALLDATASIZE PUSH1 0x4 PUSH2 0x352 JUMP JUMPDEST PUSH2 0xA2 JUMP JUMPDEST STOP JUMPDEST PUSH2 0x6E PUSH2 0x69 CALLDATASIZE PUSH1 0x4 PUSH2 0x374 JUMP JUMPDEST PUSH2 0x332 JUMP JUMPDEST PUSH1 0x40 MLOAD PUSH1 0x1 PUSH1 0x1 PUSH1 0xA0 SHL SUB SWAP1 SWAP2 AND DUP2 MSTORE PUSH1 0x20 ADD JUMPDEST PUSH1 0x40 MLOAD DUP1 SWAP2 SUB SWAP1 RETURN JUMPDEST PUSH2 0x94 PUSH1 0x0 SLOAD DUP2 JUMP JUMPDEST PUSH1 0x40 MLOAD SWAP1 DUP2 MSTORE PUSH1 0x20 ADD PUSH2 0x82 JUMP JUMPDEST PUSH1 0x0 SLOAD PUSH1 0x1 PUSH1 0x0 ADD SLOAD PUSH1 0x1 PUSH1 0x1 PUSH1 0xA0 SHL SUB AND CALLER EQ DUP1 ISZERO PUSH2 0xC0 JUMPI POP DUP3 ISZERO JUMPDEST DUP1 ISZERO PUSH2 0xCF JUMPI POP DUP1 PUSH1 0x1 AND PUSH1 0x1 EQ JUMPDEST ISZERO PUSH2 0xE0 JUMPI PUSH1 0x1 NOT AND PUSH1 0x2 OR PUSH2 0x30C JUMP JUMPDEST PUSH1 0x1 PUSH1 0x4 ADD SLOAD PUSH1 0x1 PUSH1 0x1 PUSH1 0xA0 SHL SUB AND CALLER EQ DUP1 ISZERO PUSH2 0xFD JUMPI POP DUP3 PUSH1 0x1 EQ JUMPDEST DUP1 ISZERO PUSH2 0x10C JUMPI POP DUP1 PUSH1 0x2 AND PUSH1 0x2 EQ JUMPDEST ISZERO PUSH2 0x11D JUMPI PUSH1 0x2 NOT AND PUSH1 0xC OR PUSH2 0x30C JUMP JUMPDEST PUSH1 0x1 DUP1 ADD SLOAD PUSH1 0x1 PUSH1 0x1 PUSH1 0xA0 SHL SUB AND CALLER EQ DUP1 ISZERO PUSH2 0x139 JUMPI POP DUP3 PUSH1 0x2 EQ JUMPDEST DUP1 ISZERO PUSH2 0x148 JUMPI POP DUP1 PUSH1 0x4 AND PUSH1 0x4 EQ JUMPDEST ISZERO PUSH2 0x159 JUMPI PUSH1 0x4 NOT AND PUSH1 0x10 OR PUSH2 0x30C JUMP JUMPDEST PUSH1 0x1 DUP1 ADD SLOAD PUSH1 0x1 PUSH1 0x1 PUSH1 0xA0 SHL SUB AND CALLER EQ DUP1 ISZERO PUSH2 0x175 JUMPI POP DUP3 PUSH1 0x3 EQ JUMPDEST DUP1 ISZERO PUSH2 0x184 JUMPI POP DUP1 PUSH1 0x8 AND PUSH1 0x8 EQ JUMPDEST ISZERO PUSH2 0x195 JUMPI PUSH1 0x8 NOT AND PUSH1 0x20 OR PUSH2 0x30C JUMP JUMPDEST PUSH1 0x1 PUSH1 0x3 ADD SLOAD PUSH1 0x1 PUSH1 0x1 PUSH1 0xA0 SHL SUB AND CALLER EQ DUP1 ISZERO PUSH2 0x1B2 JUMPI POP DUP3 PUSH1 0x4 EQ JUMPDEST DUP1 ISZERO PUSH2 0x1C1 JUMPI POP DUP1 PUSH1 0x40 AND PUSH1 0x40 EQ JUMPDEST ISZERO PUSH2 0x1D2 JUMPI PUSH1 0x40 NOT AND PUSH1 0x80 OR PUSH2 0x30C JUMP JUMPDEST PUSH1 0x1 PUSH1 0x2 ADD SLOAD PUSH1 0x1 PUSH1 0x1 PUSH1 0xA0 SHL SUB AND CALLER EQ DUP1 ISZERO PUSH2 0x1EF JUMPI POP DUP3 PUSH1 0x5 EQ JUMPDEST DUP1 ISZERO PUSH2 0x1FE JUMPI POP DUP1 PUSH1 0x80 AND PUSH1 0x80 EQ JUMPDEST ISZERO PUSH2 0x210 JUMPI PUSH1 0x80 NOT AND PUSH2 0x100 OR PUSH2 0x30C JUMP JUMPDEST PUSH1 0x1 PUSH1 0x2 ADD SLOAD PUSH1 0x1 PUSH1 0x1 PUSH1 0xA0 SHL SUB AND CALLER EQ DUP1 ISZERO PUSH2 0x22D JUMPI POP DUP3 PUSH1 0x6 EQ JUMPDEST DUP1 ISZERO PUSH2 0x23E JUMPI POP DUP1 PUSH2 0x100 AND PUSH2 0x100 EQ JUMPDEST ISZERO PUSH2 0x251 JUMPI PUSH2 0x100 NOT AND PUSH2 0x200 OR PUSH2 0x30C JUMP JUMPDEST PUSH1 0x1 PUSH1 0x3 ADD SLOAD PUSH1 0x1 PUSH1 0x1 PUSH1 0xA0 SHL SUB AND CALLER EQ DUP1 ISZERO PUSH2 0x26E JUMPI POP DUP3 PUSH1 0x7 EQ JUMPDEST DUP1 ISZERO PUSH2 0x27F JUMPI POP DUP1 PUSH2 0x200 AND PUSH2 0x200 EQ JUMPDEST ISZERO PUSH2 0x292 JUMPI PUSH2 0x200 NOT AND PUSH2 0x400 OR PUSH2 0x30C JUMP JUMPDEST PUSH1 0x1 PUSH1 0x4 ADD SLOAD PUSH1 0x1 PUSH1 0x1 PUSH1 0xA0 SHL SUB AND CALLER EQ DUP1 ISZERO PUSH2 0x2AF JUMPI POP DUP3 PUSH1 0x8 EQ JUMPDEST DUP1 ISZERO PUSH2 0x2C0 JUMPI POP DUP1 PUSH2 0x400 AND PUSH2 0x400 EQ JUMPDEST ISZERO PUSH2 0x2D3 JUMPI PUSH2 0x400 NOT AND PUSH2 0x800 OR PUSH2 0x30C JUMP JUMPDEST PUSH1 0x1 PUSH1 0x4 ADD SLOAD PUSH1 0x1 PUSH1 0x1 PUSH1 0xA0 SHL SUB AND CALLER EQ DUP1 ISZERO PUSH2 0x2F0 JUMPI POP DUP3 PUSH1 0x9 EQ JUMPDEST DUP1 ISZERO PUSH2 0x301 JUMPI POP DUP1 PUSH2 0x800 AND PUSH2 0x800 EQ JUMPDEST ISZERO PUSH2 0x30C JUMPI PUSH2 0x800 NOT AND JUMPDEST JUMPDEST DUP1 ISZERO PUSH2 0x32B JUMPI DUP1 PUSH1 0x30 AND PUSH1 0x30 EQ ISZERO PUSH2 0x32B JUMPI PUSH1 0x30 NOT AND PUSH1 0x40 OR PUSH2 0x30D JUMP JUMPDEST PUSH1 0x0 SSTORE POP POP JUMP JUMPDEST PUSH1 0x1 DUP2 PUSH1 0x5 DUP2 LT PUSH2 0x342 JUMPI PUSH1 0x0 DUP1 REVERT JUMPDEST ADD SLOAD PUSH1 0x1 PUSH1 0x1 PUSH1 0xA0 SHL SUB AND SWAP1 POP DUP2 JUMP JUMPDEST PUSH1 0x0 DUP1 PUSH1 0x40 DUP4 DUP6 SUB SLT ISZERO PUSH2 0x365 JUMPI PUSH1 0x0 DUP1 REVERT JUMPDEST POP POP DUP1 CALLDATALOAD SWAP3 PUSH1 0x20 SWAP1 SWAP2 ADD CALLDATALOAD SWAP2 POP JUMP JUMPDEST PUSH1 0x0 PUSH1 0x20 DUP3 DUP5 SUB SLT ISZERO PUSH2 0x386 JUMPI PUSH1 0x0 DUP1 REVERT JUMPDEST POP CALLDATALOAD SWAP2 SWAP1 POP JUMP INVALID LOG2 PUSH5 0x6970667358 0x22 SLT KECCAK256 PUSH16 0x38F8F7BA952B3FDCD887ECC223CA8834 SWAP8 0xAF 0xC3 EXTCODEHASH 0xC2 SDIV 0xC2 SWAP14 JUMPI SWAP5 0x4B 0xF7 PUSH5 0x104064736F PUSH13 0x63430008090033000000000000 "
    }
  }
}