{
  "_format": "hh-sol-artifact-1",
  "contractName": "IM_ProcessExecution",
  "sourceName": "tests/output/contracts/incident-management/IM_ProcessExecution.sol",
  "abi": [
    {
      "inputs": [
        {
          "internalType": "address[5]",
          "name": "_participants",
          "type": "address[5]"
        }
      ],
      "stateMutability": "nonpayable",
      "type": "constructor"
    },
    {
      "inputs": [
        {
          "internalType": "uint256",
          "name": "id",
          "type": "uint256"
        }
      ],
      "name": "enact",
      "outputs": [],
      "stateMutability": "nonpayable",
      "type": "function"
    },
    {
      "inputs": [
        {
          "internalType": "uint256",
          "name": "",
          "type": "uint256"
        }
      ],
      "name": "participants",
      "outputs": [
        {
          "internalType": "address",
          "name": "",
          "type": "address"
        }
      ],
      "stateMutability": "view",
      "type": "function"
    },
    {
      "inputs": [],
      "name": "resolved",
      "outputs": [
        {
          "internalType": "bool",
          "name": "",
          "type": "bool"
        }
      ],
      "stateMutability": "view",
      "type": "function"
    },
    {
      "inputs": [
        {
          "internalType": "bool",
          "name": "_resolved",
          "type": "bool"
        }
      ],
      "name": "setresolved",
      "outputs": [],
      "stateMutability": "nonpayable",
      "type": "function"
    },
    {
      "inputs": [],
      "name": "tokenState",
      "outputs": [
        {
          "internalType": "uint256",
          "name": "",
          "type": "uint256"
        }
      ],
      "stateMutability": "view",
      "type": "function"
    }
  ],
  "bytecode": "0x608060405260016000556006805460ff1916905534801561001f57600080fd5b5060405161059738038061059783398101604081905261003e916100db565b61004b6001826005610052565b505061016d565b826005810192821561009a579160200282015b8281111561009a57825182546001600160a01b0319166001600160a01b03909116178255602090920191600190910190610065565b506100a69291506100aa565b5090565b5b808211156100a657600081556001016100ab565b80516001600160a01b03811681146100d657600080fd5b919050565b600060a082840312156100ed57600080fd5b82601f8301126100fc57600080fd5b60405160a081016001600160401b038111828210171561012c57634e487b7160e01b600052604160045260246000fd5b6040528060a084018581111561014157600080fd5b845b8181101561016257610154816100bf565b835260209283019201610143565b509195945050505050565b61041b8061017c6000396000f3fe608060405234801561001057600080fd5b50600436106100575760003560e01c806335c1d3491461005c5780633f6fa6551461008c5780635e9cc2a9146100a9578063b482e4f5146100be578063e90dd9e2146100df575b600080fd5b61006f61006a3660046103a3565b6100f6565b6040516001600160a01b0390911681526020015b60405180910390f35b6006546100999060ff1681565b6040519015158152602001610083565b6100bc6100b73660046103a3565b610116565b005b6100bc6100cc3660046103bc565b6006805460ff1916911515919091179055565b6100e860005481565b604051908152602001610083565b6001816005811061010657600080fd5b01546001600160a01b0316905081565b6000545b801561039d57806001166001141561015e5781600114801561014957506001600001546001600160a01b031633145b1561015e57600091506001191660021761011a565b806002166002141561019b57816002148015610186575060018001546001600160a01b031633145b1561019b57600091506002191660041761011a565b80600816600814156101d1578160031480156101c3575060018001546001600160a01b031633145b156101d1576008191661039d565b806004166004141561022a578160041480156101f9575060018001546001600160a01b031633145b1561020e57600091506004191660101761011a565b60065460ff1615156001141561022a576004191660081761011a565b80602016602014156102685781600514801561025357506001600201546001600160a01b031633145b1561026857600091506020191660081761011a565b80601016601014156102c25781600614801561029157506001600201546001600160a01b031633145b156102a657600091506010191660401761011a565b60065460ff161515600114156102c2576010191660201761011a565b806040166040141561031d578160071480156102eb57506001600301546001600160a01b031633145b1561030057600091506040191660801761011a565b60065460ff1615156001141561031d57604019166101001761011a565b806080166080141561035c5781600814801561034657506001600401546001600160a01b031633145b1561035c5760009150608019166101001761011a565b8061010016610100141561039d5781600914801561038757506001600301546001600160a01b031633145b1561039d5760009150610100191660201761011a565b60005550565b6000602082840312156103b557600080fd5b5035919050565b6000602082840312156103ce57600080fd5b813580151581146103de57600080fd5b939250505056fea2646970667358221220f29a3335f473ca445d4c2dd0ff435ce367eb66c39307700cfb02dca9019b4bbe64736f6c63430008090033",
  "linkReferences": {},
  "deployedLinkReferences": {}
}