{
  "_format": "hh-sol-artifact-1",
  "contractName": "PH_ProcessExecution",
  "sourceName": "tests/output/contracts/out-of-order/PH_ProcessExecution.sol",
  "abi": [
    {
      "inputs": [
        {
          "internalType": "address[5]",
          "name": "_participants",
          "type": "address[5]"
        }
      ],
      "stateMutability": "nonpayable",
      "type": "constructor"
    },
    {
      "inputs": [
        {
          "internalType": "uint256",
          "name": "id",
          "type": "uint256"
        }
      ],
      "name": "enact",
      "outputs": [],
      "stateMutability": "nonpayable",
      "type": "function"
    },
    {
      "inputs": [
        {
          "internalType": "uint256",
          "name": "",
          "type": "uint256"
        }
      ],
      "name": "participants",
      "outputs": [
        {
          "internalType": "address",
          "name": "",
          "type": "address"
        }
      ],
      "stateMutability": "view",
      "type": "function"
    },
    {
      "inputs": [],
      "name": "tokenState",
      "outputs": [
        {
          "internalType": "uint256",
          "name": "",
          "type": "uint256"
        }
      ],
      "stateMutability": "view",
      "type": "function"
    }
  ],
  "bytecode": "0x6080604052600160005534801561001557600080fd5b5060405161043d38038061043d833981016040819052610034916100d1565b6100416001826005610048565b5050610163565b8260058101928215610090579160200282015b8281111561009057825182546001600160a01b0319166001600160a01b0390911617825560209092019160019091019061005b565b5061009c9291506100a0565b5090565b5b8082111561009c57600081556001016100a1565b80516001600160a01b03811681146100cc57600080fd5b919050565b600060a082840312156100e357600080fd5b82601f8301126100f257600080fd5b60405160a081016001600160401b038111828210171561012257634e487b7160e01b600052604160045260246000fd5b6040528060a084018581111561013757600080fd5b845b818110156101585761014a816100b5565b835260209283019201610139565b509195945050505050565b6102cb806101726000396000f3fe608060405234801561001057600080fd5b50600436106100415760003560e01c806335c1d349146100465780635e9cc2a914610076578063e90dd9e21461008b575b600080fd5b61005961005436600461027c565b6100a2565b6040516001600160a01b0390911681526020015b60405180910390f35b61008961008436600461027c565b6100c2565b005b61009460005481565b60405190815260200161006d565b600181600581106100b257600080fd5b01546001600160a01b0316905081565b6000545b801561027657806002166002141561010a578160011480156100f557506001600301546001600160a01b031633145b1561010a5760009150600219166004176100c6565b80600816600814156101415781600214801561013357506001600401546001600160a01b031633145b156101415760081916610276565b806004166004141561017f5781600314801561016a57506001600401546001600160a01b031633145b1561017f5760009150600419166010176100c6565b80600116600114156101bd578160041480156101a857506001600001546001600160a01b031633145b156101bd5760009150600119166002176100c6565b80602016602014156101fa578160051480156101e5575060018001546001600160a01b031633145b156101fa5760009150602019166040176100c6565b80604016604014156102385781600614801561022357506001600401546001600160a01b031633145b156102385760009150604019166008176100c6565b80601016601014156102765781600714801561026157506001600201546001600160a01b031633145b156102765760009150601019166020176100c6565b60005550565b60006020828403121561028e57600080fd5b503591905056fea264697066735822122067185dfde90aabc74b0e09b0457d06783e3bc76c21f39d046154ed8a0c06af4d64736f6c63430008090033",
  "linkReferences": {},
  "deployedLinkReferences": {}
}